{
	"homework.sol": {
		"Voting": {
			"abi": [
				{
					"inputs": [
						{
							"internalType": "string",
							"name": "_candidateName",
							"type": "string"
						}
					],
					"name": "getVotes",
					"outputs": [
						{
							"internalType": "uint256",
							"name": "",
							"type": "uint256"
						}
					],
					"stateMutability": "view",
					"type": "function"
				},
				{
					"inputs": [],
					"name": "resetVotes",
					"outputs": [],
					"stateMutability": "nonpayable",
					"type": "function"
				},
				{
					"inputs": [
						{
							"internalType": "string",
							"name": "_candidateName",
							"type": "string"
						}
					],
					"name": "vote",
					"outputs": [],
					"stateMutability": "nonpayable",
					"type": "function"
				}
			],
			"devdoc": {
				"kind": "dev",
				"methods": {},
				"version": 1
			},
			"evm": {
				"assembly": "    /* \"homework.sol\":58:863  contract Voting {... */\n  mstore(0x40, 0x80)\n  callvalue\n  dup1\n  iszero\n  tag_1\n  jumpi\n  revert(0x00, 0x00)\ntag_1:\n  pop\n  dataSize(sub_0)\n  dup1\n  dataOffset(sub_0)\n  0x00\n  codecopy\n  0x00\n  return\nstop\n\nsub_0: assembly {\n        /* \"homework.sol\":58:863  contract Voting {... */\n      mstore(0x40, 0x80)\n      callvalue\n      dup1\n      iszero\n      tag_1\n      jumpi\n      revert(0x00, 0x00)\n    tag_1:\n      pop\n      jumpi(tag_2, lt(calldatasize, 0x04))\n      shr(0xe0, calldataload(0x00))\n      dup1\n      0x805265e5\n      eq\n      tag_3\n      jumpi\n      dup1\n      0xb9830ff1\n      eq\n      tag_4\n      jumpi\n      dup1\n      0xfc36e15b\n      eq\n      tag_5\n      jumpi\n    tag_2:\n      revert(0x00, 0x00)\n        /* \"homework.sol\":572:704  function getVotes(string calldata _candidateName) public view  returns (uint) {... */\n    tag_3:\n      tag_6\n      0x04\n      dup1\n      calldatasize\n      sub\n      dup2\n      add\n      swap1\n      tag_7\n      swap2\n      swap1\n      tag_8\n      jump\t// in\n    tag_7:\n      tag_9\n      jump\t// in\n    tag_6:\n      mload(0x40)\n      tag_10\n      swap2\n      swap1\n      tag_11\n      jump\t// in\n    tag_10:\n      mload(0x40)\n      dup1\n      swap2\n      sub\n      swap1\n      return\n        /* \"homework.sol\":710:861  function resetVotes() public {... */\n    tag_4:\n      tag_12\n      tag_13\n      jump\t// in\n    tag_12:\n      stop\n        /* \"homework.sol\":166:566  function vote(string calldata _candidateName) public {... */\n    tag_5:\n      tag_14\n      0x04\n      dup1\n      calldatasize\n      sub\n      dup2\n      add\n      swap1\n      tag_15\n      swap2\n      swap1\n      tag_8\n      jump\t// in\n    tag_15:\n      tag_16\n      jump\t// in\n    tag_14:\n      stop\n        /* \"homework.sol\":572:704  function getVotes(string calldata _candidateName) public view  returns (uint) {... */\n    tag_9:\n        /* \"homework.sol\":644:648  uint */\n      0x00\n        /* \"homework.sol\":667:681  candidateVotes */\n      0x00\n        /* \"homework.sol\":682:696  _candidateName */\n      dup4\n      dup4\n        /* \"homework.sol\":667:697  candidateVotes[_candidateName] */\n      mload(0x40)\n      tag_18\n      swap3\n      swap2\n      swap1\n      tag_19\n      jump\t// in\n    tag_18:\n      swap1\n      dup2\n      mstore\n      0x20\n      add\n      mload(0x40)\n      dup1\n      swap2\n      sub\n      swap1\n      keccak256\n      sload\n        /* \"homework.sol\":660:697  return candidateVotes[_candidateName] */\n      swap1\n      pop\n        /* \"homework.sol\":572:704  function getVotes(string calldata _candidateName) public view  returns (uint) {... */\n      swap3\n      swap2\n      pop\n      pop\n      jump\t// out\n        /* \"homework.sol\":710:861  function resetVotes() public {... */\n    tag_13:\n        /* \"homework.sol\":754:760  uint i */\n      0x00\n        /* \"homework.sol\":763:764  0 */\n      0x00\n        /* \"homework.sol\":754:764  uint i = 0 */\n      swap1\n      pop\n        /* \"homework.sol\":749:855  for (uint i = 0; i < candidates.length; i++) {... */\n    tag_21:\n        /* \"homework.sol\":770:780  candidates */\n      0x01\n        /* \"homework.sol\":770:787  candidates.length */\n      dup1\n      sload\n      swap1\n      pop\n        /* \"homework.sol\":766:767  i */\n      dup2\n        /* \"homework.sol\":766:787  i < candidates.length */\n      lt\n        /* \"homework.sol\":749:855  for (uint i = 0; i < candidates.length; i++) {... */\n      iszero\n      tag_22\n      jumpi\n        /* \"homework.sol\":815:829  candidateVotes */\n      0x00\n        /* \"homework.sol\":830:840  candidates */\n      0x01\n        /* \"homework.sol\":841:842  i */\n      dup3\n        /* \"homework.sol\":830:843  candidates[i] */\n      dup2\n      sload\n      dup2\n      lt\n      tag_24\n      jumpi\n      tag_25\n      tag_26\n      jump\t// in\n    tag_25:\n    tag_24:\n      swap1\n      0x00\n      mstore\n      keccak256(0x00, 0x20)\n      add\n        /* \"homework.sol\":815:844  candidateVotes[candidates[i]] */\n      mload(0x40)\n      tag_28\n      swap2\n      swap1\n      tag_29\n      jump\t// in\n    tag_28:\n      swap1\n      dup2\n      mstore\n      0x20\n      add\n      mload(0x40)\n      dup1\n      swap2\n      sub\n      swap1\n      keccak256\n        /* \"homework.sol\":808:844  delete candidateVotes[candidates[i]] */\n      0x00\n      swap1\n      sstore\n        /* \"homework.sol\":789:792  i++ */\n      dup1\n      dup1\n      0x01\n      add\n      swap2\n      pop\n      pop\n        /* \"homework.sol\":749:855  for (uint i = 0; i < candidates.length; i++) {... */\n      jump(tag_21)\n    tag_22:\n      pop\n        /* \"homework.sol\":710:861  function resetVotes() public {... */\n      jump\t// out\n        /* \"homework.sol\":166:566  function vote(string calldata _candidateName) public {... */\n    tag_16:\n        /* \"homework.sol\":263:264  1 */\n      0x01\n        /* \"homework.sol\":229:243  candidateVotes */\n      0x00\n        /* \"homework.sol\":244:258  _candidateName */\n      dup4\n      dup4\n        /* \"homework.sol\":229:259  candidateVotes[_candidateName] */\n      mload(0x40)\n      tag_31\n      swap3\n      swap2\n      swap1\n      tag_19\n      jump\t// in\n    tag_31:\n      swap1\n      dup2\n      mstore\n      0x20\n      add\n      mload(0x40)\n      dup1\n      swap2\n      sub\n      swap1\n      keccak256\n      0x00\n        /* \"homework.sol\":229:264  candidateVotes[_candidateName] += 1 */\n      dup3\n      dup3\n      sload\n      tag_32\n      swap2\n      swap1\n      tag_33\n      jump\t// in\n    tag_32:\n      swap3\n      pop\n      pop\n      dup2\n      swap1\n      sstore\n      pop\n        /* \"homework.sol\":274:285  bool exists */\n      0x00\n        /* \"homework.sol\":300:306  uint i */\n      0x00\n        /* \"homework.sol\":309:310  0 */\n      0x00\n        /* \"homework.sol\":300:310  uint i = 0 */\n      swap1\n      pop\n        /* \"homework.sol\":295:506  for (uint i = 0; i < candidates.length; i++) {... */\n    tag_34:\n        /* \"homework.sol\":316:326  candidates */\n      0x01\n        /* \"homework.sol\":316:333  candidates.length */\n      dup1\n      sload\n      swap1\n      pop\n        /* \"homework.sol\":312:313  i */\n      dup2\n        /* \"homework.sol\":312:333  i < candidates.length */\n      lt\n        /* \"homework.sol\":295:506  for (uint i = 0; i < candidates.length; i++) {... */\n      iszero\n      tag_35\n      jumpi\n        /* \"homework.sol\":409:423  _candidateName */\n      dup4\n      dup4\n        /* \"homework.sol\":393:425  keccak256(bytes(_candidateName)) */\n      mload(0x40)\n      tag_37\n      swap3\n      swap2\n      swap1\n      tag_38\n      jump\t// in\n    tag_37:\n      mload(0x40)\n      dup1\n      swap2\n      sub\n      swap1\n      keccak256\n        /* \"homework.sol\":374:384  candidates */\n      0x01\n        /* \"homework.sol\":385:386  i */\n      dup3\n        /* \"homework.sol\":374:387  candidates[i] */\n      dup2\n      sload\n      dup2\n      lt\n      tag_39\n      jumpi\n      tag_40\n      tag_26\n      jump\t// in\n    tag_40:\n    tag_39:\n      swap1\n      0x00\n      mstore\n      keccak256(0x00, 0x20)\n      add\n        /* \"homework.sol\":358:389  keccak256(bytes(candidates[i])) */\n      mload(0x40)\n      tag_42\n      swap2\n      swap1\n      tag_43\n      jump\t// in\n    tag_42:\n      mload(0x40)\n      dup1\n      swap2\n      sub\n      swap1\n      keccak256\n        /* \"homework.sol\":358:425  keccak256(bytes(candidates[i])) == keccak256(bytes(_candidateName)) */\n      sub\n        /* \"homework.sol\":354:496  if (keccak256(bytes(candidates[i])) == keccak256(bytes(_candidateName))) {... */\n      tag_44\n      jumpi\n        /* \"homework.sol\":454:458  true */\n      0x01\n        /* \"homework.sol\":445:458  exists = true */\n      swap2\n      pop\n        /* \"homework.sol\":476:481  break */\n      jump(tag_35)\n        /* \"homework.sol\":354:496  if (keccak256(bytes(candidates[i])) == keccak256(bytes(_candidateName))) {... */\n    tag_44:\n        /* \"homework.sol\":335:338  i++ */\n      dup1\n      dup1\n      0x01\n      add\n      swap2\n      pop\n      pop\n        /* \"homework.sol\":295:506  for (uint i = 0; i < candidates.length; i++) {... */\n      jump(tag_34)\n    tag_35:\n      pop\n        /* \"homework.sol\":520:526  exists */\n      dup1\n        /* \"homework.sol\":515:559  if (!exists) candidates.push(_candidateName) */\n      tag_45\n      jumpi\n        /* \"homework.sol\":528:538  candidates */\n      0x01\n        /* \"homework.sol\":544:558  _candidateName */\n      dup4\n      dup4\n        /* \"homework.sol\":528:559  candidates.push(_candidateName) */\n      swap1\n      swap2\n      dup1\n      0x01\n      dup2\n      sload\n      add\n      dup1\n      dup3\n      sstore\n      dup1\n      swap2\n      pop\n      pop\n      0x01\n      swap1\n      sub\n      swap1\n      0x00\n      mstore\n      keccak256(0x00, 0x20)\n      add\n      0x00\n      swap1\n      swap2\n      swap3\n      swap1\n      swap2\n      swap3\n      swap1\n      swap2\n      swap3\n      swap1\n      swap2\n      swap3\n      pop\n      swap2\n      dup3\n      tag_47\n      swap3\n      swap2\n      swap1\n      tag_48\n      jump\t// in\n    tag_47:\n      pop\n        /* \"homework.sol\":515:559  if (!exists) candidates.push(_candidateName) */\n    tag_45:\n        /* \"homework.sol\":219:566  {... */\n      pop\n        /* \"homework.sol\":166:566  function vote(string calldata _candidateName) public {... */\n      pop\n      pop\n      jump\t// out\n        /* \"#utility.yul\":88:205   */\n    tag_50:\n        /* \"#utility.yul\":197:198   */\n      0x00\n        /* \"#utility.yul\":194:195   */\n      0x00\n        /* \"#utility.yul\":187:199   */\n      revert\n        /* \"#utility.yul\":211:328   */\n    tag_51:\n        /* \"#utility.yul\":320:321   */\n      0x00\n        /* \"#utility.yul\":317:318   */\n      0x00\n        /* \"#utility.yul\":310:322   */\n      revert\n        /* \"#utility.yul\":334:451   */\n    tag_52:\n        /* \"#utility.yul\":443:444   */\n      0x00\n        /* \"#utility.yul\":440:441   */\n      0x00\n        /* \"#utility.yul\":433:445   */\n      revert\n        /* \"#utility.yul\":457:574   */\n    tag_53:\n        /* \"#utility.yul\":566:567   */\n      0x00\n        /* \"#utility.yul\":563:564   */\n      0x00\n        /* \"#utility.yul\":556:568   */\n      revert\n        /* \"#utility.yul\":580:697   */\n    tag_54:\n        /* \"#utility.yul\":689:690   */\n      0x00\n        /* \"#utility.yul\":686:687   */\n      0x00\n        /* \"#utility.yul\":679:691   */\n      revert\n        /* \"#utility.yul\":717:1270   */\n    tag_55:\n        /* \"#utility.yul\":775:783   */\n      0x00\n        /* \"#utility.yul\":785:791   */\n      0x00\n        /* \"#utility.yul\":835:838   */\n      dup4\n        /* \"#utility.yul\":828:832   */\n      0x1f\n        /* \"#utility.yul\":820:826   */\n      dup5\n        /* \"#utility.yul\":816:833   */\n      add\n        /* \"#utility.yul\":812:839   */\n      slt\n        /* \"#utility.yul\":802:924   */\n      tag_94\n      jumpi\n        /* \"#utility.yul\":843:922   */\n      tag_95\n      tag_52\n      jump\t// in\n    tag_95:\n        /* \"#utility.yul\":802:924   */\n    tag_94:\n        /* \"#utility.yul\":956:962   */\n      dup3\n        /* \"#utility.yul\":943:963   */\n      calldataload\n        /* \"#utility.yul\":933:963   */\n      swap1\n      pop\n        /* \"#utility.yul\":986:1004   */\n      0xffffffffffffffff\n        /* \"#utility.yul\":978:984   */\n      dup2\n        /* \"#utility.yul\":975:1005   */\n      gt\n        /* \"#utility.yul\":972:1089   */\n      iszero\n      tag_96\n      jumpi\n        /* \"#utility.yul\":1008:1087   */\n      tag_97\n      tag_53\n      jump\t// in\n    tag_97:\n        /* \"#utility.yul\":972:1089   */\n    tag_96:\n        /* \"#utility.yul\":1122:1126   */\n      0x20\n        /* \"#utility.yul\":1114:1120   */\n      dup4\n        /* \"#utility.yul\":1110:1127   */\n      add\n        /* \"#utility.yul\":1098:1127   */\n      swap2\n      pop\n        /* \"#utility.yul\":1176:1179   */\n      dup4\n        /* \"#utility.yul\":1168:1172   */\n      0x01\n        /* \"#utility.yul\":1160:1166   */\n      dup3\n        /* \"#utility.yul\":1156:1173   */\n      mul\n        /* \"#utility.yul\":1146:1154   */\n      dup4\n        /* \"#utility.yul\":1142:1174   */\n      add\n        /* \"#utility.yul\":1139:1180   */\n      gt\n        /* \"#utility.yul\":1136:1264   */\n      iszero\n      tag_98\n      jumpi\n        /* \"#utility.yul\":1183:1262   */\n      tag_99\n      tag_54\n      jump\t// in\n    tag_99:\n        /* \"#utility.yul\":1136:1264   */\n    tag_98:\n        /* \"#utility.yul\":717:1270   */\n      swap3\n      pop\n      swap3\n      swap1\n      pop\n      jump\t// out\n        /* \"#utility.yul\":1276:1805   */\n    tag_8:\n        /* \"#utility.yul\":1347:1353   */\n      0x00\n        /* \"#utility.yul\":1355:1361   */\n      0x00\n        /* \"#utility.yul\":1404:1406   */\n      0x20\n        /* \"#utility.yul\":1392:1401   */\n      dup4\n        /* \"#utility.yul\":1383:1390   */\n      dup6\n        /* \"#utility.yul\":1379:1402   */\n      sub\n        /* \"#utility.yul\":1375:1407   */\n      slt\n        /* \"#utility.yul\":1372:1491   */\n      iszero\n      tag_101\n      jumpi\n        /* \"#utility.yul\":1410:1489   */\n      tag_102\n      tag_50\n      jump\t// in\n    tag_102:\n        /* \"#utility.yul\":1372:1491   */\n    tag_101:\n        /* \"#utility.yul\":1558:1559   */\n      0x00\n        /* \"#utility.yul\":1547:1556   */\n      dup4\n        /* \"#utility.yul\":1543:1560   */\n      add\n        /* \"#utility.yul\":1530:1561   */\n      calldataload\n        /* \"#utility.yul\":1588:1606   */\n      0xffffffffffffffff\n        /* \"#utility.yul\":1580:1586   */\n      dup2\n        /* \"#utility.yul\":1577:1607   */\n      gt\n        /* \"#utility.yul\":1574:1691   */\n      iszero\n      tag_103\n      jumpi\n        /* \"#utility.yul\":1610:1689   */\n      tag_104\n      tag_51\n      jump\t// in\n    tag_104:\n        /* \"#utility.yul\":1574:1691   */\n    tag_103:\n        /* \"#utility.yul\":1723:1788   */\n      tag_105\n        /* \"#utility.yul\":1780:1787   */\n      dup6\n        /* \"#utility.yul\":1771:1777   */\n      dup3\n        /* \"#utility.yul\":1760:1769   */\n      dup7\n        /* \"#utility.yul\":1756:1778   */\n      add\n        /* \"#utility.yul\":1723:1788   */\n      tag_55\n      jump\t// in\n    tag_105:\n        /* \"#utility.yul\":1705:1788   */\n      swap3\n      pop\n      swap3\n      pop\n        /* \"#utility.yul\":1501:1798   */\n      pop\n        /* \"#utility.yul\":1276:1805   */\n      swap3\n      pop\n      swap3\n      swap1\n      pop\n      jump\t// out\n        /* \"#utility.yul\":1811:1888   */\n    tag_56:\n        /* \"#utility.yul\":1848:1855   */\n      0x00\n        /* \"#utility.yul\":1877:1882   */\n      dup2\n        /* \"#utility.yul\":1866:1882   */\n      swap1\n      pop\n        /* \"#utility.yul\":1811:1888   */\n      swap2\n      swap1\n      pop\n      jump\t// out\n        /* \"#utility.yul\":1894:2012   */\n    tag_57:\n        /* \"#utility.yul\":1981:2005   */\n      tag_108\n        /* \"#utility.yul\":1999:2004   */\n      dup2\n        /* \"#utility.yul\":1981:2005   */\n      tag_56\n      jump\t// in\n    tag_108:\n        /* \"#utility.yul\":1976:1979   */\n      dup3\n        /* \"#utility.yul\":1969:2006   */\n      mstore\n        /* \"#utility.yul\":1894:2012   */\n      pop\n      pop\n      jump\t// out\n        /* \"#utility.yul\":2018:2240   */\n    tag_11:\n        /* \"#utility.yul\":2111:2115   */\n      0x00\n        /* \"#utility.yul\":2149:2151   */\n      0x20\n        /* \"#utility.yul\":2138:2147   */\n      dup3\n        /* \"#utility.yul\":2134:2152   */\n      add\n        /* \"#utility.yul\":2126:2152   */\n      swap1\n      pop\n        /* \"#utility.yul\":2162:2233   */\n      tag_110\n        /* \"#utility.yul\":2230:2231   */\n      0x00\n        /* \"#utility.yul\":2219:2228   */\n      dup4\n        /* \"#utility.yul\":2215:2232   */\n      add\n        /* \"#utility.yul\":2206:2212   */\n      dup5\n        /* \"#utility.yul\":2162:2233   */\n      tag_57\n      jump\t// in\n    tag_110:\n        /* \"#utility.yul\":2018:2240   */\n      swap3\n      swap2\n      pop\n      pop\n      jump\t// out\n        /* \"#utility.yul\":2246:2394   */\n    tag_58:\n        /* \"#utility.yul\":2348:2359   */\n      0x00\n        /* \"#utility.yul\":2385:2388   */\n      dup2\n        /* \"#utility.yul\":2370:2388   */\n      swap1\n      pop\n        /* \"#utility.yul\":2246:2394   */\n      swap3\n      swap2\n      pop\n      pop\n      jump\t// out\n        /* \"#utility.yul\":2400:2548   */\n    tag_59:\n        /* \"#utility.yul\":2498:2504   */\n      dup3\n        /* \"#utility.yul\":2493:2496   */\n      dup2\n        /* \"#utility.yul\":2488:2491   */\n      dup4\n        /* \"#utility.yul\":2475:2505   */\n      calldatacopy\n        /* \"#utility.yul\":2539:2540   */\n      0x00\n        /* \"#utility.yul\":2530:2536   */\n      dup4\n        /* \"#utility.yul\":2525:2528   */\n      dup4\n        /* \"#utility.yul\":2521:2537   */\n      add\n        /* \"#utility.yul\":2514:2541   */\n      mstore\n        /* \"#utility.yul\":2400:2548   */\n      pop\n      pop\n      pop\n      jump\t// out\n        /* \"#utility.yul\":2578:2908   */\n    tag_60:\n        /* \"#utility.yul\":2694:2697   */\n      0x00\n        /* \"#utility.yul\":2715:2804   */\n      tag_114\n        /* \"#utility.yul\":2797:2803   */\n      dup4\n        /* \"#utility.yul\":2792:2795   */\n      dup6\n        /* \"#utility.yul\":2715:2804   */\n      tag_58\n      jump\t// in\n    tag_114:\n        /* \"#utility.yul\":2708:2804   */\n      swap4\n      pop\n        /* \"#utility.yul\":2814:2870   */\n      tag_115\n        /* \"#utility.yul\":2863:2869   */\n      dup4\n        /* \"#utility.yul\":2858:2861   */\n      dup6\n        /* \"#utility.yul\":2851:2856   */\n      dup5\n        /* \"#utility.yul\":2814:2870   */\n      tag_59\n      jump\t// in\n    tag_115:\n        /* \"#utility.yul\":2895:2901   */\n      dup3\n        /* \"#utility.yul\":2890:2893   */\n      dup5\n        /* \"#utility.yul\":2886:2902   */\n      add\n        /* \"#utility.yul\":2879:2902   */\n      swap1\n      pop\n        /* \"#utility.yul\":2578:2908   */\n      swap4\n      swap3\n      pop\n      pop\n      pop\n      jump\t// out\n        /* \"#utility.yul\":2914:3209   */\n    tag_19:\n        /* \"#utility.yul\":3056:3059   */\n      0x00\n        /* \"#utility.yul\":3078:3183   */\n      tag_117\n        /* \"#utility.yul\":3179:3182   */\n      dup3\n        /* \"#utility.yul\":3170:3176   */\n      dup5\n        /* \"#utility.yul\":3162:3168   */\n      dup7\n        /* \"#utility.yul\":3078:3183   */\n      tag_60\n      jump\t// in\n    tag_117:\n        /* \"#utility.yul\":3071:3183   */\n      swap2\n      pop\n        /* \"#utility.yul\":3200:3203   */\n      dup2\n        /* \"#utility.yul\":3193:3203   */\n      swap1\n      pop\n        /* \"#utility.yul\":2914:3209   */\n      swap4\n      swap3\n      pop\n      pop\n      pop\n      jump\t// out\n        /* \"#utility.yul\":3215:3395   */\n    tag_26:\n        /* \"#utility.yul\":3263:3340   */\n      0x4e487b7100000000000000000000000000000000000000000000000000000000\n        /* \"#utility.yul\":3260:3261   */\n      0x00\n        /* \"#utility.yul\":3253:3341   */\n      mstore\n        /* \"#utility.yul\":3360:3364   */\n      0x32\n        /* \"#utility.yul\":3357:3358   */\n      0x04\n        /* \"#utility.yul\":3350:3365   */\n      mstore\n        /* \"#utility.yul\":3384:3388   */\n      0x24\n        /* \"#utility.yul\":3381:3382   */\n      0x00\n        /* \"#utility.yul\":3374:3389   */\n      revert\n        /* \"#utility.yul\":3401:3581   */\n    tag_61:\n        /* \"#utility.yul\":3449:3526   */\n      0x4e487b7100000000000000000000000000000000000000000000000000000000\n        /* \"#utility.yul\":3446:3447   */\n      0x00\n        /* \"#utility.yul\":3439:3527   */\n      mstore\n        /* \"#utility.yul\":3546:3550   */\n      0x22\n        /* \"#utility.yul\":3543:3544   */\n      0x04\n        /* \"#utility.yul\":3536:3551   */\n      mstore\n        /* \"#utility.yul\":3570:3574   */\n      0x24\n        /* \"#utility.yul\":3567:3568   */\n      0x00\n        /* \"#utility.yul\":3560:3575   */\n      revert\n        /* \"#utility.yul\":3587:3907   */\n    tag_62:\n        /* \"#utility.yul\":3631:3637   */\n      0x00\n        /* \"#utility.yul\":3668:3669   */\n      0x02\n        /* \"#utility.yul\":3662:3666   */\n      dup3\n        /* \"#utility.yul\":3658:3670   */\n      div\n        /* \"#utility.yul\":3648:3670   */\n      swap1\n      pop\n        /* \"#utility.yul\":3715:3716   */\n      0x01\n        /* \"#utility.yul\":3709:3713   */\n      dup3\n        /* \"#utility.yul\":3705:3717   */\n      and\n        /* \"#utility.yul\":3736:3754   */\n      dup1\n        /* \"#utility.yul\":3726:3807   */\n      tag_121\n      jumpi\n        /* \"#utility.yul\":3792:3796   */\n      0x7f\n        /* \"#utility.yul\":3784:3790   */\n      dup3\n        /* \"#utility.yul\":3780:3797   */\n      and\n        /* \"#utility.yul\":3770:3797   */\n      swap2\n      pop\n        /* \"#utility.yul\":3726:3807   */\n    tag_121:\n        /* \"#utility.yul\":3854:3856   */\n      0x20\n        /* \"#utility.yul\":3846:3852   */\n      dup3\n        /* \"#utility.yul\":3843:3857   */\n      lt\n        /* \"#utility.yul\":3823:3841   */\n      dup2\n        /* \"#utility.yul\":3820:3858   */\n      sub\n        /* \"#utility.yul\":3817:3901   */\n      tag_122\n      jumpi\n        /* \"#utility.yul\":3873:3891   */\n      tag_123\n      tag_61\n      jump\t// in\n    tag_123:\n        /* \"#utility.yul\":3817:3901   */\n    tag_122:\n        /* \"#utility.yul\":3638:3907   */\n      pop\n        /* \"#utility.yul\":3587:3907   */\n      swap2\n      swap1\n      pop\n      jump\t// out\n        /* \"#utility.yul\":3913:4054   */\n    tag_63:\n        /* \"#utility.yul\":3962:3966   */\n      0x00\n        /* \"#utility.yul\":3985:3988   */\n      dup2\n        /* \"#utility.yul\":3977:3988   */\n      swap1\n      pop\n        /* \"#utility.yul\":4008:4011   */\n      dup2\n        /* \"#utility.yul\":4005:4006   */\n      0x00\n        /* \"#utility.yul\":3998:4012   */\n      mstore\n        /* \"#utility.yul\":4042:4046   */\n      0x20\n        /* \"#utility.yul\":4039:4040   */\n      0x00\n        /* \"#utility.yul\":4029:4047   */\n      keccak256\n        /* \"#utility.yul\":4021:4047   */\n      swap1\n      pop\n        /* \"#utility.yul\":3913:4054   */\n      swap2\n      swap1\n      pop\n      jump\t// out\n        /* \"#utility.yul\":4084:4958   */\n    tag_64:\n        /* \"#utility.yul\":4187:4190   */\n      0x00\n        /* \"#utility.yul\":4224:4229   */\n      dup2\n        /* \"#utility.yul\":4218:4230   */\n      sload\n        /* \"#utility.yul\":4253:4289   */\n      tag_126\n        /* \"#utility.yul\":4279:4288   */\n      dup2\n        /* \"#utility.yul\":4253:4289   */\n      tag_62\n      jump\t// in\n    tag_126:\n        /* \"#utility.yul\":4305:4394   */\n      tag_127\n        /* \"#utility.yul\":4387:4393   */\n      dup2\n        /* \"#utility.yul\":4382:4385   */\n      dup7\n        /* \"#utility.yul\":4305:4394   */\n      tag_58\n      jump\t// in\n    tag_127:\n        /* \"#utility.yul\":4298:4394   */\n      swap5\n      pop\n        /* \"#utility.yul\":4425:4426   */\n      0x01\n        /* \"#utility.yul\":4414:4423   */\n      dup3\n        /* \"#utility.yul\":4410:4427   */\n      and\n        /* \"#utility.yul\":4441:4442   */\n      0x00\n        /* \"#utility.yul\":4436:4602   */\n      dup2\n      eq\n      tag_129\n      jumpi\n        /* \"#utility.yul\":4616:4617   */\n      0x01\n        /* \"#utility.yul\":4611:4952   */\n      dup2\n      eq\n      tag_130\n      jumpi\n        /* \"#utility.yul\":4403:4952   */\n      jump(tag_128)\n        /* \"#utility.yul\":4436:4602   */\n    tag_129:\n        /* \"#utility.yul\":4520:4524   */\n      0xff\n        /* \"#utility.yul\":4516:4525   */\n      not\n        /* \"#utility.yul\":4505:4514   */\n      dup4\n        /* \"#utility.yul\":4501:4526   */\n      and\n        /* \"#utility.yul\":4496:4499   */\n      dup7\n        /* \"#utility.yul\":4489:4527   */\n      mstore\n        /* \"#utility.yul\":4582:4588   */\n      dup2\n        /* \"#utility.yul\":4575:4589   */\n      iszero\n        /* \"#utility.yul\":4568:4590   */\n      iszero\n        /* \"#utility.yul\":4560:4566   */\n      dup3\n        /* \"#utility.yul\":4556:4591   */\n      mul\n        /* \"#utility.yul\":4551:4554   */\n      dup7\n        /* \"#utility.yul\":4547:4592   */\n      add\n        /* \"#utility.yul\":4540:4592   */\n      swap4\n      pop\n        /* \"#utility.yul\":4436:4602   */\n      jump(tag_128)\n        /* \"#utility.yul\":4611:4952   */\n    tag_130:\n        /* \"#utility.yul\":4678:4716   */\n      tag_131\n        /* \"#utility.yul\":4710:4715   */\n      dup6\n        /* \"#utility.yul\":4678:4716   */\n      tag_63\n      jump\t// in\n    tag_131:\n        /* \"#utility.yul\":4738:4739   */\n      0x00\n        /* \"#utility.yul\":4752:4906   */\n    tag_132:\n        /* \"#utility.yul\":4766:4772   */\n      dup4\n        /* \"#utility.yul\":4763:4764   */\n      dup2\n        /* \"#utility.yul\":4760:4773   */\n      lt\n        /* \"#utility.yul\":4752:4906   */\n      iszero\n      tag_134\n      jumpi\n        /* \"#utility.yul\":4840:4847   */\n      dup2\n        /* \"#utility.yul\":4834:4848   */\n      sload\n        /* \"#utility.yul\":4830:4831   */\n      dup2\n        /* \"#utility.yul\":4825:4828   */\n      dup10\n        /* \"#utility.yul\":4821:4832   */\n      add\n        /* \"#utility.yul\":4814:4849   */\n      mstore\n        /* \"#utility.yul\":4890:4891   */\n      0x01\n        /* \"#utility.yul\":4881:4888   */\n      dup3\n        /* \"#utility.yul\":4877:4892   */\n      add\n        /* \"#utility.yul\":4866:4892   */\n      swap2\n      pop\n        /* \"#utility.yul\":4788:4792   */\n      0x20\n        /* \"#utility.yul\":4785:4786   */\n      dup2\n        /* \"#utility.yul\":4781:4793   */\n      add\n        /* \"#utility.yul\":4776:4793   */\n      swap1\n      pop\n        /* \"#utility.yul\":4752:4906   */\n      jump(tag_132)\n    tag_134:\n        /* \"#utility.yul\":4935:4941   */\n      dup4\n        /* \"#utility.yul\":4930:4933   */\n      dup9\n        /* \"#utility.yul\":4926:4942   */\n      add\n        /* \"#utility.yul\":4919:4942   */\n      swap6\n      pop\n        /* \"#utility.yul\":4618:4952   */\n      pop\n      pop\n        /* \"#utility.yul\":4403:4952   */\n    tag_128:\n      pop\n        /* \"#utility.yul\":4191:4958   */\n      pop\n      pop\n        /* \"#utility.yul\":4084:4958   */\n      swap3\n      swap2\n      pop\n      pop\n      jump\t// out\n        /* \"#utility.yul\":4964:5233   */\n    tag_29:\n        /* \"#utility.yul\":5093:5096   */\n      0x00\n        /* \"#utility.yul\":5115:5207   */\n      tag_136\n        /* \"#utility.yul\":5203:5206   */\n      dup3\n        /* \"#utility.yul\":5194:5200   */\n      dup5\n        /* \"#utility.yul\":5115:5207   */\n      tag_64\n      jump\t// in\n    tag_136:\n        /* \"#utility.yul\":5108:5207   */\n      swap2\n      pop\n        /* \"#utility.yul\":5224:5227   */\n      dup2\n        /* \"#utility.yul\":5217:5227   */\n      swap1\n      pop\n        /* \"#utility.yul\":4964:5233   */\n      swap3\n      swap2\n      pop\n      pop\n      jump\t// out\n        /* \"#utility.yul\":5239:5419   */\n    tag_65:\n        /* \"#utility.yul\":5287:5364   */\n      0x4e487b7100000000000000000000000000000000000000000000000000000000\n        /* \"#utility.yul\":5284:5285   */\n      0x00\n        /* \"#utility.yul\":5277:5365   */\n      mstore\n        /* \"#utility.yul\":5384:5388   */\n      0x11\n        /* \"#utility.yul\":5381:5382   */\n      0x04\n        /* \"#utility.yul\":5374:5389   */\n      mstore\n        /* \"#utility.yul\":5408:5412   */\n      0x24\n        /* \"#utility.yul\":5405:5406   */\n      0x00\n        /* \"#utility.yul\":5398:5413   */\n      revert\n        /* \"#utility.yul\":5425:5616   */\n    tag_33:\n        /* \"#utility.yul\":5465:5468   */\n      0x00\n        /* \"#utility.yul\":5484:5504   */\n      tag_139\n        /* \"#utility.yul\":5502:5503   */\n      dup3\n        /* \"#utility.yul\":5484:5504   */\n      tag_56\n      jump\t// in\n    tag_139:\n        /* \"#utility.yul\":5479:5504   */\n      swap2\n      pop\n        /* \"#utility.yul\":5518:5538   */\n      tag_140\n        /* \"#utility.yul\":5536:5537   */\n      dup4\n        /* \"#utility.yul\":5518:5538   */\n      tag_56\n      jump\t// in\n    tag_140:\n        /* \"#utility.yul\":5513:5538   */\n      swap3\n      pop\n        /* \"#utility.yul\":5561:5562   */\n      dup3\n        /* \"#utility.yul\":5558:5559   */\n      dup3\n        /* \"#utility.yul\":5554:5563   */\n      add\n        /* \"#utility.yul\":5547:5563   */\n      swap1\n      pop\n        /* \"#utility.yul\":5582:5585   */\n      dup1\n        /* \"#utility.yul\":5579:5580   */\n      dup3\n        /* \"#utility.yul\":5576:5586   */\n      gt\n        /* \"#utility.yul\":5573:5609   */\n      iszero\n      tag_141\n      jumpi\n        /* \"#utility.yul\":5589:5607   */\n      tag_142\n      tag_65\n      jump\t// in\n    tag_142:\n        /* \"#utility.yul\":5573:5609   */\n    tag_141:\n        /* \"#utility.yul\":5425:5616   */\n      swap3\n      swap2\n      pop\n      pop\n      jump\t// out\n        /* \"#utility.yul\":5622:5769   */\n    tag_66:\n        /* \"#utility.yul\":5723:5734   */\n      0x00\n        /* \"#utility.yul\":5760:5763   */\n      dup2\n        /* \"#utility.yul\":5745:5763   */\n      swap1\n      pop\n        /* \"#utility.yul\":5622:5769   */\n      swap3\n      swap2\n      pop\n      pop\n      jump\t// out\n        /* \"#utility.yul\":5797:6124   */\n    tag_67:\n        /* \"#utility.yul\":5911:5914   */\n      0x00\n        /* \"#utility.yul\":5932:6020   */\n      tag_145\n        /* \"#utility.yul\":6013:6019   */\n      dup4\n        /* \"#utility.yul\":6008:6011   */\n      dup6\n        /* \"#utility.yul\":5932:6020   */\n      tag_66\n      jump\t// in\n    tag_145:\n        /* \"#utility.yul\":5925:6020   */\n      swap4\n      pop\n        /* \"#utility.yul\":6030:6086   */\n      tag_146\n        /* \"#utility.yul\":6079:6085   */\n      dup4\n        /* \"#utility.yul\":6074:6077   */\n      dup6\n        /* \"#utility.yul\":6067:6072   */\n      dup5\n        /* \"#utility.yul\":6030:6086   */\n      tag_59\n      jump\t// in\n    tag_146:\n        /* \"#utility.yul\":6111:6117   */\n      dup3\n        /* \"#utility.yul\":6106:6109   */\n      dup5\n        /* \"#utility.yul\":6102:6118   */\n      add\n        /* \"#utility.yul\":6095:6118   */\n      swap1\n      pop\n        /* \"#utility.yul\":5797:6124   */\n      swap4\n      swap3\n      pop\n      pop\n      pop\n      jump\t// out\n        /* \"#utility.yul\":6130:6421   */\n    tag_38:\n        /* \"#utility.yul\":6270:6273   */\n      0x00\n        /* \"#utility.yul\":6292:6395   */\n      tag_148\n        /* \"#utility.yul\":6391:6394   */\n      dup3\n        /* \"#utility.yul\":6382:6388   */\n      dup5\n        /* \"#utility.yul\":6374:6380   */\n      dup7\n        /* \"#utility.yul\":6292:6395   */\n      tag_67\n      jump\t// in\n    tag_148:\n        /* \"#utility.yul\":6285:6395   */\n      swap2\n      pop\n        /* \"#utility.yul\":6412:6415   */\n      dup2\n        /* \"#utility.yul\":6405:6415   */\n      swap1\n      pop\n        /* \"#utility.yul\":6130:6421   */\n      swap4\n      swap3\n      pop\n      pop\n      pop\n      jump\t// out\n        /* \"#utility.yul\":6427:6571   */\n    tag_68:\n        /* \"#utility.yul\":6479:6483   */\n      0x00\n        /* \"#utility.yul\":6502:6505   */\n      dup2\n        /* \"#utility.yul\":6494:6505   */\n      swap1\n      pop\n        /* \"#utility.yul\":6525:6528   */\n      dup2\n        /* \"#utility.yul\":6522:6523   */\n      0x00\n        /* \"#utility.yul\":6515:6529   */\n      mstore\n        /* \"#utility.yul\":6559:6563   */\n      0x20\n        /* \"#utility.yul\":6556:6557   */\n      0x00\n        /* \"#utility.yul\":6546:6564   */\n      keccak256\n        /* \"#utility.yul\":6538:6564   */\n      swap1\n      pop\n        /* \"#utility.yul\":6427:6571   */\n      swap2\n      swap1\n      pop\n      jump\t// out\n        /* \"#utility.yul\":6599:7477   */\n    tag_69:\n        /* \"#utility.yul\":6704:6707   */\n      0x00\n        /* \"#utility.yul\":6741:6746   */\n      dup2\n        /* \"#utility.yul\":6735:6747   */\n      sload\n        /* \"#utility.yul\":6770:6806   */\n      tag_151\n        /* \"#utility.yul\":6796:6805   */\n      dup2\n        /* \"#utility.yul\":6770:6806   */\n      tag_62\n      jump\t// in\n    tag_151:\n        /* \"#utility.yul\":6822:6910   */\n      tag_152\n        /* \"#utility.yul\":6903:6909   */\n      dup2\n        /* \"#utility.yul\":6898:6901   */\n      dup7\n        /* \"#utility.yul\":6822:6910   */\n      tag_66\n      jump\t// in\n    tag_152:\n        /* \"#utility.yul\":6815:6910   */\n      swap5\n      pop\n        /* \"#utility.yul\":6941:6942   */\n      0x01\n        /* \"#utility.yul\":6930:6939   */\n      dup3\n        /* \"#utility.yul\":6926:6943   */\n      and\n        /* \"#utility.yul\":6957:6958   */\n      0x00\n        /* \"#utility.yul\":6952:7118   */\n      dup2\n      eq\n      tag_154\n      jumpi\n        /* \"#utility.yul\":7132:7133   */\n      0x01\n        /* \"#utility.yul\":7127:7471   */\n      dup2\n      eq\n      tag_155\n      jumpi\n        /* \"#utility.yul\":6919:7471   */\n      jump(tag_153)\n        /* \"#utility.yul\":6952:7118   */\n    tag_154:\n        /* \"#utility.yul\":7036:7040   */\n      0xff\n        /* \"#utility.yul\":7032:7041   */\n      not\n        /* \"#utility.yul\":7021:7030   */\n      dup4\n        /* \"#utility.yul\":7017:7042   */\n      and\n        /* \"#utility.yul\":7012:7015   */\n      dup7\n        /* \"#utility.yul\":7005:7043   */\n      mstore\n        /* \"#utility.yul\":7098:7104   */\n      dup2\n        /* \"#utility.yul\":7091:7105   */\n      iszero\n        /* \"#utility.yul\":7084:7106   */\n      iszero\n        /* \"#utility.yul\":7076:7082   */\n      dup3\n        /* \"#utility.yul\":7072:7107   */\n      mul\n        /* \"#utility.yul\":7067:7070   */\n      dup7\n        /* \"#utility.yul\":7063:7108   */\n      add\n        /* \"#utility.yul\":7056:7108   */\n      swap4\n      pop\n        /* \"#utility.yul\":6952:7118   */\n      jump(tag_153)\n        /* \"#utility.yul\":7127:7471   */\n    tag_155:\n        /* \"#utility.yul\":7194:7235   */\n      tag_156\n        /* \"#utility.yul\":7229:7234   */\n      dup6\n        /* \"#utility.yul\":7194:7235   */\n      tag_68\n      jump\t// in\n    tag_156:\n        /* \"#utility.yul\":7257:7258   */\n      0x00\n        /* \"#utility.yul\":7271:7425   */\n    tag_157:\n        /* \"#utility.yul\":7285:7291   */\n      dup4\n        /* \"#utility.yul\":7282:7283   */\n      dup2\n        /* \"#utility.yul\":7279:7292   */\n      lt\n        /* \"#utility.yul\":7271:7425   */\n      iszero\n      tag_159\n      jumpi\n        /* \"#utility.yul\":7359:7366   */\n      dup2\n        /* \"#utility.yul\":7353:7367   */\n      sload\n        /* \"#utility.yul\":7349:7350   */\n      dup2\n        /* \"#utility.yul\":7344:7347   */\n      dup10\n        /* \"#utility.yul\":7340:7351   */\n      add\n        /* \"#utility.yul\":7333:7368   */\n      mstore\n        /* \"#utility.yul\":7409:7410   */\n      0x01\n        /* \"#utility.yul\":7400:7407   */\n      dup3\n        /* \"#utility.yul\":7396:7411   */\n      add\n        /* \"#utility.yul\":7385:7411   */\n      swap2\n      pop\n        /* \"#utility.yul\":7307:7311   */\n      0x20\n        /* \"#utility.yul\":7304:7305   */\n      dup2\n        /* \"#utility.yul\":7300:7312   */\n      add\n        /* \"#utility.yul\":7295:7312   */\n      swap1\n      pop\n        /* \"#utility.yul\":7271:7425   */\n      jump(tag_157)\n    tag_159:\n        /* \"#utility.yul\":7454:7460   */\n      dup4\n        /* \"#utility.yul\":7449:7452   */\n      dup9\n        /* \"#utility.yul\":7445:7461   */\n      add\n        /* \"#utility.yul\":7438:7461   */\n      swap6\n      pop\n        /* \"#utility.yul\":7134:7471   */\n      pop\n      pop\n        /* \"#utility.yul\":6919:7471   */\n    tag_153:\n      pop\n        /* \"#utility.yul\":6708:7477   */\n      pop\n      pop\n        /* \"#utility.yul\":6599:7477   */\n      swap3\n      swap2\n      pop\n      pop\n      jump\t// out\n        /* \"#utility.yul\":7483:7756   */\n    tag_43:\n        /* \"#utility.yul\":7614:7617   */\n      0x00\n        /* \"#utility.yul\":7636:7730   */\n      tag_161\n        /* \"#utility.yul\":7726:7729   */\n      dup3\n        /* \"#utility.yul\":7717:7723   */\n      dup5\n        /* \"#utility.yul\":7636:7730   */\n      tag_69\n      jump\t// in\n    tag_161:\n        /* \"#utility.yul\":7629:7730   */\n      swap2\n      pop\n        /* \"#utility.yul\":7747:7750   */\n      dup2\n        /* \"#utility.yul\":7740:7750   */\n      swap1\n      pop\n        /* \"#utility.yul\":7483:7756   */\n      swap3\n      swap2\n      pop\n      pop\n      jump\t// out\n        /* \"#utility.yul\":7762:7859   */\n    tag_70:\n        /* \"#utility.yul\":7821:7827   */\n      0x00\n        /* \"#utility.yul\":7849:7852   */\n      dup3\n        /* \"#utility.yul\":7839:7852   */\n      swap1\n      pop\n        /* \"#utility.yul\":7762:7859   */\n      swap3\n      swap2\n      pop\n      pop\n      jump\t// out\n        /* \"#utility.yul\":7865:8045   */\n    tag_71:\n        /* \"#utility.yul\":7913:7990   */\n      0x4e487b7100000000000000000000000000000000000000000000000000000000\n        /* \"#utility.yul\":7910:7911   */\n      0x00\n        /* \"#utility.yul\":7903:7991   */\n      mstore\n        /* \"#utility.yul\":8010:8014   */\n      0x41\n        /* \"#utility.yul\":8007:8008   */\n      0x04\n        /* \"#utility.yul\":8000:8015   */\n      mstore\n        /* \"#utility.yul\":8034:8038   */\n      0x24\n        /* \"#utility.yul\":8031:8032   */\n      0x00\n        /* \"#utility.yul\":8024:8039   */\n      revert\n        /* \"#utility.yul\":8051:8144   */\n    tag_72:\n        /* \"#utility.yul\":8088:8094   */\n      0x00\n        /* \"#utility.yul\":8135:8137   */\n      0x20\n        /* \"#utility.yul\":8130:8132   */\n      0x1f\n        /* \"#utility.yul\":8123:8128   */\n      dup4\n        /* \"#utility.yul\":8119:8133   */\n      add\n        /* \"#utility.yul\":8115:8138   */\n      div\n        /* \"#utility.yul\":8105:8138   */\n      swap1\n      pop\n        /* \"#utility.yul\":8051:8144   */\n      swap2\n      swap1\n      pop\n      jump\t// out\n        /* \"#utility.yul\":8150:8257   */\n    tag_73:\n        /* \"#utility.yul\":8194:8202   */\n      0x00\n        /* \"#utility.yul\":8244:8249   */\n      dup3\n        /* \"#utility.yul\":8238:8242   */\n      dup3\n        /* \"#utility.yul\":8234:8250   */\n      shl\n        /* \"#utility.yul\":8213:8250   */\n      swap1\n      pop\n        /* \"#utility.yul\":8150:8257   */\n      swap3\n      swap2\n      pop\n      pop\n      jump\t// out\n        /* \"#utility.yul\":8263:8656   */\n    tag_74:\n        /* \"#utility.yul\":8332:8338   */\n      0x00\n        /* \"#utility.yul\":8382:8383   */\n      0x08\n        /* \"#utility.yul\":8370:8380   */\n      dup4\n        /* \"#utility.yul\":8366:8384   */\n      mul\n        /* \"#utility.yul\":8405:8502   */\n      tag_167\n        /* \"#utility.yul\":8435:8501   */\n      0xffffffffffffffffffffffffffffffffffffffffffffffffffffffffffffffff\n        /* \"#utility.yul\":8424:8433   */\n      dup3\n        /* \"#utility.yul\":8405:8502   */\n      tag_73\n      jump\t// in\n    tag_167:\n        /* \"#utility.yul\":8523:8562   */\n      tag_168\n        /* \"#utility.yul\":8553:8561   */\n      dup7\n        /* \"#utility.yul\":8542:8551   */\n      dup4\n        /* \"#utility.yul\":8523:8562   */\n      tag_73\n      jump\t// in\n    tag_168:\n        /* \"#utility.yul\":8511:8562   */\n      swap6\n      pop\n        /* \"#utility.yul\":8595:8599   */\n      dup1\n        /* \"#utility.yul\":8591:8600   */\n      not\n        /* \"#utility.yul\":8584:8589   */\n      dup5\n        /* \"#utility.yul\":8580:8601   */\n      and\n        /* \"#utility.yul\":8571:8601   */\n      swap4\n      pop\n        /* \"#utility.yul\":8644:8648   */\n      dup1\n        /* \"#utility.yul\":8634:8642   */\n      dup7\n        /* \"#utility.yul\":8630:8649   */\n      and\n        /* \"#utility.yul\":8623:8628   */\n      dup5\n        /* \"#utility.yul\":8620:8650   */\n      or\n        /* \"#utility.yul\":8610:8650   */\n      swap3\n      pop\n        /* \"#utility.yul\":8339:8656   */\n      pop\n      pop\n        /* \"#utility.yul\":8263:8656   */\n      swap4\n      swap3\n      pop\n      pop\n      pop\n      jump\t// out\n        /* \"#utility.yul\":8662:8722   */\n    tag_75:\n        /* \"#utility.yul\":8690:8693   */\n      0x00\n        /* \"#utility.yul\":8711:8716   */\n      dup2\n        /* \"#utility.yul\":8704:8716   */\n      swap1\n      pop\n        /* \"#utility.yul\":8662:8722   */\n      swap2\n      swap1\n      pop\n      jump\t// out\n        /* \"#utility.yul\":8728:8870   */\n    tag_76:\n        /* \"#utility.yul\":8778:8787   */\n      0x00\n        /* \"#utility.yul\":8811:8864   */\n      tag_171\n        /* \"#utility.yul\":8829:8863   */\n      tag_172\n        /* \"#utility.yul\":8838:8862   */\n      tag_173\n        /* \"#utility.yul\":8856:8861   */\n      dup5\n        /* \"#utility.yul\":8838:8862   */\n      tag_56\n      jump\t// in\n    tag_173:\n        /* \"#utility.yul\":8829:8863   */\n      tag_75\n      jump\t// in\n    tag_172:\n        /* \"#utility.yul\":8811:8864   */\n      tag_56\n      jump\t// in\n    tag_171:\n        /* \"#utility.yul\":8798:8864   */\n      swap1\n      pop\n        /* \"#utility.yul\":8728:8870   */\n      swap2\n      swap1\n      pop\n      jump\t// out\n        /* \"#utility.yul\":8876:8951   */\n    tag_77:\n        /* \"#utility.yul\":8919:8922   */\n      0x00\n        /* \"#utility.yul\":8940:8945   */\n      dup2\n        /* \"#utility.yul\":8933:8945   */\n      swap1\n      pop\n        /* \"#utility.yul\":8876:8951   */\n      swap2\n      swap1\n      pop\n      jump\t// out\n        /* \"#utility.yul\":8957:9226   */\n    tag_78:\n        /* \"#utility.yul\":9067:9106   */\n      tag_176\n        /* \"#utility.yul\":9098:9105   */\n      dup4\n        /* \"#utility.yul\":9067:9106   */\n      tag_76\n      jump\t// in\n    tag_176:\n        /* \"#utility.yul\":9128:9219   */\n      tag_177\n        /* \"#utility.yul\":9177:9218   */\n      tag_178\n        /* \"#utility.yul\":9201:9217   */\n      dup3\n        /* \"#utility.yul\":9177:9218   */\n      tag_77\n      jump\t// in\n    tag_178:\n        /* \"#utility.yul\":9169:9175   */\n      dup5\n        /* \"#utility.yul\":9162:9166   */\n      dup5\n        /* \"#utility.yul\":9156:9167   */\n      sload\n        /* \"#utility.yul\":9128:9219   */\n      tag_74\n      jump\t// in\n    tag_177:\n        /* \"#utility.yul\":9122:9126   */\n      dup3\n        /* \"#utility.yul\":9115:9220   */\n      sstore\n        /* \"#utility.yul\":9033:9226   */\n      pop\n        /* \"#utility.yul\":8957:9226   */\n      pop\n      pop\n      pop\n      jump\t// out\n        /* \"#utility.yul\":9232:9305   */\n    tag_79:\n        /* \"#utility.yul\":9277:9280   */\n      0x00\n        /* \"#utility.yul\":9298:9299   */\n      0x00\n        /* \"#utility.yul\":9291:9299   */\n      swap1\n      pop\n        /* \"#utility.yul\":9232:9305   */\n      swap1\n      jump\t// out\n        /* \"#utility.yul\":9311:9500   */\n    tag_80:\n        /* \"#utility.yul\":9388:9420   */\n      tag_181\n      tag_79\n      jump\t// in\n    tag_181:\n        /* \"#utility.yul\":9429:9494   */\n      tag_182\n        /* \"#utility.yul\":9487:9493   */\n      dup2\n        /* \"#utility.yul\":9479:9485   */\n      dup5\n        /* \"#utility.yul\":9473:9477   */\n      dup5\n        /* \"#utility.yul\":9429:9494   */\n      tag_78\n      jump\t// in\n    tag_182:\n        /* \"#utility.yul\":9364:9500   */\n      pop\n        /* \"#utility.yul\":9311:9500   */\n      pop\n      pop\n      jump\t// out\n        /* \"#utility.yul\":9506:9692   */\n    tag_81:\n        /* \"#utility.yul\":9566:9686   */\n    tag_184:\n        /* \"#utility.yul\":9583:9586   */\n      dup2\n        /* \"#utility.yul\":9576:9581   */\n      dup2\n        /* \"#utility.yul\":9573:9587   */\n      lt\n        /* \"#utility.yul\":9566:9686   */\n      iszero\n      tag_186\n      jumpi\n        /* \"#utility.yul\":9637:9676   */\n      tag_187\n        /* \"#utility.yul\":9674:9675   */\n      0x00\n        /* \"#utility.yul\":9667:9672   */\n      dup3\n        /* \"#utility.yul\":9637:9676   */\n      tag_80\n      jump\t// in\n    tag_187:\n        /* \"#utility.yul\":9610:9611   */\n      0x01\n        /* \"#utility.yul\":9603:9608   */\n      dup2\n        /* \"#utility.yul\":9599:9612   */\n      add\n        /* \"#utility.yul\":9590:9612   */\n      swap1\n      pop\n        /* \"#utility.yul\":9566:9686   */\n      jump(tag_184)\n    tag_186:\n        /* \"#utility.yul\":9506:9692   */\n      pop\n      pop\n      jump\t// out\n        /* \"#utility.yul\":9698:10241   */\n    tag_82:\n        /* \"#utility.yul\":9799:9801   */\n      0x1f\n        /* \"#utility.yul\":9794:9797   */\n      dup3\n        /* \"#utility.yul\":9791:9802   */\n      gt\n        /* \"#utility.yul\":9788:10234   */\n      iszero\n      tag_189\n      jumpi\n        /* \"#utility.yul\":9833:9871   */\n      tag_190\n        /* \"#utility.yul\":9865:9870   */\n      dup2\n        /* \"#utility.yul\":9833:9871   */\n      tag_63\n      jump\t// in\n    tag_190:\n        /* \"#utility.yul\":9917:9946   */\n      tag_191\n        /* \"#utility.yul\":9935:9945   */\n      dup5\n        /* \"#utility.yul\":9917:9946   */\n      tag_72\n      jump\t// in\n    tag_191:\n        /* \"#utility.yul\":9907:9915   */\n      dup2\n        /* \"#utility.yul\":9903:9947   */\n      add\n        /* \"#utility.yul\":10100:10102   */\n      0x20\n        /* \"#utility.yul\":10088:10098   */\n      dup6\n        /* \"#utility.yul\":10085:10103   */\n      lt\n        /* \"#utility.yul\":10082:10131   */\n      iszero\n      tag_192\n      jumpi\n        /* \"#utility.yul\":10121:10129   */\n      dup2\n        /* \"#utility.yul\":10106:10129   */\n      swap1\n      pop\n        /* \"#utility.yul\":10082:10131   */\n    tag_192:\n        /* \"#utility.yul\":10144:10224   */\n      tag_193\n        /* \"#utility.yul\":10200:10222   */\n      tag_194\n        /* \"#utility.yul\":10218:10221   */\n      dup6\n        /* \"#utility.yul\":10200:10222   */\n      tag_72\n      jump\t// in\n    tag_194:\n        /* \"#utility.yul\":10190:10198   */\n      dup4\n        /* \"#utility.yul\":10186:10223   */\n      add\n        /* \"#utility.yul\":10173:10184   */\n      dup3\n        /* \"#utility.yul\":10144:10224   */\n      tag_81\n      jump\t// in\n    tag_193:\n        /* \"#utility.yul\":9803:10234   */\n      pop\n      pop\n        /* \"#utility.yul\":9788:10234   */\n    tag_189:\n        /* \"#utility.yul\":9698:10241   */\n      pop\n      pop\n      pop\n      jump\t// out\n        /* \"#utility.yul\":10247:10364   */\n    tag_83:\n        /* \"#utility.yul\":10301:10309   */\n      0x00\n        /* \"#utility.yul\":10351:10356   */\n      dup3\n        /* \"#utility.yul\":10345:10349   */\n      dup3\n        /* \"#utility.yul\":10341:10357   */\n      shr\n        /* \"#utility.yul\":10320:10357   */\n      swap1\n      pop\n        /* \"#utility.yul\":10247:10364   */\n      swap3\n      swap2\n      pop\n      pop\n      jump\t// out\n        /* \"#utility.yul\":10370:10539   */\n    tag_84:\n        /* \"#utility.yul\":10414:10420   */\n      0x00\n        /* \"#utility.yul\":10447:10498   */\n      tag_197\n        /* \"#utility.yul\":10495:10496   */\n      0x00\n        /* \"#utility.yul\":10491:10497   */\n      not\n        /* \"#utility.yul\":10483:10488   */\n      dup5\n        /* \"#utility.yul\":10480:10481   */\n      0x08\n        /* \"#utility.yul\":10476:10489   */\n      mul\n        /* \"#utility.yul\":10447:10498   */\n      tag_83\n      jump\t// in\n    tag_197:\n        /* \"#utility.yul\":10443:10499   */\n      not\n        /* \"#utility.yul\":10528:10532   */\n      dup1\n        /* \"#utility.yul\":10522:10526   */\n      dup4\n        /* \"#utility.yul\":10518:10533   */\n      and\n        /* \"#utility.yul\":10508:10533   */\n      swap2\n      pop\n        /* \"#utility.yul\":10421:10539   */\n      pop\n        /* \"#utility.yul\":10370:10539   */\n      swap3\n      swap2\n      pop\n      pop\n      jump\t// out\n        /* \"#utility.yul\":10544:10839   */\n    tag_85:\n        /* \"#utility.yul\":10620:10624   */\n      0x00\n        /* \"#utility.yul\":10766:10795   */\n      tag_199\n        /* \"#utility.yul\":10791:10794   */\n      dup4\n        /* \"#utility.yul\":10785:10789   */\n      dup4\n        /* \"#utility.yul\":10766:10795   */\n      tag_84\n      jump\t// in\n    tag_199:\n        /* \"#utility.yul\":10758:10795   */\n      swap2\n      pop\n        /* \"#utility.yul\":10828:10831   */\n      dup3\n        /* \"#utility.yul\":10825:10826   */\n      0x02\n        /* \"#utility.yul\":10821:10832   */\n      mul\n        /* \"#utility.yul\":10815:10819   */\n      dup3\n        /* \"#utility.yul\":10812:10833   */\n      or\n        /* \"#utility.yul\":10804:10833   */\n      swap1\n      pop\n        /* \"#utility.yul\":10544:10839   */\n      swap3\n      swap2\n      pop\n      pop\n      jump\t// out\n        /* \"#utility.yul\":10844:12247   */\n    tag_48:\n        /* \"#utility.yul\":10968:11012   */\n      tag_201\n        /* \"#utility.yul\":11008:11011   */\n      dup4\n        /* \"#utility.yul\":11003:11006   */\n      dup4\n        /* \"#utility.yul\":10968:11012   */\n      tag_70\n      jump\t// in\n    tag_201:\n        /* \"#utility.yul\":11077:11095   */\n      0xffffffffffffffff\n        /* \"#utility.yul\":11069:11075   */\n      dup2\n        /* \"#utility.yul\":11066:11096   */\n      gt\n        /* \"#utility.yul\":11063:11119   */\n      iszero\n      tag_202\n      jumpi\n        /* \"#utility.yul\":11099:11117   */\n      tag_203\n      tag_71\n      jump\t// in\n    tag_203:\n        /* \"#utility.yul\":11063:11119   */\n    tag_202:\n        /* \"#utility.yul\":11143:11181   */\n      tag_204\n        /* \"#utility.yul\":11175:11179   */\n      dup3\n        /* \"#utility.yul\":11169:11180   */\n      sload\n        /* \"#utility.yul\":11143:11181   */\n      tag_62\n      jump\t// in\n    tag_204:\n        /* \"#utility.yul\":11228:11295   */\n      tag_205\n        /* \"#utility.yul\":11288:11294   */\n      dup3\n        /* \"#utility.yul\":11280:11286   */\n      dup3\n        /* \"#utility.yul\":11274:11278   */\n      dup6\n        /* \"#utility.yul\":11228:11295   */\n      tag_82\n      jump\t// in\n    tag_205:\n        /* \"#utility.yul\":11322:11323   */\n      0x00\n        /* \"#utility.yul\":11351:11353   */\n      0x1f\n        /* \"#utility.yul\":11343:11349   */\n      dup4\n        /* \"#utility.yul\":11340:11354   */\n      gt\n        /* \"#utility.yul\":11368:11369   */\n      0x01\n        /* \"#utility.yul\":11363:11995   */\n      dup2\n      eq\n      tag_207\n      jumpi\n        /* \"#utility.yul\":12039:12040   */\n      0x00\n        /* \"#utility.yul\":12056:12062   */\n      dup5\n        /* \"#utility.yul\":12053:12137   */\n      iszero\n      tag_208\n      jumpi\n        /* \"#utility.yul\":12112:12121   */\n      dup3\n        /* \"#utility.yul\":12107:12110   */\n      dup8\n        /* \"#utility.yul\":12103:12122   */\n      add\n        /* \"#utility.yul\":12090:12123   */\n      calldataload\n        /* \"#utility.yul\":12081:12123   */\n      swap1\n      pop\n        /* \"#utility.yul\":12053:12137   */\n    tag_208:\n        /* \"#utility.yul\":12163:12230   */\n      tag_209\n        /* \"#utility.yul\":12223:12229   */\n      dup6\n        /* \"#utility.yul\":12216:12221   */\n      dup3\n        /* \"#utility.yul\":12163:12230   */\n      tag_85\n      jump\t// in\n    tag_209:\n        /* \"#utility.yul\":12157:12161   */\n      dup7\n        /* \"#utility.yul\":12150:12231   */\n      sstore\n        /* \"#utility.yul\":12012:12241   */\n      pop\n        /* \"#utility.yul\":11333:12241   */\n      jump(tag_206)\n        /* \"#utility.yul\":11363:11995   */\n    tag_207:\n        /* \"#utility.yul\":11415:11419   */\n      0x1f\n        /* \"#utility.yul\":11411:11420   */\n      not\n        /* \"#utility.yul\":11403:11409   */\n      dup5\n        /* \"#utility.yul\":11399:11421   */\n      and\n        /* \"#utility.yul\":11449:11486   */\n      tag_210\n        /* \"#utility.yul\":11481:11485   */\n      dup7\n        /* \"#utility.yul\":11449:11486   */\n      tag_63\n      jump\t// in\n    tag_210:\n        /* \"#utility.yul\":11508:11509   */\n      0x00\n        /* \"#utility.yul\":11522:11737   */\n    tag_211:\n        /* \"#utility.yul\":11536:11543   */\n      dup3\n        /* \"#utility.yul\":11533:11534   */\n      dup2\n        /* \"#utility.yul\":11530:11544   */\n      lt\n        /* \"#utility.yul\":11522:11737   */\n      iszero\n      tag_213\n      jumpi\n        /* \"#utility.yul\":11622:11631   */\n      dup5\n        /* \"#utility.yul\":11617:11620   */\n      dup10\n        /* \"#utility.yul\":11613:11632   */\n      add\n        /* \"#utility.yul\":11600:11633   */\n      calldataload\n        /* \"#utility.yul\":11592:11598   */\n      dup3\n        /* \"#utility.yul\":11585:11634   */\n      sstore\n        /* \"#utility.yul\":11673:11674   */\n      0x01\n        /* \"#utility.yul\":11665:11671   */\n      dup3\n        /* \"#utility.yul\":11661:11675   */\n      add\n        /* \"#utility.yul\":11651:11675   */\n      swap2\n      pop\n        /* \"#utility.yul\":11720:11722   */\n      0x20\n        /* \"#utility.yul\":11709:11718   */\n      dup6\n        /* \"#utility.yul\":11705:11723   */\n      add\n        /* \"#utility.yul\":11692:11723   */\n      swap5\n      pop\n        /* \"#utility.yul\":11559:11563   */\n      0x20\n        /* \"#utility.yul\":11556:11557   */\n      dup2\n        /* \"#utility.yul\":11552:11564   */\n      add\n        /* \"#utility.yul\":11547:11564   */\n      swap1\n      pop\n        /* \"#utility.yul\":11522:11737   */\n      jump(tag_211)\n    tag_213:\n        /* \"#utility.yul\":11765:11771   */\n      dup7\n        /* \"#utility.yul\":11756:11763   */\n      dup4\n        /* \"#utility.yul\":11753:11772   */\n      lt\n        /* \"#utility.yul\":11750:11936   */\n      iszero\n      tag_214\n      jumpi\n        /* \"#utility.yul\":11830:11839   */\n      dup5\n        /* \"#utility.yul\":11825:11828   */\n      dup10\n        /* \"#utility.yul\":11821:11840   */\n      add\n        /* \"#utility.yul\":11808:11841   */\n      calldataload\n        /* \"#utility.yul\":11873:11921   */\n      tag_215\n        /* \"#utility.yul\":11915:11919   */\n      0x1f\n        /* \"#utility.yul\":11907:11913   */\n      dup10\n        /* \"#utility.yul\":11903:11920   */\n      and\n        /* \"#utility.yul\":11892:11901   */\n      dup3\n        /* \"#utility.yul\":11873:11921   */\n      tag_84\n      jump\t// in\n    tag_215:\n        /* \"#utility.yul\":11865:11871   */\n      dup4\n        /* \"#utility.yul\":11858:11922   */\n      sstore\n        /* \"#utility.yul\":11773:11936   */\n      pop\n        /* \"#utility.yul\":11750:11936   */\n    tag_214:\n        /* \"#utility.yul\":11982:11983   */\n      0x01\n        /* \"#utility.yul\":11978:11979   */\n      0x02\n        /* \"#utility.yul\":11970:11976   */\n      dup9\n        /* \"#utility.yul\":11966:11980   */\n      mul\n        /* \"#utility.yul\":11962:11984   */\n      add\n        /* \"#utility.yul\":11956:11960   */\n      dup9\n        /* \"#utility.yul\":11949:11985   */\n      sstore\n        /* \"#utility.yul\":11370:11995   */\n      pop\n      pop\n      pop\n        /* \"#utility.yul\":11333:12241   */\n    tag_206:\n      pop\n        /* \"#utility.yul\":10943:12247   */\n      pop\n      pop\n      pop\n        /* \"#utility.yul\":10844:12247   */\n      pop\n      pop\n      pop\n      jump\t// out\n\n    auxdata: 0xa26469706673582212208b1824bee3d600dc40833505de2b86c100cf32225c1d7a345ff1c8af30d8dc9b64736f6c634300081f0033\n}\n",
				"bytecode": {
					"linkReferences": {},
					"object": "6080604052348015600e575f5ffd5b506108948061001c5f395ff3fe608060405234801561000f575f5ffd5b506004361061003f575f3560e01c8063805265e514610043578063b9830ff114610073578063fc36e15b1461007d575b5f5ffd5b61005d6004803603810190610058919061027c565b610099565b60405161006a91906102df565b60405180910390f35b61007b6100c2565b005b6100976004803603810190610092919061027c565b61011f565b005b5f5f83836040516100ab929190610334565b908152602001604051809103902054905092915050565b5f5f90505b60018054905081101561011c575f600182815481106100e9576100e861034c565b5b905f5260205f20016040516100fe9190610468565b90815260200160405180910390205f905580806001019150506100c7565b50565b60015f8383604051610132929190610334565b90815260200160405180910390205f82825461014e91906104ab565b925050819055505f5f5f90505b6001805490508110156101cc57838360405161017892919061050c565b6040518091039020600182815481106101945761019361034c565b5b905f5260205f20016040516101a991906105b6565b6040518091039020036101bf57600191506101cc565b808060010191505061015b565b508061020e576001838390918060018154018082558091505060019003905f5260205f20015f90919290919290919290919250918261020c929190610791565b505b505050565b5f5ffd5b5f5ffd5b5f5ffd5b5f5ffd5b5f5ffd5b5f5f83601f84011261023c5761023b61021b565b5b8235905067ffffffffffffffff8111156102595761025861021f565b5b60208301915083600182028301111561027557610274610223565b5b9250929050565b5f5f6020838503121561029257610291610213565b5b5f83013567ffffffffffffffff8111156102af576102ae610217565b5b6102bb85828601610227565b92509250509250929050565b5f819050919050565b6102d9816102c7565b82525050565b5f6020820190506102f25f8301846102d0565b92915050565b5f81905092915050565b828183375f83830152505050565b5f61031b83856102f8565b9350610328838584610302565b82840190509392505050565b5f610340828486610310565b91508190509392505050565b7f4e487b71000000000000000000000000000000000000000000000000000000005f52603260045260245ffd5b7f4e487b71000000000000000000000000000000000000000000000000000000005f52602260045260245ffd5b5f60028204905060018216806103bd57607f821691505b6020821081036103d0576103cf610379565b5b50919050565b5f819050815f5260205f209050919050565b5f81546103f4816103a6565b6103fe81866102f8565b9450600182165f8114610418576001811461042d5761045f565b60ff198316865281151582028601935061045f565b610436856103d6565b5f5b8381101561045757815481890152600182019150602081019050610438565b838801955050505b50505092915050565b5f61047382846103e8565b915081905092915050565b7f4e487b71000000000000000000000000000000000000000000000000000000005f52601160045260245ffd5b5f6104b5826102c7565b91506104c0836102c7565b92508282019050808211156104d8576104d761047e565b5b92915050565b5f81905092915050565b5f6104f383856104de565b9350610500838584610302565b82840190509392505050565b5f6105188284866104e8565b91508190509392505050565b5f819050815f5260205f209050919050565b5f8154610542816103a6565b61054c81866104de565b9450600182165f8114610566576001811461057b576105ad565b60ff19831686528115158202860193506105ad565b61058485610524565b5f5b838110156105a557815481890152600182019150602081019050610586565b838801955050505b50505092915050565b5f6105c18284610536565b915081905092915050565b5f82905092915050565b7f4e487b71000000000000000000000000000000000000000000000000000000005f52604160045260245ffd5b5f6020601f8301049050919050565b5f82821b905092915050565b5f6008830261064d7fffffffffffffffffffffffffffffffffffffffffffffffffffffffffffffffff82610612565b6106578683610612565b95508019841693508086168417925050509392505050565b5f819050919050565b5f61069261068d610688846102c7565b61066f565b6102c7565b9050919050565b5f819050919050565b6106ab83610678565b6106bf6106b782610699565b84845461061e565b825550505050565b5f5f905090565b6106d66106c7565b6106e18184846106a2565b505050565b5b81811015610704576106f95f826106ce565b6001810190506106e7565b5050565b601f8211156107495761071a816103d6565b61072384610603565b81016020851015610732578190505b61074661073e85610603565b8301826106e6565b50505b505050565b5f82821c905092915050565b5f6107695f198460080261074e565b1980831691505092915050565b5f610781838361075a565b9150826002028217905092915050565b61079b83836105cc565b67ffffffffffffffff8111156107b4576107b36105d6565b5b6107be82546103a6565b6107c9828285610708565b5f601f8311600181146107f6575f84156107e4578287013590505b6107ee8582610776565b865550610855565b601f198416610804866103d6565b5f5b8281101561082b57848901358255600182019150602085019450602081019050610806565b868310156108485784890135610844601f89168261075a565b8355505b6001600288020188555050505b5050505050505056fea26469706673582212208b1824bee3d600dc40833505de2b86c100cf32225c1d7a345ff1c8af30d8dc9b64736f6c634300081f0033",
					"opcodes": "PUSH1 0x80 PUSH1 0x40 MSTORE CALLVALUE DUP1 ISZERO PUSH1 0xE JUMPI PUSH0 PUSH0 REVERT JUMPDEST POP PUSH2 0x894 DUP1 PUSH2 0x1C PUSH0 CODECOPY PUSH0 RETURN INVALID PUSH1 0x80 PUSH1 0x40 MSTORE CALLVALUE DUP1 ISZERO PUSH2 0xF JUMPI PUSH0 PUSH0 REVERT JUMPDEST POP PUSH1 0x4 CALLDATASIZE LT PUSH2 0x3F JUMPI PUSH0 CALLDATALOAD PUSH1 0xE0 SHR DUP1 PUSH4 0x805265E5 EQ PUSH2 0x43 JUMPI DUP1 PUSH4 0xB9830FF1 EQ PUSH2 0x73 JUMPI DUP1 PUSH4 0xFC36E15B EQ PUSH2 0x7D JUMPI JUMPDEST PUSH0 PUSH0 REVERT JUMPDEST PUSH2 0x5D PUSH1 0x4 DUP1 CALLDATASIZE SUB DUP2 ADD SWAP1 PUSH2 0x58 SWAP2 SWAP1 PUSH2 0x27C JUMP JUMPDEST PUSH2 0x99 JUMP JUMPDEST PUSH1 0x40 MLOAD PUSH2 0x6A SWAP2 SWAP1 PUSH2 0x2DF JUMP JUMPDEST PUSH1 0x40 MLOAD DUP1 SWAP2 SUB SWAP1 RETURN JUMPDEST PUSH2 0x7B PUSH2 0xC2 JUMP JUMPDEST STOP JUMPDEST PUSH2 0x97 PUSH1 0x4 DUP1 CALLDATASIZE SUB DUP2 ADD SWAP1 PUSH2 0x92 SWAP2 SWAP1 PUSH2 0x27C JUMP JUMPDEST PUSH2 0x11F JUMP JUMPDEST STOP JUMPDEST PUSH0 PUSH0 DUP4 DUP4 PUSH1 0x40 MLOAD PUSH2 0xAB SWAP3 SWAP2 SWAP1 PUSH2 0x334 JUMP JUMPDEST SWAP1 DUP2 MSTORE PUSH1 0x20 ADD PUSH1 0x40 MLOAD DUP1 SWAP2 SUB SWAP1 KECCAK256 SLOAD SWAP1 POP SWAP3 SWAP2 POP POP JUMP JUMPDEST PUSH0 PUSH0 SWAP1 POP JUMPDEST PUSH1 0x1 DUP1 SLOAD SWAP1 POP DUP2 LT ISZERO PUSH2 0x11C JUMPI PUSH0 PUSH1 0x1 DUP3 DUP2 SLOAD DUP2 LT PUSH2 0xE9 JUMPI PUSH2 0xE8 PUSH2 0x34C JUMP JUMPDEST JUMPDEST SWAP1 PUSH0 MSTORE PUSH1 0x20 PUSH0 KECCAK256 ADD PUSH1 0x40 MLOAD PUSH2 0xFE SWAP2 SWAP1 PUSH2 0x468 JUMP JUMPDEST SWAP1 DUP2 MSTORE PUSH1 0x20 ADD PUSH1 0x40 MLOAD DUP1 SWAP2 SUB SWAP1 KECCAK256 PUSH0 SWAP1 SSTORE DUP1 DUP1 PUSH1 0x1 ADD SWAP2 POP POP PUSH2 0xC7 JUMP JUMPDEST POP JUMP JUMPDEST PUSH1 0x1 PUSH0 DUP4 DUP4 PUSH1 0x40 MLOAD PUSH2 0x132 SWAP3 SWAP2 SWAP1 PUSH2 0x334 JUMP JUMPDEST SWAP1 DUP2 MSTORE PUSH1 0x20 ADD PUSH1 0x40 MLOAD DUP1 SWAP2 SUB SWAP1 KECCAK256 PUSH0 DUP3 DUP3 SLOAD PUSH2 0x14E SWAP2 SWAP1 PUSH2 0x4AB JUMP JUMPDEST SWAP3 POP POP DUP2 SWAP1 SSTORE POP PUSH0 PUSH0 PUSH0 SWAP1 POP JUMPDEST PUSH1 0x1 DUP1 SLOAD SWAP1 POP DUP2 LT ISZERO PUSH2 0x1CC JUMPI DUP4 DUP4 PUSH1 0x40 MLOAD PUSH2 0x178 SWAP3 SWAP2 SWAP1 PUSH2 0x50C JUMP JUMPDEST PUSH1 0x40 MLOAD DUP1 SWAP2 SUB SWAP1 KECCAK256 PUSH1 0x1 DUP3 DUP2 SLOAD DUP2 LT PUSH2 0x194 JUMPI PUSH2 0x193 PUSH2 0x34C JUMP JUMPDEST JUMPDEST SWAP1 PUSH0 MSTORE PUSH1 0x20 PUSH0 KECCAK256 ADD PUSH1 0x40 MLOAD PUSH2 0x1A9 SWAP2 SWAP1 PUSH2 0x5B6 JUMP JUMPDEST PUSH1 0x40 MLOAD DUP1 SWAP2 SUB SWAP1 KECCAK256 SUB PUSH2 0x1BF JUMPI PUSH1 0x1 SWAP2 POP PUSH2 0x1CC JUMP JUMPDEST DUP1 DUP1 PUSH1 0x1 ADD SWAP2 POP POP PUSH2 0x15B JUMP JUMPDEST POP DUP1 PUSH2 0x20E JUMPI PUSH1 0x1 DUP4 DUP4 SWAP1 SWAP2 DUP1 PUSH1 0x1 DUP2 SLOAD ADD DUP1 DUP3 SSTORE DUP1 SWAP2 POP POP PUSH1 0x1 SWAP1 SUB SWAP1 PUSH0 MSTORE PUSH1 0x20 PUSH0 KECCAK256 ADD PUSH0 SWAP1 SWAP2 SWAP3 SWAP1 SWAP2 SWAP3 SWAP1 SWAP2 SWAP3 SWAP1 SWAP2 SWAP3 POP SWAP2 DUP3 PUSH2 0x20C SWAP3 SWAP2 SWAP1 PUSH2 0x791 JUMP JUMPDEST POP JUMPDEST POP POP POP JUMP JUMPDEST PUSH0 PUSH0 REVERT JUMPDEST PUSH0 PUSH0 REVERT JUMPDEST PUSH0 PUSH0 REVERT JUMPDEST PUSH0 PUSH0 REVERT JUMPDEST PUSH0 PUSH0 REVERT JUMPDEST PUSH0 PUSH0 DUP4 PUSH1 0x1F DUP5 ADD SLT PUSH2 0x23C JUMPI PUSH2 0x23B PUSH2 0x21B JUMP JUMPDEST JUMPDEST DUP3 CALLDATALOAD SWAP1 POP PUSH8 0xFFFFFFFFFFFFFFFF DUP2 GT ISZERO PUSH2 0x259 JUMPI PUSH2 0x258 PUSH2 0x21F JUMP JUMPDEST JUMPDEST PUSH1 0x20 DUP4 ADD SWAP2 POP DUP4 PUSH1 0x1 DUP3 MUL DUP4 ADD GT ISZERO PUSH2 0x275 JUMPI PUSH2 0x274 PUSH2 0x223 JUMP JUMPDEST JUMPDEST SWAP3 POP SWAP3 SWAP1 POP JUMP JUMPDEST PUSH0 PUSH0 PUSH1 0x20 DUP4 DUP6 SUB SLT ISZERO PUSH2 0x292 JUMPI PUSH2 0x291 PUSH2 0x213 JUMP JUMPDEST JUMPDEST PUSH0 DUP4 ADD CALLDATALOAD PUSH8 0xFFFFFFFFFFFFFFFF DUP2 GT ISZERO PUSH2 0x2AF JUMPI PUSH2 0x2AE PUSH2 0x217 JUMP JUMPDEST JUMPDEST PUSH2 0x2BB DUP6 DUP3 DUP7 ADD PUSH2 0x227 JUMP JUMPDEST SWAP3 POP SWAP3 POP POP SWAP3 POP SWAP3 SWAP1 POP JUMP JUMPDEST PUSH0 DUP2 SWAP1 POP SWAP2 SWAP1 POP JUMP JUMPDEST PUSH2 0x2D9 DUP2 PUSH2 0x2C7 JUMP JUMPDEST DUP3 MSTORE POP POP JUMP JUMPDEST PUSH0 PUSH1 0x20 DUP3 ADD SWAP1 POP PUSH2 0x2F2 PUSH0 DUP4 ADD DUP5 PUSH2 0x2D0 JUMP JUMPDEST SWAP3 SWAP2 POP POP JUMP JUMPDEST PUSH0 DUP2 SWAP1 POP SWAP3 SWAP2 POP POP JUMP JUMPDEST DUP3 DUP2 DUP4 CALLDATACOPY PUSH0 DUP4 DUP4 ADD MSTORE POP POP POP JUMP JUMPDEST PUSH0 PUSH2 0x31B DUP4 DUP6 PUSH2 0x2F8 JUMP JUMPDEST SWAP4 POP PUSH2 0x328 DUP4 DUP6 DUP5 PUSH2 0x302 JUMP JUMPDEST DUP3 DUP5 ADD SWAP1 POP SWAP4 SWAP3 POP POP POP JUMP JUMPDEST PUSH0 PUSH2 0x340 DUP3 DUP5 DUP7 PUSH2 0x310 JUMP JUMPDEST SWAP2 POP DUP2 SWAP1 POP SWAP4 SWAP3 POP POP POP JUMP JUMPDEST PUSH32 0x4E487B7100000000000000000000000000000000000000000000000000000000 PUSH0 MSTORE PUSH1 0x32 PUSH1 0x4 MSTORE PUSH1 0x24 PUSH0 REVERT JUMPDEST PUSH32 0x4E487B7100000000000000000000000000000000000000000000000000000000 PUSH0 MSTORE PUSH1 0x22 PUSH1 0x4 MSTORE PUSH1 0x24 PUSH0 REVERT JUMPDEST PUSH0 PUSH1 0x2 DUP3 DIV SWAP1 POP PUSH1 0x1 DUP3 AND DUP1 PUSH2 0x3BD JUMPI PUSH1 0x7F DUP3 AND SWAP2 POP JUMPDEST PUSH1 0x20 DUP3 LT DUP2 SUB PUSH2 0x3D0 JUMPI PUSH2 0x3CF PUSH2 0x379 JUMP JUMPDEST JUMPDEST POP SWAP2 SWAP1 POP JUMP JUMPDEST PUSH0 DUP2 SWAP1 POP DUP2 PUSH0 MSTORE PUSH1 0x20 PUSH0 KECCAK256 SWAP1 POP SWAP2 SWAP1 POP JUMP JUMPDEST PUSH0 DUP2 SLOAD PUSH2 0x3F4 DUP2 PUSH2 0x3A6 JUMP JUMPDEST PUSH2 0x3FE DUP2 DUP7 PUSH2 0x2F8 JUMP JUMPDEST SWAP5 POP PUSH1 0x1 DUP3 AND PUSH0 DUP2 EQ PUSH2 0x418 JUMPI PUSH1 0x1 DUP2 EQ PUSH2 0x42D JUMPI PUSH2 0x45F JUMP JUMPDEST PUSH1 0xFF NOT DUP4 AND DUP7 MSTORE DUP2 ISZERO ISZERO DUP3 MUL DUP7 ADD SWAP4 POP PUSH2 0x45F JUMP JUMPDEST PUSH2 0x436 DUP6 PUSH2 0x3D6 JUMP JUMPDEST PUSH0 JUMPDEST DUP4 DUP2 LT ISZERO PUSH2 0x457 JUMPI DUP2 SLOAD DUP2 DUP10 ADD MSTORE PUSH1 0x1 DUP3 ADD SWAP2 POP PUSH1 0x20 DUP2 ADD SWAP1 POP PUSH2 0x438 JUMP JUMPDEST DUP4 DUP9 ADD SWAP6 POP POP POP JUMPDEST POP POP POP SWAP3 SWAP2 POP POP JUMP JUMPDEST PUSH0 PUSH2 0x473 DUP3 DUP5 PUSH2 0x3E8 JUMP JUMPDEST SWAP2 POP DUP2 SWAP1 POP SWAP3 SWAP2 POP POP JUMP JUMPDEST PUSH32 0x4E487B7100000000000000000000000000000000000000000000000000000000 PUSH0 MSTORE PUSH1 0x11 PUSH1 0x4 MSTORE PUSH1 0x24 PUSH0 REVERT JUMPDEST PUSH0 PUSH2 0x4B5 DUP3 PUSH2 0x2C7 JUMP JUMPDEST SWAP2 POP PUSH2 0x4C0 DUP4 PUSH2 0x2C7 JUMP JUMPDEST SWAP3 POP DUP3 DUP3 ADD SWAP1 POP DUP1 DUP3 GT ISZERO PUSH2 0x4D8 JUMPI PUSH2 0x4D7 PUSH2 0x47E JUMP JUMPDEST JUMPDEST SWAP3 SWAP2 POP POP JUMP JUMPDEST PUSH0 DUP2 SWAP1 POP SWAP3 SWAP2 POP POP JUMP JUMPDEST PUSH0 PUSH2 0x4F3 DUP4 DUP6 PUSH2 0x4DE JUMP JUMPDEST SWAP4 POP PUSH2 0x500 DUP4 DUP6 DUP5 PUSH2 0x302 JUMP JUMPDEST DUP3 DUP5 ADD SWAP1 POP SWAP4 SWAP3 POP POP POP JUMP JUMPDEST PUSH0 PUSH2 0x518 DUP3 DUP5 DUP7 PUSH2 0x4E8 JUMP JUMPDEST SWAP2 POP DUP2 SWAP1 POP SWAP4 SWAP3 POP POP POP JUMP JUMPDEST PUSH0 DUP2 SWAP1 POP DUP2 PUSH0 MSTORE PUSH1 0x20 PUSH0 KECCAK256 SWAP1 POP SWAP2 SWAP1 POP JUMP JUMPDEST PUSH0 DUP2 SLOAD PUSH2 0x542 DUP2 PUSH2 0x3A6 JUMP JUMPDEST PUSH2 0x54C DUP2 DUP7 PUSH2 0x4DE JUMP JUMPDEST SWAP5 POP PUSH1 0x1 DUP3 AND PUSH0 DUP2 EQ PUSH2 0x566 JUMPI PUSH1 0x1 DUP2 EQ PUSH2 0x57B JUMPI PUSH2 0x5AD JUMP JUMPDEST PUSH1 0xFF NOT DUP4 AND DUP7 MSTORE DUP2 ISZERO ISZERO DUP3 MUL DUP7 ADD SWAP4 POP PUSH2 0x5AD JUMP JUMPDEST PUSH2 0x584 DUP6 PUSH2 0x524 JUMP JUMPDEST PUSH0 JUMPDEST DUP4 DUP2 LT ISZERO PUSH2 0x5A5 JUMPI DUP2 SLOAD DUP2 DUP10 ADD MSTORE PUSH1 0x1 DUP3 ADD SWAP2 POP PUSH1 0x20 DUP2 ADD SWAP1 POP PUSH2 0x586 JUMP JUMPDEST DUP4 DUP9 ADD SWAP6 POP POP POP JUMPDEST POP POP POP SWAP3 SWAP2 POP POP JUMP JUMPDEST PUSH0 PUSH2 0x5C1 DUP3 DUP5 PUSH2 0x536 JUMP JUMPDEST SWAP2 POP DUP2 SWAP1 POP SWAP3 SWAP2 POP POP JUMP JUMPDEST PUSH0 DUP3 SWAP1 POP SWAP3 SWAP2 POP POP JUMP JUMPDEST PUSH32 0x4E487B7100000000000000000000000000000000000000000000000000000000 PUSH0 MSTORE PUSH1 0x41 PUSH1 0x4 MSTORE PUSH1 0x24 PUSH0 REVERT JUMPDEST PUSH0 PUSH1 0x20 PUSH1 0x1F DUP4 ADD DIV SWAP1 POP SWAP2 SWAP1 POP JUMP JUMPDEST PUSH0 DUP3 DUP3 SHL SWAP1 POP SWAP3 SWAP2 POP POP JUMP JUMPDEST PUSH0 PUSH1 0x8 DUP4 MUL PUSH2 0x64D PUSH32 0xFFFFFFFFFFFFFFFFFFFFFFFFFFFFFFFFFFFFFFFFFFFFFFFFFFFFFFFFFFFFFFFF DUP3 PUSH2 0x612 JUMP JUMPDEST PUSH2 0x657 DUP7 DUP4 PUSH2 0x612 JUMP JUMPDEST SWAP6 POP DUP1 NOT DUP5 AND SWAP4 POP DUP1 DUP7 AND DUP5 OR SWAP3 POP POP POP SWAP4 SWAP3 POP POP POP JUMP JUMPDEST PUSH0 DUP2 SWAP1 POP SWAP2 SWAP1 POP JUMP JUMPDEST PUSH0 PUSH2 0x692 PUSH2 0x68D PUSH2 0x688 DUP5 PUSH2 0x2C7 JUMP JUMPDEST PUSH2 0x66F JUMP JUMPDEST PUSH2 0x2C7 JUMP JUMPDEST SWAP1 POP SWAP2 SWAP1 POP JUMP JUMPDEST PUSH0 DUP2 SWAP1 POP SWAP2 SWAP1 POP JUMP JUMPDEST PUSH2 0x6AB DUP4 PUSH2 0x678 JUMP JUMPDEST PUSH2 0x6BF PUSH2 0x6B7 DUP3 PUSH2 0x699 JUMP JUMPDEST DUP5 DUP5 SLOAD PUSH2 0x61E JUMP JUMPDEST DUP3 SSTORE POP POP POP POP JUMP JUMPDEST PUSH0 PUSH0 SWAP1 POP SWAP1 JUMP JUMPDEST PUSH2 0x6D6 PUSH2 0x6C7 JUMP JUMPDEST PUSH2 0x6E1 DUP2 DUP5 DUP5 PUSH2 0x6A2 JUMP JUMPDEST POP POP POP JUMP JUMPDEST JUMPDEST DUP2 DUP2 LT ISZERO PUSH2 0x704 JUMPI PUSH2 0x6F9 PUSH0 DUP3 PUSH2 0x6CE JUMP JUMPDEST PUSH1 0x1 DUP2 ADD SWAP1 POP PUSH2 0x6E7 JUMP JUMPDEST POP POP JUMP JUMPDEST PUSH1 0x1F DUP3 GT ISZERO PUSH2 0x749 JUMPI PUSH2 0x71A DUP2 PUSH2 0x3D6 JUMP JUMPDEST PUSH2 0x723 DUP5 PUSH2 0x603 JUMP JUMPDEST DUP2 ADD PUSH1 0x20 DUP6 LT ISZERO PUSH2 0x732 JUMPI DUP2 SWAP1 POP JUMPDEST PUSH2 0x746 PUSH2 0x73E DUP6 PUSH2 0x603 JUMP JUMPDEST DUP4 ADD DUP3 PUSH2 0x6E6 JUMP JUMPDEST POP POP JUMPDEST POP POP POP JUMP JUMPDEST PUSH0 DUP3 DUP3 SHR SWAP1 POP SWAP3 SWAP2 POP POP JUMP JUMPDEST PUSH0 PUSH2 0x769 PUSH0 NOT DUP5 PUSH1 0x8 MUL PUSH2 0x74E JUMP JUMPDEST NOT DUP1 DUP4 AND SWAP2 POP POP SWAP3 SWAP2 POP POP JUMP JUMPDEST PUSH0 PUSH2 0x781 DUP4 DUP4 PUSH2 0x75A JUMP JUMPDEST SWAP2 POP DUP3 PUSH1 0x2 MUL DUP3 OR SWAP1 POP SWAP3 SWAP2 POP POP JUMP JUMPDEST PUSH2 0x79B DUP4 DUP4 PUSH2 0x5CC JUMP JUMPDEST PUSH8 0xFFFFFFFFFFFFFFFF DUP2 GT ISZERO PUSH2 0x7B4 JUMPI PUSH2 0x7B3 PUSH2 0x5D6 JUMP JUMPDEST JUMPDEST PUSH2 0x7BE DUP3 SLOAD PUSH2 0x3A6 JUMP JUMPDEST PUSH2 0x7C9 DUP3 DUP3 DUP6 PUSH2 0x708 JUMP JUMPDEST PUSH0 PUSH1 0x1F DUP4 GT PUSH1 0x1 DUP2 EQ PUSH2 0x7F6 JUMPI PUSH0 DUP5 ISZERO PUSH2 0x7E4 JUMPI DUP3 DUP8 ADD CALLDATALOAD SWAP1 POP JUMPDEST PUSH2 0x7EE DUP6 DUP3 PUSH2 0x776 JUMP JUMPDEST DUP7 SSTORE POP PUSH2 0x855 JUMP JUMPDEST PUSH1 0x1F NOT DUP5 AND PUSH2 0x804 DUP7 PUSH2 0x3D6 JUMP JUMPDEST PUSH0 JUMPDEST DUP3 DUP2 LT ISZERO PUSH2 0x82B JUMPI DUP5 DUP10 ADD CALLDATALOAD DUP3 SSTORE PUSH1 0x1 DUP3 ADD SWAP2 POP PUSH1 0x20 DUP6 ADD SWAP5 POP PUSH1 0x20 DUP2 ADD SWAP1 POP PUSH2 0x806 JUMP JUMPDEST DUP7 DUP4 LT ISZERO PUSH2 0x848 JUMPI DUP5 DUP10 ADD CALLDATALOAD PUSH2 0x844 PUSH1 0x1F DUP10 AND DUP3 PUSH2 0x75A JUMP JUMPDEST DUP4 SSTORE POP JUMPDEST PUSH1 0x1 PUSH1 0x2 DUP9 MUL ADD DUP9 SSTORE POP POP POP JUMPDEST POP POP POP POP POP POP POP JUMP INVALID LOG2 PUSH5 0x6970667358 0x22 SLT KECCAK256 DUP12 XOR 0x24 0xBE CALLF 0xD600 0xDC BLOCKHASH DUP4 CALLDATALOAD SDIV 0xDE 0x2B DUP7 0xC1 STOP 0xCF ORIGIN 0x22 TLOAD SAR PUSH27 0x345FF1C8AF30D8DC9B64736F6C634300081F003300000000000000 "
				},
				"gasEstimates": {
					"creation": {
						"codeDepositCost": "439200",
						"executionCost": "472",
						"totalCost": "439672"
					},
					"external": {
						"getVotes(string)": "infinite",
						"resetVotes()": "infinite",
						"vote(string)": "infinite"
					}
				},
				"methodIdentifiers": {
					"getVotes(string)": "805265e5",
					"resetVotes()": "b9830ff1",
					"vote(string)": "fc36e15b"
				}
			},
			"storageLayout": {
				"storage": [
					{
						"astId": 5,
						"contract": "homework.sol:Voting",
						"label": "candidateVotes",
						"offset": 0,
						"slot": "0",
						"type": "t_mapping(t_string_memory_ptr,t_uint256)"
					},
					{
						"astId": 8,
						"contract": "homework.sol:Voting",
						"label": "candidates",
						"offset": 0,
						"slot": "1",
						"type": "t_array(t_string_storage)dyn_storage"
					}
				],
				"types": {
					"t_array(t_string_storage)dyn_storage": {
						"base": "t_string_storage",
						"encoding": "dynamic_array",
						"label": "string[]",
						"numberOfBytes": "32"
					},
					"t_mapping(t_string_memory_ptr,t_uint256)": {
						"encoding": "mapping",
						"key": "t_string_memory_ptr",
						"label": "mapping(string => uint256)",
						"numberOfBytes": "32",
						"value": "t_uint256"
					},
					"t_string_memory_ptr": {
						"encoding": "bytes",
						"label": "string",
						"numberOfBytes": "32"
					},
					"t_string_storage": {
						"encoding": "bytes",
						"label": "string",
						"numberOfBytes": "32"
					},
					"t_uint256": {
						"encoding": "inplace",
						"label": "uint256",
						"numberOfBytes": "32"
					}
				}
			},
			"userdoc": {
				"kind": "user",
				"methods": {},
				"version": 1
			}
		}
	}
}