{
	"otherfuncs.sol": {
		"OhterFuncs": {
			"abi": [
				{
					"inputs": [
						{
							"internalType": "int256[]",
							"name": "arr",
							"type": "int256[]"
						},
						{
							"internalType": "int256",
							"name": "target",
							"type": "int256"
						}
					],
					"name": "binarySearch",
					"outputs": [
						{
							"internalType": "int256",
							"name": "",
							"type": "int256"
						}
					],
					"stateMutability": "pure",
					"type": "function"
				},
				{
					"inputs": [
						{
							"internalType": "uint256",
							"name": "num",
							"type": "uint256"
						}
					],
					"name": "intToRoman",
					"outputs": [
						{
							"internalType": "string",
							"name": "",
							"type": "string"
						}
					],
					"stateMutability": "pure",
					"type": "function"
				},
				{
					"inputs": [
						{
							"internalType": "int256[]",
							"name": "arr1",
							"type": "int256[]"
						},
						{
							"internalType": "int256[]",
							"name": "arr2",
							"type": "int256[]"
						}
					],
					"name": "mergeSortedArrays",
					"outputs": [
						{
							"internalType": "int256[]",
							"name": "",
							"type": "int256[]"
						}
					],
					"stateMutability": "pure",
					"type": "function"
				},
				{
					"inputs": [
						{
							"internalType": "string",
							"name": "roman",
							"type": "string"
						}
					],
					"name": "remanToInt",
					"outputs": [
						{
							"internalType": "int256",
							"name": "",
							"type": "int256"
						}
					],
					"stateMutability": "pure",
					"type": "function"
				},
				{
					"inputs": [
						{
							"internalType": "string",
							"name": "_input",
							"type": "string"
						}
					],
					"name": "reverseString",
					"outputs": [
						{
							"internalType": "string",
							"name": "res",
							"type": "string"
						}
					],
					"stateMutability": "pure",
					"type": "function"
				}
			],
			"devdoc": {
				"kind": "dev",
				"methods": {
					"binarySearch(int256[],int256)": {
						"details": "Performs binary search on a sorted array",
						"params": {
							"arr": "The sorted array to search",
							"target": "The value to search for"
						},
						"returns": {
							"_0": "The index of the target if found, -1 otherwise"
						}
					}
				},
				"version": 1
			},
			"evm": {
				"assembly": "    /* \"otherfuncs.sol\":58:4262  contract OhterFuncs {... */\n  mstore(0x40, 0x80)\n  callvalue\n  dup1\n  iszero\n  tag_1\n  jumpi\n  revert(0x00, 0x00)\ntag_1:\n  pop\n  dataSize(sub_0)\n  dup1\n  dataOffset(sub_0)\n  0x00\n  codecopy\n  0x00\n  return\nstop\n\nsub_0: assembly {\n        /* \"otherfuncs.sol\":58:4262  contract OhterFuncs {... */\n      mstore(0x40, 0x80)\n      callvalue\n      dup1\n      iszero\n      tag_1\n      jumpi\n      revert(0x00, 0x00)\n    tag_1:\n      pop\n      jumpi(tag_2, lt(calldatasize, 0x04))\n      shr(0xe0, calldataload(0x00))\n      dup1\n      0x0cbc513a\n      eq\n      tag_3\n      jumpi\n      dup1\n      0x5729c211\n      eq\n      tag_4\n      jumpi\n      dup1\n      0x7591f01f\n      eq\n      tag_5\n      jumpi\n      dup1\n      0xbaa97199\n      eq\n      tag_6\n      jumpi\n      dup1\n      0xf4353706\n      eq\n      tag_7\n      jumpi\n    tag_2:\n      revert(0x00, 0x00)\n        /* \"otherfuncs.sol\":1400:2477  function intToRoman(uint256 num) public pure returns (string memory) {... */\n    tag_3:\n      tag_8\n      0x04\n      dup1\n      calldatasize\n      sub\n      dup2\n      add\n      swap1\n      tag_9\n      swap2\n      swap1\n      tag_10\n      jump\t// in\n    tag_9:\n      tag_11\n      jump\t// in\n    tag_8:\n      mload(0x40)\n      tag_12\n      swap2\n      swap1\n      tag_13\n      jump\t// in\n    tag_12:\n      mload(0x40)\n      dup1\n      swap2\n      sub\n      swap1\n      return\n        /* \"otherfuncs.sol\":84:459  function reverseString(... */\n    tag_4:\n      tag_14\n      0x04\n      dup1\n      calldatasize\n      sub\n      dup2\n      add\n      swap1\n      tag_15\n      swap2\n      swap1\n      tag_16\n      jump\t// in\n    tag_15:\n      tag_17\n      jump\t// in\n    tag_14:\n      mload(0x40)\n      tag_18\n      swap2\n      swap1\n      tag_13\n      jump\t// in\n    tag_18:\n      mload(0x40)\n      dup1\n      swap2\n      sub\n      swap1\n      return\n        /* \"otherfuncs.sol\":2483:3473  function mergeSortedArrays(int[] memory arr1, int[] memory arr2) public pure returns (int[] memory) {... */\n    tag_5:\n      tag_19\n      0x04\n      dup1\n      calldatasize\n      sub\n      dup2\n      add\n      swap1\n      tag_20\n      swap2\n      swap1\n      tag_21\n      jump\t// in\n    tag_20:\n      tag_22\n      jump\t// in\n    tag_19:\n      mload(0x40)\n      tag_23\n      swap2\n      swap1\n      tag_24\n      jump\t// in\n    tag_23:\n      mload(0x40)\n      dup1\n      swap2\n      sub\n      swap1\n      return\n        /* \"otherfuncs.sol\":465:967  function remanToInt(string memory roman) public pure returns (int) {... */\n    tag_6:\n      tag_25\n      0x04\n      dup1\n      calldatasize\n      sub\n      dup2\n      add\n      swap1\n      tag_26\n      swap2\n      swap1\n      tag_16\n      jump\t// in\n    tag_26:\n      tag_27\n      jump\t// in\n    tag_25:\n      mload(0x40)\n      tag_28\n      swap2\n      swap1\n      tag_29\n      jump\t// in\n    tag_28:\n      mload(0x40)\n      dup1\n      swap2\n      sub\n      swap1\n      return\n        /* \"otherfuncs.sol\":3700:4260  function binarySearch(int[] memory arr, int target) public pure returns (int) {... */\n    tag_7:\n      tag_30\n      0x04\n      dup1\n      calldatasize\n      sub\n      dup2\n      add\n      swap1\n      tag_31\n      swap2\n      swap1\n      tag_32\n      jump\t// in\n    tag_31:\n      tag_33\n      jump\t// in\n    tag_30:\n      mload(0x40)\n      tag_34\n      swap2\n      swap1\n      tag_29\n      jump\t// in\n    tag_34:\n      mload(0x40)\n      dup1\n      swap2\n      sub\n      swap1\n      return\n        /* \"otherfuncs.sol\":1400:2477  function intToRoman(uint256 num) public pure returns (string memory) {... */\n    tag_11:\n        /* \"otherfuncs.sol\":1454:1467  string memory */\n      0x60\n        /* \"otherfuncs.sol\":1493:1494  0 */\n      0x00\n        /* \"otherfuncs.sol\":1487:1490  num */\n      dup3\n        /* \"otherfuncs.sol\":1487:1494  num > 0 */\n      gt\n        /* \"otherfuncs.sol\":1487:1509  num > 0 && num <= 3999 */\n      dup1\n      iszero\n      tag_36\n      jumpi\n      pop\n        /* \"otherfuncs.sol\":1505:1509  3999 */\n      0x0f9f\n        /* \"otherfuncs.sol\":1498:1501  num */\n      dup3\n        /* \"otherfuncs.sol\":1498:1509  num <= 3999 */\n      gt\n      iszero\n        /* \"otherfuncs.sol\":1487:1509  num > 0 && num <= 3999 */\n    tag_36:\n        /* \"otherfuncs.sol\":1479:1547  require(num > 0 && num <= 3999, \"Number must be between 1 and 3999\") */\n      tag_37\n      jumpi\n      mload(0x40)\n      0x08c379a000000000000000000000000000000000000000000000000000000000\n      dup2\n      mstore\n      0x04\n      add\n      tag_38\n      swap1\n      tag_39\n      jump\t// in\n    tag_38:\n      mload(0x40)\n      dup1\n      swap2\n      sub\n      swap1\n      revert\n    tag_37:\n        /* \"otherfuncs.sol\":1558:1583  string[13] memory symbols */\n      0x00\n        /* \"otherfuncs.sol\":1558:1823  string[13] memory symbols = [... */\n      mload(0x40)\n      dup1\n      0x01a0\n      add\n      0x40\n      mstore\n      dup1\n      mload(0x40)\n      dup1\n      0x40\n      add\n      0x40\n      mstore\n      dup1\n      0x01\n      dup2\n      mstore\n      0x20\n      add\n      0x4d00000000000000000000000000000000000000000000000000000000000000\n      dup2\n      mstore\n      pop\n      dup2\n      mstore\n      0x20\n      add\n      mload(0x40)\n      dup1\n      0x40\n      add\n      0x40\n      mstore\n      dup1\n      0x02\n      dup2\n      mstore\n      0x20\n      add\n      0x434d000000000000000000000000000000000000000000000000000000000000\n      dup2\n      mstore\n      pop\n      dup2\n      mstore\n      0x20\n      add\n      mload(0x40)\n      dup1\n      0x40\n      add\n      0x40\n      mstore\n      dup1\n      0x01\n      dup2\n      mstore\n      0x20\n      add\n      0x4400000000000000000000000000000000000000000000000000000000000000\n      dup2\n      mstore\n      pop\n      dup2\n      mstore\n      0x20\n      add\n      mload(0x40)\n      dup1\n      0x40\n      add\n      0x40\n      mstore\n      dup1\n      0x02\n      dup2\n      mstore\n      0x20\n      add\n      0x4344000000000000000000000000000000000000000000000000000000000000\n      dup2\n      mstore\n      pop\n      dup2\n      mstore\n      0x20\n      add\n      mload(0x40)\n      dup1\n      0x40\n      add\n      0x40\n      mstore\n      dup1\n      0x01\n      dup2\n      mstore\n      0x20\n      add\n      0x4300000000000000000000000000000000000000000000000000000000000000\n      dup2\n      mstore\n      pop\n      dup2\n      mstore\n      0x20\n      add\n      mload(0x40)\n      dup1\n      0x40\n      add\n      0x40\n      mstore\n      dup1\n      0x02\n      dup2\n      mstore\n      0x20\n      add\n      0x5843000000000000000000000000000000000000000000000000000000000000\n      dup2\n      mstore\n      pop\n      dup2\n      mstore\n      0x20\n      add\n      mload(0x40)\n      dup1\n      0x40\n      add\n      0x40\n      mstore\n      dup1\n      0x01\n      dup2\n      mstore\n      0x20\n      add\n      0x4c00000000000000000000000000000000000000000000000000000000000000\n      dup2\n      mstore\n      pop\n      dup2\n      mstore\n      0x20\n      add\n      mload(0x40)\n      dup1\n      0x40\n      add\n      0x40\n      mstore\n      dup1\n      0x02\n      dup2\n      mstore\n      0x20\n      add\n      0x584c000000000000000000000000000000000000000000000000000000000000\n      dup2\n      mstore\n      pop\n      dup2\n      mstore\n      0x20\n      add\n      mload(0x40)\n      dup1\n      0x40\n      add\n      0x40\n      mstore\n      dup1\n      0x01\n      dup2\n      mstore\n      0x20\n      add\n      0x5800000000000000000000000000000000000000000000000000000000000000\n      dup2\n      mstore\n      pop\n      dup2\n      mstore\n      0x20\n      add\n      mload(0x40)\n      dup1\n      0x40\n      add\n      0x40\n      mstore\n      dup1\n      0x02\n      dup2\n      mstore\n      0x20\n      add\n      0x4958000000000000000000000000000000000000000000000000000000000000\n      dup2\n      mstore\n      pop\n      dup2\n      mstore\n      0x20\n      add\n      mload(0x40)\n      dup1\n      0x40\n      add\n      0x40\n      mstore\n      dup1\n      0x01\n      dup2\n      mstore\n      0x20\n      add\n      0x5600000000000000000000000000000000000000000000000000000000000000\n      dup2\n      mstore\n      pop\n      dup2\n      mstore\n      0x20\n      add\n      mload(0x40)\n      dup1\n      0x40\n      add\n      0x40\n      mstore\n      dup1\n      0x02\n      dup2\n      mstore\n      0x20\n      add\n      0x4956000000000000000000000000000000000000000000000000000000000000\n      dup2\n      mstore\n      pop\n      dup2\n      mstore\n      0x20\n      add\n      mload(0x40)\n      dup1\n      0x40\n      add\n      0x40\n      mstore\n      dup1\n      0x01\n      dup2\n      mstore\n      0x20\n      add\n      0x4900000000000000000000000000000000000000000000000000000000000000\n      dup2\n      mstore\n      pop\n      dup2\n      mstore\n      pop\n      swap1\n      pop\n        /* \"otherfuncs.sol\":1833:1858  uint256[13] memory values */\n      0x00\n        /* \"otherfuncs.sol\":1833:2198  uint256[13] memory values = [... */\n      mload(0x40)\n      dup1\n      0x01a0\n      add\n      0x40\n      mstore\n      dup1\n        /* \"otherfuncs.sol\":1883:1887  1000 */\n      0x03e8\n        /* \"otherfuncs.sol\":1833:2198  uint256[13] memory values = [... */\n      dup2\n      mstore\n      0x20\n      add\n        /* \"otherfuncs.sol\":1910:1913  900 */\n      0x0384\n        /* \"otherfuncs.sol\":1833:2198  uint256[13] memory values = [... */\n      dup2\n      mstore\n      0x20\n      add\n        /* \"otherfuncs.sol\":1936:1939  500 */\n      0x01f4\n        /* \"otherfuncs.sol\":1833:2198  uint256[13] memory values = [... */\n      dup2\n      mstore\n      0x20\n      add\n        /* \"otherfuncs.sol\":1962:1965  400 */\n      0x0190\n        /* \"otherfuncs.sol\":1833:2198  uint256[13] memory values = [... */\n      dup2\n      mstore\n      0x20\n      add\n        /* \"otherfuncs.sol\":1988:1991  100 */\n      0x64\n        /* \"otherfuncs.sol\":1833:2198  uint256[13] memory values = [... */\n      dup2\n      mstore\n      0x20\n      add\n        /* \"otherfuncs.sol\":2014:2016  90 */\n      0x5a\n        /* \"otherfuncs.sol\":1833:2198  uint256[13] memory values = [... */\n      dup2\n      mstore\n      0x20\n      add\n        /* \"otherfuncs.sol\":2039:2041  50 */\n      0x32\n        /* \"otherfuncs.sol\":1833:2198  uint256[13] memory values = [... */\n      dup2\n      mstore\n      0x20\n      add\n        /* \"otherfuncs.sol\":2064:2066  40 */\n      0x28\n        /* \"otherfuncs.sol\":1833:2198  uint256[13] memory values = [... */\n      dup2\n      mstore\n      0x20\n      add\n        /* \"otherfuncs.sol\":2089:2091  10 */\n      0x0a\n        /* \"otherfuncs.sol\":1833:2198  uint256[13] memory values = [... */\n      dup2\n      mstore\n      0x20\n      add\n        /* \"otherfuncs.sol\":2114:2115  9 */\n      0x09\n        /* \"otherfuncs.sol\":1833:2198  uint256[13] memory values = [... */\n      dup2\n      mstore\n      0x20\n      add\n        /* \"otherfuncs.sol\":2138:2139  5 */\n      0x05\n        /* \"otherfuncs.sol\":1833:2198  uint256[13] memory values = [... */\n      dup2\n      mstore\n      0x20\n      add\n        /* \"otherfuncs.sol\":2162:2163  4 */\n      0x04\n        /* \"otherfuncs.sol\":1833:2198  uint256[13] memory values = [... */\n      dup2\n      mstore\n      0x20\n      add\n        /* \"otherfuncs.sol\":2186:2187  1 */\n      0x01\n        /* \"otherfuncs.sol\":1833:2198  uint256[13] memory values = [... */\n      dup2\n      mstore\n      pop\n      swap1\n      pop\n        /* \"otherfuncs.sol\":2209:2229  string memory result */\n      0x00\n        /* \"otherfuncs.sol\":2209:2234  string memory result = \"\" */\n      mload(0x40)\n      dup1\n      0x20\n      add\n      0x40\n      mstore\n      dup1\n      0x00\n      dup2\n      mstore\n      pop\n      swap1\n      pop\n        /* \"otherfuncs.sol\":2250:2259  uint256 i */\n      0x00\n        /* \"otherfuncs.sol\":2262:2263  0 */\n      0x00\n        /* \"otherfuncs.sol\":2250:2263  uint256 i = 0 */\n      swap1\n      pop\n        /* \"otherfuncs.sol\":2245:2447  for (uint256 i = 0; i < 13; i++) {... */\n    tag_40:\n        /* \"otherfuncs.sol\":2269:2271  13 */\n      0x0d\n        /* \"otherfuncs.sol\":2265:2266  i */\n      dup2\n        /* \"otherfuncs.sol\":2265:2271  i < 13 */\n      lt\n        /* \"otherfuncs.sol\":2245:2447  for (uint256 i = 0; i < 13; i++) {... */\n      iszero\n      tag_41\n      jumpi\n        /* \"otherfuncs.sol\":2292:2437  while (num >= values[i]) {... */\n    tag_43:\n        /* \"otherfuncs.sol\":2306:2312  values */\n      dup3\n        /* \"otherfuncs.sol\":2313:2314  i */\n      dup2\n        /* \"otherfuncs.sol\":2306:2315  values[i] */\n      0x0d\n      dup2\n      lt\n      tag_45\n      jumpi\n      tag_46\n      tag_47\n      jump\t// in\n    tag_46:\n    tag_45:\n      0x20\n      mul\n      add\n      mload\n        /* \"otherfuncs.sol\":2299:2302  num */\n      dup7\n        /* \"otherfuncs.sol\":2299:2315  num >= values[i] */\n      lt\n        /* \"otherfuncs.sol\":2292:2437  while (num >= values[i]) {... */\n      tag_44\n      jumpi\n        /* \"otherfuncs.sol\":2368:2374  result */\n      dup2\n        /* \"otherfuncs.sol\":2376:2383  symbols */\n      dup5\n        /* \"otherfuncs.sol\":2384:2385  i */\n      dup3\n        /* \"otherfuncs.sol\":2376:2386  symbols[i] */\n      0x0d\n      dup2\n      lt\n      tag_48\n      jumpi\n      tag_49\n      tag_47\n      jump\t// in\n    tag_49:\n    tag_48:\n      0x20\n      mul\n      add\n      mload\n        /* \"otherfuncs.sol\":2351:2387  abi.encodePacked(result, symbols[i]) */\n      add(0x20, mload(0x40))\n      tag_50\n      swap3\n      swap2\n      swap1\n      tag_51\n      jump\t// in\n    tag_50:\n      mload(0x40)\n      0x20\n      dup2\n      dup4\n      sub\n      sub\n      dup2\n      mstore\n      swap1\n      0x40\n      mstore\n        /* \"otherfuncs.sol\":2335:2388  result = string(abi.encodePacked(result, symbols[i])) */\n      swap2\n      pop\n        /* \"otherfuncs.sol\":2413:2419  values */\n      dup3\n        /* \"otherfuncs.sol\":2420:2421  i */\n      dup2\n        /* \"otherfuncs.sol\":2413:2422  values[i] */\n      0x0d\n      dup2\n      lt\n      tag_52\n      jumpi\n      tag_53\n      tag_47\n      jump\t// in\n    tag_53:\n    tag_52:\n      0x20\n      mul\n      add\n      mload\n        /* \"otherfuncs.sol\":2406:2422  num -= values[i] */\n      dup7\n      tag_54\n      swap2\n      swap1\n      tag_55\n      jump\t// in\n    tag_54:\n      swap6\n      pop\n        /* \"otherfuncs.sol\":2292:2437  while (num >= values[i]) {... */\n      jump(tag_43)\n    tag_44:\n        /* \"otherfuncs.sol\":2273:2276  i++ */\n      dup1\n      dup1\n      0x01\n      add\n      swap2\n      pop\n      pop\n        /* \"otherfuncs.sol\":2245:2447  for (uint256 i = 0; i < 13; i++) {... */\n      jump(tag_40)\n    tag_41:\n      pop\n        /* \"otherfuncs.sol\":2464:2470  result */\n      dup1\n        /* \"otherfuncs.sol\":2457:2470  return result */\n      swap4\n      pop\n      pop\n      pop\n      pop\n        /* \"otherfuncs.sol\":1400:2477  function intToRoman(uint256 num) public pure returns (string memory) {... */\n      swap2\n      swap1\n      pop\n      jump\t// out\n        /* \"otherfuncs.sol\":84:459  function reverseString(... */\n    tag_17:\n        /* \"otherfuncs.sol\":164:181  string memory res */\n      0x60\n        /* \"otherfuncs.sol\":193:210  bytes memory temp */\n      0x00\n        /* \"otherfuncs.sol\":219:225  _input */\n      dup3\n        /* \"otherfuncs.sol\":193:226  bytes memory temp = bytes(_input) */\n      swap1\n      pop\n        /* \"otherfuncs.sol\":241:247  uint i */\n      0x00\n        /* \"otherfuncs.sol\":250:251  0 */\n      0x00\n        /* \"otherfuncs.sol\":241:251  uint i = 0 */\n      swap1\n      pop\n        /* \"otherfuncs.sol\":236:425  for (uint i = 0; i < temp.length / 2; i++) {... */\n    tag_57:\n        /* \"otherfuncs.sol\":271:272  2 */\n      0x02\n        /* \"otherfuncs.sol\":257:261  temp */\n      dup3\n        /* \"otherfuncs.sol\":257:268  temp.length */\n      mload\n        /* \"otherfuncs.sol\":257:272  temp.length / 2 */\n      tag_60\n      swap2\n      swap1\n      tag_61\n      jump\t// in\n    tag_60:\n        /* \"otherfuncs.sol\":253:254  i */\n      dup2\n        /* \"otherfuncs.sol\":253:272  i < temp.length / 2 */\n      lt\n        /* \"otherfuncs.sol\":236:425  for (uint i = 0; i < temp.length / 2; i++) {... */\n      iszero\n      tag_58\n      jumpi\n        /* \"otherfuncs.sol\":350:354  temp */\n      dup2\n        /* \"otherfuncs.sol\":373:374  1 */\n      0x01\n        /* \"otherfuncs.sol\":369:370  i */\n      dup3\n        /* \"otherfuncs.sol\":355:359  temp */\n      dup5\n        /* \"otherfuncs.sol\":355:366  temp.length */\n      mload\n        /* \"otherfuncs.sol\":355:370  temp.length - i */\n      tag_62\n      swap2\n      swap1\n      tag_55\n      jump\t// in\n    tag_62:\n        /* \"otherfuncs.sol\":355:374  temp.length - i - 1 */\n      tag_63\n      swap2\n      swap1\n      tag_55\n      jump\t// in\n    tag_63:\n        /* \"otherfuncs.sol\":350:375  temp[temp.length - i - 1] */\n      dup2\n      mload\n      dup2\n      lt\n      tag_64\n      jumpi\n      tag_65\n      tag_47\n      jump\t// in\n    tag_65:\n    tag_64:\n      0x20\n      add\n      add\n      mload\n      0xf8\n      shr\n      0xf8\n      shl\n        /* \"otherfuncs.sol\":393:397  temp */\n      dup3\n        /* \"otherfuncs.sol\":398:399  i */\n      dup3\n        /* \"otherfuncs.sol\":393:400  temp[i] */\n      dup2\n      mload\n      dup2\n      lt\n      tag_66\n      jumpi\n      tag_67\n      tag_47\n      jump\t// in\n    tag_67:\n    tag_66:\n      0x20\n      add\n      add\n      mload\n      0xf8\n      shr\n      0xf8\n      shl\n        /* \"otherfuncs.sol\":294:298  temp */\n      dup4\n        /* \"otherfuncs.sol\":299:300  i */\n      dup4\n        /* \"otherfuncs.sol\":294:301  temp[i] */\n      dup2\n      mload\n      dup2\n      lt\n      tag_68\n      jumpi\n      tag_69\n      tag_47\n      jump\t// in\n    tag_69:\n    tag_68:\n      0x20\n      add\n      add\n        /* \"otherfuncs.sol\":303:307  temp */\n      dup5\n        /* \"otherfuncs.sol\":326:327  1 */\n      0x01\n        /* \"otherfuncs.sol\":322:323  i */\n      dup6\n        /* \"otherfuncs.sol\":308:312  temp */\n      dup8\n        /* \"otherfuncs.sol\":308:319  temp.length */\n      mload\n        /* \"otherfuncs.sol\":308:323  temp.length - i */\n      tag_70\n      swap2\n      swap1\n      tag_55\n      jump\t// in\n    tag_70:\n        /* \"otherfuncs.sol\":308:327  temp.length - i - 1 */\n      tag_71\n      swap2\n      swap1\n      tag_55\n      jump\t// in\n    tag_71:\n        /* \"otherfuncs.sol\":303:328  temp[temp.length - i - 1] */\n      dup2\n      mload\n      dup2\n      lt\n      tag_72\n      jumpi\n      tag_73\n      tag_47\n      jump\t// in\n    tag_73:\n    tag_72:\n      0x20\n      add\n      add\n        /* \"otherfuncs.sol\":293:414  (temp[i], temp[temp.length - i - 1]) = (... */\n      dup3\n      not(0xffffffffffffffffffffffffffffffffffffffffffffffffffffffffffffff)\n      and\n      0x00\n      byte\n      swap1\n      mstore8\n      dup3\n      not(0xffffffffffffffffffffffffffffffffffffffffffffffffffffffffffffff)\n      and\n      0x00\n      byte\n      swap1\n      mstore8\n      pop\n      pop\n        /* \"otherfuncs.sol\":274:277  i++ */\n      dup1\n      dup1\n      0x01\n      add\n      swap2\n      pop\n      pop\n        /* \"otherfuncs.sol\":236:425  for (uint i = 0; i < temp.length / 2; i++) {... */\n      jump(tag_57)\n    tag_58:\n      pop\n        /* \"otherfuncs.sol\":447:451  temp */\n      dup1\n        /* \"otherfuncs.sol\":434:452  res = string(temp) */\n      swap2\n      pop\n        /* \"otherfuncs.sol\":183:459  {... */\n      pop\n        /* \"otherfuncs.sol\":84:459  function reverseString(... */\n      swap2\n      swap1\n      pop\n      jump\t// out\n        /* \"otherfuncs.sol\":2483:3473  function mergeSortedArrays(int[] memory arr1, int[] memory arr2) public pure returns (int[] memory) {... */\n    tag_22:\n        /* \"otherfuncs.sol\":2569:2581  int[] memory */\n      0x60\n        /* \"otherfuncs.sol\":2593:2602  uint len1 */\n      0x00\n        /* \"otherfuncs.sol\":2605:2609  arr1 */\n      dup4\n        /* \"otherfuncs.sol\":2605:2616  arr1.length */\n      mload\n        /* \"otherfuncs.sol\":2593:2616  uint len1 = arr1.length */\n      swap1\n      pop\n        /* \"otherfuncs.sol\":2626:2635  uint len2 */\n      0x00\n        /* \"otherfuncs.sol\":2638:2642  arr2 */\n      dup4\n        /* \"otherfuncs.sol\":2638:2649  arr2.length */\n      mload\n        /* \"otherfuncs.sol\":2626:2649  uint len2 = arr2.length */\n      swap1\n      pop\n        /* \"otherfuncs.sol\":2659:2675  uint totalLength */\n      0x00\n        /* \"otherfuncs.sol\":2685:2689  len2 */\n      dup2\n        /* \"otherfuncs.sol\":2678:2682  len1 */\n      dup4\n        /* \"otherfuncs.sol\":2678:2689  len1 + len2 */\n      tag_75\n      swap2\n      swap1\n      tag_76\n      jump\t// in\n    tag_75:\n        /* \"otherfuncs.sol\":2659:2689  uint totalLength = len1 + len2 */\n      swap1\n      pop\n        /* \"otherfuncs.sol\":2700:2719  int[] memory merged */\n      0x00\n        /* \"otherfuncs.sol\":2732:2743  totalLength */\n      dup2\n        /* \"otherfuncs.sol\":2722:2744  new int[](totalLength) */\n      0xffffffffffffffff\n      dup2\n      gt\n      iszero\n      tag_77\n      jumpi\n      tag_78\n      tag_79\n      jump\t// in\n    tag_78:\n    tag_77:\n      mload(0x40)\n      swap1\n      dup1\n      dup3\n      mstore\n      dup1\n      0x20\n      mul\n      0x20\n      add\n      dup3\n      add\n      0x40\n      mstore\n      dup1\n      iszero\n      tag_80\n      jumpi\n      dup2\n      0x20\n      add\n      0x20\n      dup3\n      mul\n      dup1\n      calldatasize\n      dup4\n      calldatacopy\n      dup1\n      dup3\n      add\n      swap2\n      pop\n      pop\n      swap1\n      pop\n    tag_80:\n      pop\n        /* \"otherfuncs.sol\":2700:2744  int[] memory merged = new int[](totalLength) */\n      swap1\n      pop\n        /* \"otherfuncs.sol\":2754:2760  uint i */\n      0x00\n        /* \"otherfuncs.sol\":2763:2764  0 */\n      0x00\n        /* \"otherfuncs.sol\":2754:2764  uint i = 0 */\n      swap1\n      pop\n        /* \"otherfuncs.sol\":2794:2800  uint j */\n      0x00\n        /* \"otherfuncs.sol\":2803:2804  0 */\n      0x00\n        /* \"otherfuncs.sol\":2794:2804  uint j = 0 */\n      swap1\n      pop\n        /* \"otherfuncs.sol\":2834:2840  uint k */\n      0x00\n        /* \"otherfuncs.sol\":2843:2844  0 */\n      0x00\n        /* \"otherfuncs.sol\":2834:2844  uint k = 0 */\n      swap1\n      pop\n        /* \"otherfuncs.sol\":2883:3129  while (i < len1 && j < len2) {... */\n    tag_81:\n        /* \"otherfuncs.sol\":2894:2898  len1 */\n      dup7\n        /* \"otherfuncs.sol\":2890:2891  i */\n      dup4\n        /* \"otherfuncs.sol\":2890:2898  i < len1 */\n      lt\n        /* \"otherfuncs.sol\":2890:2910  i < len1 && j < len2 */\n      dup1\n      iszero\n      tag_83\n      jumpi\n      pop\n        /* \"otherfuncs.sol\":2906:2910  len2 */\n      dup6\n        /* \"otherfuncs.sol\":2902:2903  j */\n      dup3\n        /* \"otherfuncs.sol\":2902:2910  j < len2 */\n      lt\n        /* \"otherfuncs.sol\":2890:2910  i < len1 && j < len2 */\n    tag_83:\n        /* \"otherfuncs.sol\":2883:3129  while (i < len1 && j < len2) {... */\n      iszero\n      tag_82\n      jumpi\n        /* \"otherfuncs.sol\":2941:2945  arr2 */\n      dup9\n        /* \"otherfuncs.sol\":2946:2947  j */\n      dup3\n        /* \"otherfuncs.sol\":2941:2948  arr2[j] */\n      dup2\n      mload\n      dup2\n      lt\n      tag_84\n      jumpi\n      tag_85\n      tag_47\n      jump\t// in\n    tag_85:\n    tag_84:\n      0x20\n      mul\n      0x20\n      add\n      add\n      mload\n        /* \"otherfuncs.sol\":2930:2934  arr1 */\n      dup11\n        /* \"otherfuncs.sol\":2935:2936  i */\n      dup5\n        /* \"otherfuncs.sol\":2930:2937  arr1[i] */\n      dup2\n      mload\n      dup2\n      lt\n      tag_86\n      jumpi\n      tag_87\n      tag_47\n      jump\t// in\n    tag_87:\n    tag_86:\n      0x20\n      mul\n      0x20\n      add\n      add\n      mload\n        /* \"otherfuncs.sol\":2930:2948  arr1[i] <= arr2[j] */\n      sgt\n        /* \"otherfuncs.sol\":2926:3102  if (arr1[i] <= arr2[j]) {... */\n      tag_88\n      jumpi\n        /* \"otherfuncs.sol\":2980:2984  arr1 */\n      dup10\n        /* \"otherfuncs.sol\":2985:2986  i */\n      dup4\n        /* \"otherfuncs.sol\":2980:2987  arr1[i] */\n      dup2\n      mload\n      dup2\n      lt\n      tag_89\n      jumpi\n      tag_90\n      tag_47\n      jump\t// in\n    tag_90:\n    tag_89:\n      0x20\n      mul\n      0x20\n      add\n      add\n      mload\n        /* \"otherfuncs.sol\":2968:2974  merged */\n      dup5\n        /* \"otherfuncs.sol\":2975:2976  k */\n      dup3\n        /* \"otherfuncs.sol\":2968:2977  merged[k] */\n      dup2\n      mload\n      dup2\n      lt\n      tag_91\n      jumpi\n      tag_92\n      tag_47\n      jump\t// in\n    tag_92:\n    tag_91:\n      0x20\n      mul\n      0x20\n      add\n      add\n        /* \"otherfuncs.sol\":2968:2987  merged[k] = arr1[i] */\n      dup2\n      dup2\n      mstore\n      pop\n      pop\n        /* \"otherfuncs.sol\":3005:3008  i++ */\n      dup3\n      dup1\n      tag_93\n      swap1\n      tag_94\n      jump\t// in\n    tag_93:\n      swap4\n      pop\n      pop\n        /* \"otherfuncs.sol\":2926:3102  if (arr1[i] <= arr2[j]) {... */\n      jump(tag_95)\n    tag_88:\n        /* \"otherfuncs.sol\":3059:3063  arr2 */\n      dup9\n        /* \"otherfuncs.sol\":3064:3065  j */\n      dup3\n        /* \"otherfuncs.sol\":3059:3066  arr2[j] */\n      dup2\n      mload\n      dup2\n      lt\n      tag_96\n      jumpi\n      tag_97\n      tag_47\n      jump\t// in\n    tag_97:\n    tag_96:\n      0x20\n      mul\n      0x20\n      add\n      add\n      mload\n        /* \"otherfuncs.sol\":3047:3053  merged */\n      dup5\n        /* \"otherfuncs.sol\":3054:3055  k */\n      dup3\n        /* \"otherfuncs.sol\":3047:3056  merged[k] */\n      dup2\n      mload\n      dup2\n      lt\n      tag_98\n      jumpi\n      tag_99\n      tag_47\n      jump\t// in\n    tag_99:\n    tag_98:\n      0x20\n      mul\n      0x20\n      add\n      add\n        /* \"otherfuncs.sol\":3047:3066  merged[k] = arr2[j] */\n      dup2\n      dup2\n      mstore\n      pop\n      pop\n        /* \"otherfuncs.sol\":3084:3087  j++ */\n      dup2\n      dup1\n      tag_100\n      swap1\n      tag_94\n      jump\t// in\n    tag_100:\n      swap3\n      pop\n      pop\n        /* \"otherfuncs.sol\":2926:3102  if (arr1[i] <= arr2[j]) {... */\n    tag_95:\n        /* \"otherfuncs.sol\":3115:3118  k++ */\n      dup1\n      dup1\n      tag_101\n      swap1\n      tag_94\n      jump\t// in\n    tag_101:\n      swap2\n      pop\n      pop\n        /* \"otherfuncs.sol\":2883:3129  while (i < len1 && j < len2) {... */\n      jump(tag_81)\n    tag_82:\n        /* \"otherfuncs.sol\":3191:3286  while (i < len1) {... */\n    tag_102:\n        /* \"otherfuncs.sol\":3202:3206  len1 */\n      dup7\n        /* \"otherfuncs.sol\":3198:3199  i */\n      dup4\n        /* \"otherfuncs.sol\":3198:3206  i < len1 */\n      lt\n        /* \"otherfuncs.sol\":3191:3286  while (i < len1) {... */\n      iszero\n      tag_103\n      jumpi\n        /* \"otherfuncs.sol\":3234:3238  arr1 */\n      dup10\n        /* \"otherfuncs.sol\":3239:3240  i */\n      dup4\n        /* \"otherfuncs.sol\":3234:3241  arr1[i] */\n      dup2\n      mload\n      dup2\n      lt\n      tag_104\n      jumpi\n      tag_105\n      tag_47\n      jump\t// in\n    tag_105:\n    tag_104:\n      0x20\n      mul\n      0x20\n      add\n      add\n      mload\n        /* \"otherfuncs.sol\":3222:3228  merged */\n      dup5\n        /* \"otherfuncs.sol\":3229:3230  k */\n      dup3\n        /* \"otherfuncs.sol\":3222:3231  merged[k] */\n      dup2\n      mload\n      dup2\n      lt\n      tag_106\n      jumpi\n      tag_107\n      tag_47\n      jump\t// in\n    tag_107:\n    tag_106:\n      0x20\n      mul\n      0x20\n      add\n      add\n        /* \"otherfuncs.sol\":3222:3241  merged[k] = arr1[i] */\n      dup2\n      dup2\n      mstore\n      pop\n      pop\n        /* \"otherfuncs.sol\":3255:3258  i++ */\n      dup3\n      dup1\n      tag_108\n      swap1\n      tag_94\n      jump\t// in\n    tag_108:\n      swap4\n      pop\n      pop\n        /* \"otherfuncs.sol\":3272:3275  k++ */\n      dup1\n      dup1\n      tag_109\n      swap1\n      tag_94\n      jump\t// in\n    tag_109:\n      swap2\n      pop\n      pop\n        /* \"otherfuncs.sol\":3191:3286  while (i < len1) {... */\n      jump(tag_102)\n    tag_103:\n        /* \"otherfuncs.sol\":3348:3443  while (j < len2) {... */\n    tag_110:\n        /* \"otherfuncs.sol\":3359:3363  len2 */\n      dup6\n        /* \"otherfuncs.sol\":3355:3356  j */\n      dup3\n        /* \"otherfuncs.sol\":3355:3363  j < len2 */\n      lt\n        /* \"otherfuncs.sol\":3348:3443  while (j < len2) {... */\n      iszero\n      tag_111\n      jumpi\n        /* \"otherfuncs.sol\":3391:3395  arr2 */\n      dup9\n        /* \"otherfuncs.sol\":3396:3397  j */\n      dup3\n        /* \"otherfuncs.sol\":3391:3398  arr2[j] */\n      dup2\n      mload\n      dup2\n      lt\n      tag_112\n      jumpi\n      tag_113\n      tag_47\n      jump\t// in\n    tag_113:\n    tag_112:\n      0x20\n      mul\n      0x20\n      add\n      add\n      mload\n        /* \"otherfuncs.sol\":3379:3385  merged */\n      dup5\n        /* \"otherfuncs.sol\":3386:3387  k */\n      dup3\n        /* \"otherfuncs.sol\":3379:3388  merged[k] */\n      dup2\n      mload\n      dup2\n      lt\n      tag_114\n      jumpi\n      tag_115\n      tag_47\n      jump\t// in\n    tag_115:\n    tag_114:\n      0x20\n      mul\n      0x20\n      add\n      add\n        /* \"otherfuncs.sol\":3379:3398  merged[k] = arr2[j] */\n      dup2\n      dup2\n      mstore\n      pop\n      pop\n        /* \"otherfuncs.sol\":3412:3415  j++ */\n      dup2\n      dup1\n      tag_116\n      swap1\n      tag_94\n      jump\t// in\n    tag_116:\n      swap3\n      pop\n      pop\n        /* \"otherfuncs.sol\":3429:3432  k++ */\n      dup1\n      dup1\n      tag_117\n      swap1\n      tag_94\n      jump\t// in\n    tag_117:\n      swap2\n      pop\n      pop\n        /* \"otherfuncs.sol\":3348:3443  while (j < len2) {... */\n      jump(tag_110)\n    tag_111:\n        /* \"otherfuncs.sol\":3460:3466  merged */\n      dup4\n        /* \"otherfuncs.sol\":3453:3466  return merged */\n      swap8\n      pop\n      pop\n      pop\n      pop\n      pop\n      pop\n      pop\n      pop\n        /* \"otherfuncs.sol\":2483:3473  function mergeSortedArrays(int[] memory arr1, int[] memory arr2) public pure returns (int[] memory) {... */\n      swap3\n      swap2\n      pop\n      pop\n      jump\t// out\n        /* \"otherfuncs.sol\":465:967  function remanToInt(string memory roman) public pure returns (int) {... */\n    tag_27:\n        /* \"otherfuncs.sol\":527:530  int */\n      0x00\n        /* \"otherfuncs.sol\":542:556  uint256 result */\n      0x00\n        /* \"otherfuncs.sol\":559:560  0 */\n      0x00\n        /* \"otherfuncs.sol\":542:560  uint256 result = 0 */\n      swap1\n      pop\n        /* \"otherfuncs.sol\":570:584  uint256 preVal */\n      0x00\n        /* \"otherfuncs.sol\":587:588  0 */\n      0x00\n        /* \"otherfuncs.sol\":570:588  uint256 preVal = 0 */\n      swap1\n      pop\n        /* \"otherfuncs.sol\":604:613  uint256 i */\n      0x00\n        /* \"otherfuncs.sol\":622:627  roman */\n      dup5\n        /* \"otherfuncs.sol\":616:635  bytes(roman).length */\n      mload\n        /* \"otherfuncs.sol\":604:635  uint256 i = bytes(roman).length */\n      swap1\n      pop\n        /* \"otherfuncs.sol\":599:932  for (uint256 i = bytes(roman).length; i > 0; i--) {... */\n    tag_119:\n        /* \"otherfuncs.sol\":641:642  0 */\n      0x00\n        /* \"otherfuncs.sol\":637:638  i */\n      dup2\n        /* \"otherfuncs.sol\":637:642  i > 0 */\n      gt\n        /* \"otherfuncs.sol\":599:932  for (uint256 i = bytes(roman).length; i > 0; i--) {... */\n      iszero\n      tag_120\n      jumpi\n        /* \"otherfuncs.sol\":663:677  bytes1 curChar */\n      0x00\n        /* \"otherfuncs.sol\":686:691  roman */\n      dup6\n        /* \"otherfuncs.sol\":697:698  1 */\n      0x01\n        /* \"otherfuncs.sol\":693:694  i */\n      dup4\n        /* \"otherfuncs.sol\":693:698  i - 1 */\n      tag_122\n      swap2\n      swap1\n      tag_55\n      jump\t// in\n    tag_122:\n        /* \"otherfuncs.sol\":680:699  bytes(roman)[i - 1] */\n      dup2\n      mload\n      dup2\n      lt\n      tag_123\n      jumpi\n      tag_124\n      tag_47\n      jump\t// in\n    tag_124:\n    tag_123:\n      0x20\n      add\n      add\n      mload\n      0xf8\n      shr\n      0xf8\n      shl\n        /* \"otherfuncs.sol\":663:699  bytes1 curChar = bytes(roman)[i - 1] */\n      swap1\n      pop\n        /* \"otherfuncs.sol\":713:727  uint256 curVal */\n      0x00\n        /* \"otherfuncs.sol\":730:753  _getRomanValue(curChar) */\n      tag_125\n        /* \"otherfuncs.sol\":745:752  curChar */\n      dup3\n        /* \"otherfuncs.sol\":730:744  _getRomanValue */\n      tag_126\n        /* \"otherfuncs.sol\":730:753  _getRomanValue(curChar) */\n      jump\t// in\n    tag_125:\n        /* \"otherfuncs.sol\":713:753  uint256 curVal = _getRomanValue(curChar) */\n      swap1\n      pop\n        /* \"otherfuncs.sol\":781:787  preVal */\n      dup4\n        /* \"otherfuncs.sol\":772:778  curVal */\n      dup2\n        /* \"otherfuncs.sol\":772:787  curVal < preVal */\n      lt\n        /* \"otherfuncs.sol\":768:893  if (curVal < preVal) {... */\n      iszero\n      tag_127\n      jumpi\n        /* \"otherfuncs.sol\":817:823  curVal */\n      dup1\n        /* \"otherfuncs.sol\":807:823  result -= curVal */\n      dup6\n      tag_128\n      swap2\n      swap1\n      tag_55\n      jump\t// in\n    tag_128:\n      swap5\n      pop\n        /* \"otherfuncs.sol\":768:893  if (curVal < preVal) {... */\n      jump(tag_129)\n    tag_127:\n        /* \"otherfuncs.sol\":872:878  curVal */\n      dup1\n        /* \"otherfuncs.sol\":862:878  result += curVal */\n      dup6\n      tag_130\n      swap2\n      swap1\n      tag_76\n      jump\t// in\n    tag_130:\n      swap5\n      pop\n        /* \"otherfuncs.sol\":768:893  if (curVal < preVal) {... */\n    tag_129:\n        /* \"otherfuncs.sol\":915:921  curVal */\n      dup1\n        /* \"otherfuncs.sol\":906:921  preVal = curVal */\n      swap4\n      pop\n        /* \"otherfuncs.sol\":649:932  {... */\n      pop\n      pop\n        /* \"otherfuncs.sol\":644:647  i-- */\n      dup1\n      dup1\n      tag_131\n      swap1\n      tag_132\n      jump\t// in\n    tag_131:\n      swap2\n      pop\n      pop\n        /* \"otherfuncs.sol\":599:932  for (uint256 i = bytes(roman).length; i > 0; i--) {... */\n      jump(tag_119)\n    tag_120:\n      pop\n        /* \"otherfuncs.sol\":953:959  result */\n      dup2\n        /* \"otherfuncs.sol\":942:960  return int(result) */\n      swap3\n      pop\n      pop\n      pop\n        /* \"otherfuncs.sol\":465:967  function remanToInt(string memory roman) public pure returns (int) {... */\n      swap2\n      swap1\n      pop\n      jump\t// out\n        /* \"otherfuncs.sol\":3700:4260  function binarySearch(int[] memory arr, int target) public pure returns (int) {... */\n    tag_33:\n        /* \"otherfuncs.sol\":3773:3776  int */\n      0x00\n        /* \"otherfuncs.sol\":3788:3796  int left */\n      0x00\n        /* \"otherfuncs.sol\":3799:3800  0 */\n      0x00\n        /* \"otherfuncs.sol\":3788:3800  int left = 0 */\n      swap1\n      pop\n        /* \"otherfuncs.sol\":3810:3819  int right */\n      0x00\n        /* \"otherfuncs.sol\":3840:3841  1 */\n      0x01\n        /* \"otherfuncs.sol\":3826:3829  arr */\n      dup6\n        /* \"otherfuncs.sol\":3826:3836  arr.length */\n      mload\n        /* \"otherfuncs.sol\":3822:3841  int(arr.length) - 1 */\n      tag_134\n      swap2\n      swap1\n      tag_135\n      jump\t// in\n    tag_134:\n        /* \"otherfuncs.sol\":3810:3841  int right = int(arr.length) - 1 */\n      swap1\n      pop\n        /* \"otherfuncs.sol\":3852:4214  while (left <= right) {... */\n    tag_136:\n        /* \"otherfuncs.sol\":3867:3872  right */\n      dup1\n        /* \"otherfuncs.sol\":3859:3863  left */\n      dup3\n        /* \"otherfuncs.sol\":3859:3872  left <= right */\n      sgt\n        /* \"otherfuncs.sol\":3852:4214  while (left <= right) {... */\n      tag_137\n      jumpi\n        /* \"otherfuncs.sol\":3888:3895  int mid */\n      0x00\n        /* \"otherfuncs.sol\":3922:3923  2 */\n      0x02\n        /* \"otherfuncs.sol\":3914:3918  left */\n      dup4\n        /* \"otherfuncs.sol\":3906:3911  right */\n      dup4\n        /* \"otherfuncs.sol\":3906:3918  right - left */\n      tag_138\n      swap2\n      swap1\n      tag_135\n      jump\t// in\n    tag_138:\n        /* \"otherfuncs.sol\":3905:3923  (right - left) / 2 */\n      tag_139\n      swap2\n      swap1\n      tag_140\n      jump\t// in\n    tag_139:\n        /* \"otherfuncs.sol\":3898:3902  left */\n      dup4\n        /* \"otherfuncs.sol\":3898:3923  left + (right - left) / 2 */\n      tag_141\n      swap2\n      swap1\n      tag_142\n      jump\t// in\n    tag_141:\n        /* \"otherfuncs.sol\":3888:3923  int mid = left + (right - left) / 2 */\n      swap1\n      pop\n        /* \"otherfuncs.sol\":3960:3966  target */\n      dup5\n        /* \"otherfuncs.sol\":3942:3945  arr */\n      dup7\n        /* \"otherfuncs.sol\":3951:3954  mid */\n      dup3\n        /* \"otherfuncs.sol\":3942:3956  arr[uint(mid)] */\n      dup2\n      mload\n      dup2\n      lt\n      tag_143\n      jumpi\n      tag_144\n      tag_47\n      jump\t// in\n    tag_144:\n    tag_143:\n      0x20\n      mul\n      0x20\n      add\n      add\n      mload\n        /* \"otherfuncs.sol\":3942:3966  arr[uint(mid)] == target */\n      sub\n        /* \"otherfuncs.sol\":3938:4204  if (arr[uint(mid)] == target) {... */\n      tag_145\n      jumpi\n        /* \"otherfuncs.sol\":3993:3996  mid */\n      dup1\n        /* \"otherfuncs.sol\":3986:3996  return mid */\n      swap4\n      pop\n      pop\n      pop\n      pop\n      jump(tag_133)\n        /* \"otherfuncs.sol\":3938:4204  if (arr[uint(mid)] == target) {... */\n    tag_145:\n        /* \"otherfuncs.sol\":4054:4060  target */\n      dup5\n        /* \"otherfuncs.sol\":4037:4040  arr */\n      dup7\n        /* \"otherfuncs.sol\":4046:4049  mid */\n      dup3\n        /* \"otherfuncs.sol\":4037:4051  arr[uint(mid)] */\n      dup2\n      mload\n      dup2\n      lt\n      tag_147\n      jumpi\n      tag_148\n      tag_47\n      jump\t// in\n    tag_148:\n    tag_147:\n      0x20\n      mul\n      0x20\n      add\n      add\n      mload\n        /* \"otherfuncs.sol\":4037:4060  arr[uint(mid)] < target */\n      slt\n        /* \"otherfuncs.sol\":4033:4204  if (arr[uint(mid)] < target) {... */\n      iszero\n      tag_149\n      jumpi\n        /* \"otherfuncs.sol\":4093:4094  1 */\n      0x01\n        /* \"otherfuncs.sol\":4087:4090  mid */\n      dup2\n        /* \"otherfuncs.sol\":4087:4094  mid + 1 */\n      tag_150\n      swap2\n      swap1\n      tag_142\n      jump\t// in\n    tag_150:\n        /* \"otherfuncs.sol\":4080:4094  left = mid + 1 */\n      swap3\n      pop\n        /* \"otherfuncs.sol\":4033:4204  if (arr[uint(mid)] < target) {... */\n      jump(tag_151)\n    tag_149:\n        /* \"otherfuncs.sol\":4168:4169  1 */\n      0x01\n        /* \"otherfuncs.sol\":4162:4165  mid */\n      dup2\n        /* \"otherfuncs.sol\":4162:4169  mid - 1 */\n      tag_152\n      swap2\n      swap1\n      tag_135\n      jump\t// in\n    tag_152:\n        /* \"otherfuncs.sol\":4154:4169  right = mid - 1 */\n      swap2\n      pop\n        /* \"otherfuncs.sol\":4033:4204  if (arr[uint(mid)] < target) {... */\n    tag_151:\n        /* \"otherfuncs.sol\":3874:4214  {... */\n      pop\n        /* \"otherfuncs.sol\":3852:4214  while (left <= right) {... */\n      jump(tag_136)\n    tag_137:\n        /* \"otherfuncs.sol\":4231:4233  -1 */\n      0xffffffffffffffffffffffffffffffffffffffffffffffffffffffffffffffff\n        /* \"otherfuncs.sol\":4224:4233  return -1 */\n      swap3\n      pop\n      pop\n      pop\n        /* \"otherfuncs.sol\":3700:4260  function binarySearch(int[] memory arr, int target) public pure returns (int) {... */\n    tag_133:\n      swap3\n      swap2\n      pop\n      pop\n      jump\t// out\n        /* \"otherfuncs.sol\":973:1394  function _getRomanValue(bytes1 romanChar) private pure returns (uint256) {... */\n    tag_126:\n        /* \"otherfuncs.sol\":1037:1044  uint256 */\n      0x00\n        /* \"otherfuncs.sol\":1060:1076  romanChar == \"I\" */\n      0x4900000000000000000000000000000000000000000000000000000000000000\n        /* \"otherfuncs.sol\":1060:1069  romanChar */\n      dup3\n        /* \"otherfuncs.sol\":1060:1076  romanChar == \"I\" */\n      not(0xffffffffffffffffffffffffffffffffffffffffffffffffffffffffffffff)\n      and\n      sub\n        /* \"otherfuncs.sol\":1056:1086  if (romanChar == \"I\") return 1 */\n      tag_154\n      jumpi\n        /* \"otherfuncs.sol\":1085:1086  1 */\n      0x01\n        /* \"otherfuncs.sol\":1078:1086  return 1 */\n      swap1\n      pop\n      jump(tag_153)\n        /* \"otherfuncs.sol\":1056:1086  if (romanChar == \"I\") return 1 */\n    tag_154:\n        /* \"otherfuncs.sol\":1100:1116  romanChar == \"V\" */\n      0x5600000000000000000000000000000000000000000000000000000000000000\n        /* \"otherfuncs.sol\":1100:1109  romanChar */\n      dup3\n        /* \"otherfuncs.sol\":1100:1116  romanChar == \"V\" */\n      not(0xffffffffffffffffffffffffffffffffffffffffffffffffffffffffffffff)\n      and\n      sub\n        /* \"otherfuncs.sol\":1096:1126  if (romanChar == \"V\") return 5 */\n      tag_155\n      jumpi\n        /* \"otherfuncs.sol\":1125:1126  5 */\n      0x05\n        /* \"otherfuncs.sol\":1118:1126  return 5 */\n      swap1\n      pop\n      jump(tag_153)\n        /* \"otherfuncs.sol\":1096:1126  if (romanChar == \"V\") return 5 */\n    tag_155:\n        /* \"otherfuncs.sol\":1140:1156  romanChar == \"X\" */\n      0x5800000000000000000000000000000000000000000000000000000000000000\n        /* \"otherfuncs.sol\":1140:1149  romanChar */\n      dup3\n        /* \"otherfuncs.sol\":1140:1156  romanChar == \"X\" */\n      not(0xffffffffffffffffffffffffffffffffffffffffffffffffffffffffffffff)\n      and\n      sub\n        /* \"otherfuncs.sol\":1136:1167  if (romanChar == \"X\") return 10 */\n      tag_156\n      jumpi\n        /* \"otherfuncs.sol\":1165:1167  10 */\n      0x0a\n        /* \"otherfuncs.sol\":1158:1167  return 10 */\n      swap1\n      pop\n      jump(tag_153)\n        /* \"otherfuncs.sol\":1136:1167  if (romanChar == \"X\") return 10 */\n    tag_156:\n        /* \"otherfuncs.sol\":1181:1197  romanChar == \"L\" */\n      0x4c00000000000000000000000000000000000000000000000000000000000000\n        /* \"otherfuncs.sol\":1181:1190  romanChar */\n      dup3\n        /* \"otherfuncs.sol\":1181:1197  romanChar == \"L\" */\n      not(0xffffffffffffffffffffffffffffffffffffffffffffffffffffffffffffff)\n      and\n      sub\n        /* \"otherfuncs.sol\":1177:1208  if (romanChar == \"L\") return 50 */\n      tag_157\n      jumpi\n        /* \"otherfuncs.sol\":1206:1208  50 */\n      0x32\n        /* \"otherfuncs.sol\":1199:1208  return 50 */\n      swap1\n      pop\n      jump(tag_153)\n        /* \"otherfuncs.sol\":1177:1208  if (romanChar == \"L\") return 50 */\n    tag_157:\n        /* \"otherfuncs.sol\":1222:1238  romanChar == \"C\" */\n      0x4300000000000000000000000000000000000000000000000000000000000000\n        /* \"otherfuncs.sol\":1222:1231  romanChar */\n      dup3\n        /* \"otherfuncs.sol\":1222:1238  romanChar == \"C\" */\n      not(0xffffffffffffffffffffffffffffffffffffffffffffffffffffffffffffff)\n      and\n      sub\n        /* \"otherfuncs.sol\":1218:1250  if (romanChar == \"C\") return 100 */\n      tag_158\n      jumpi\n        /* \"otherfuncs.sol\":1247:1250  100 */\n      0x64\n        /* \"otherfuncs.sol\":1240:1250  return 100 */\n      swap1\n      pop\n      jump(tag_153)\n        /* \"otherfuncs.sol\":1218:1250  if (romanChar == \"C\") return 100 */\n    tag_158:\n        /* \"otherfuncs.sol\":1264:1280  romanChar == \"D\" */\n      0x4400000000000000000000000000000000000000000000000000000000000000\n        /* \"otherfuncs.sol\":1264:1273  romanChar */\n      dup3\n        /* \"otherfuncs.sol\":1264:1280  romanChar == \"D\" */\n      not(0xffffffffffffffffffffffffffffffffffffffffffffffffffffffffffffff)\n      and\n      sub\n        /* \"otherfuncs.sol\":1260:1292  if (romanChar == \"D\") return 500 */\n      tag_159\n      jumpi\n        /* \"otherfuncs.sol\":1289:1292  500 */\n      0x01f4\n        /* \"otherfuncs.sol\":1282:1292  return 500 */\n      swap1\n      pop\n      jump(tag_153)\n        /* \"otherfuncs.sol\":1260:1292  if (romanChar == \"D\") return 500 */\n    tag_159:\n        /* \"otherfuncs.sol\":1306:1322  romanChar == \"M\" */\n      0x4d00000000000000000000000000000000000000000000000000000000000000\n        /* \"otherfuncs.sol\":1306:1315  romanChar */\n      dup3\n        /* \"otherfuncs.sol\":1306:1322  romanChar == \"M\" */\n      not(0xffffffffffffffffffffffffffffffffffffffffffffffffffffffffffffff)\n      and\n      sub\n        /* \"otherfuncs.sol\":1302:1335  if (romanChar == \"M\") return 1000 */\n      tag_160\n      jumpi\n        /* \"otherfuncs.sol\":1331:1335  1000 */\n      0x03e8\n        /* \"otherfuncs.sol\":1324:1335  return 1000 */\n      swap1\n      pop\n      jump(tag_153)\n        /* \"otherfuncs.sol\":1302:1335  if (romanChar == \"M\") return 1000 */\n    tag_160:\n        /* \"otherfuncs.sol\":1346:1387  revert(\"Invalid Roman numeral character\") */\n      mload(0x40)\n      0x08c379a000000000000000000000000000000000000000000000000000000000\n      dup2\n      mstore\n      0x04\n      add\n      tag_161\n      swap1\n      tag_162\n      jump\t// in\n    tag_161:\n      mload(0x40)\n      dup1\n      swap2\n      sub\n      swap1\n      revert\n        /* \"otherfuncs.sol\":973:1394  function _getRomanValue(bytes1 romanChar) private pure returns (uint256) {... */\n    tag_153:\n      swap2\n      swap1\n      pop\n      jump\t// out\n        /* \"#utility.yul\":7:82   */\n    tag_163:\n        /* \"#utility.yul\":40:46   */\n      0x00\n        /* \"#utility.yul\":73:75   */\n      0x40\n        /* \"#utility.yul\":67:76   */\n      mload\n        /* \"#utility.yul\":57:76   */\n      swap1\n      pop\n        /* \"#utility.yul\":7:82   */\n      swap1\n      jump\t// out\n        /* \"#utility.yul\":88:205   */\n    tag_164:\n        /* \"#utility.yul\":197:198   */\n      0x00\n        /* \"#utility.yul\":194:195   */\n      0x00\n        /* \"#utility.yul\":187:199   */\n      revert\n        /* \"#utility.yul\":211:328   */\n    tag_165:\n        /* \"#utility.yul\":320:321   */\n      0x00\n        /* \"#utility.yul\":317:318   */\n      0x00\n        /* \"#utility.yul\":310:322   */\n      revert\n        /* \"#utility.yul\":334:411   */\n    tag_166:\n        /* \"#utility.yul\":371:378   */\n      0x00\n        /* \"#utility.yul\":400:405   */\n      dup2\n        /* \"#utility.yul\":389:405   */\n      swap1\n      pop\n        /* \"#utility.yul\":334:411   */\n      swap2\n      swap1\n      pop\n      jump\t// out\n        /* \"#utility.yul\":417:539   */\n    tag_167:\n        /* \"#utility.yul\":490:514   */\n      tag_211\n        /* \"#utility.yul\":508:513   */\n      dup2\n        /* \"#utility.yul\":490:514   */\n      tag_166\n      jump\t// in\n    tag_211:\n        /* \"#utility.yul\":483:488   */\n      dup2\n        /* \"#utility.yul\":480:515   */\n      eq\n        /* \"#utility.yul\":470:533   */\n      tag_212\n      jumpi\n        /* \"#utility.yul\":529:530   */\n      0x00\n        /* \"#utility.yul\":526:527   */\n      0x00\n        /* \"#utility.yul\":519:531   */\n      revert\n        /* \"#utility.yul\":470:533   */\n    tag_212:\n        /* \"#utility.yul\":417:539   */\n      pop\n      jump\t// out\n        /* \"#utility.yul\":545:684   */\n    tag_168:\n        /* \"#utility.yul\":591:596   */\n      0x00\n        /* \"#utility.yul\":629:635   */\n      dup2\n        /* \"#utility.yul\":616:636   */\n      calldataload\n        /* \"#utility.yul\":607:636   */\n      swap1\n      pop\n        /* \"#utility.yul\":645:678   */\n      tag_214\n        /* \"#utility.yul\":672:677   */\n      dup2\n        /* \"#utility.yul\":645:678   */\n      tag_167\n      jump\t// in\n    tag_214:\n        /* \"#utility.yul\":545:684   */\n      swap3\n      swap2\n      pop\n      pop\n      jump\t// out\n        /* \"#utility.yul\":690:1019   */\n    tag_10:\n        /* \"#utility.yul\":749:755   */\n      0x00\n        /* \"#utility.yul\":798:800   */\n      0x20\n        /* \"#utility.yul\":786:795   */\n      dup3\n        /* \"#utility.yul\":777:784   */\n      dup5\n        /* \"#utility.yul\":773:796   */\n      sub\n        /* \"#utility.yul\":769:801   */\n      slt\n        /* \"#utility.yul\":766:885   */\n      iszero\n      tag_216\n      jumpi\n        /* \"#utility.yul\":804:883   */\n      tag_217\n      tag_164\n      jump\t// in\n    tag_217:\n        /* \"#utility.yul\":766:885   */\n    tag_216:\n        /* \"#utility.yul\":924:925   */\n      0x00\n        /* \"#utility.yul\":949:1002   */\n      tag_218\n        /* \"#utility.yul\":994:1001   */\n      dup5\n        /* \"#utility.yul\":985:991   */\n      dup3\n        /* \"#utility.yul\":974:983   */\n      dup6\n        /* \"#utility.yul\":970:992   */\n      add\n        /* \"#utility.yul\":949:1002   */\n      tag_168\n      jump\t// in\n    tag_218:\n        /* \"#utility.yul\":939:1002   */\n      swap2\n      pop\n        /* \"#utility.yul\":895:1012   */\n      pop\n        /* \"#utility.yul\":690:1019   */\n      swap3\n      swap2\n      pop\n      pop\n      jump\t// out\n        /* \"#utility.yul\":1025:1124   */\n    tag_169:\n        /* \"#utility.yul\":1077:1083   */\n      0x00\n        /* \"#utility.yul\":1111:1116   */\n      dup2\n        /* \"#utility.yul\":1105:1117   */\n      mload\n        /* \"#utility.yul\":1095:1117   */\n      swap1\n      pop\n        /* \"#utility.yul\":1025:1124   */\n      swap2\n      swap1\n      pop\n      jump\t// out\n        /* \"#utility.yul\":1130:1299   */\n    tag_170:\n        /* \"#utility.yul\":1214:1225   */\n      0x00\n        /* \"#utility.yul\":1248:1254   */\n      dup3\n        /* \"#utility.yul\":1243:1246   */\n      dup3\n        /* \"#utility.yul\":1236:1255   */\n      mstore\n        /* \"#utility.yul\":1288:1292   */\n      0x20\n        /* \"#utility.yul\":1283:1286   */\n      dup3\n        /* \"#utility.yul\":1279:1293   */\n      add\n        /* \"#utility.yul\":1264:1293   */\n      swap1\n      pop\n        /* \"#utility.yul\":1130:1299   */\n      swap3\n      swap2\n      pop\n      pop\n      jump\t// out\n        /* \"#utility.yul\":1305:1444   */\n    tag_171:\n        /* \"#utility.yul\":1394:1400   */\n      dup3\n        /* \"#utility.yul\":1389:1392   */\n      dup2\n        /* \"#utility.yul\":1384:1387   */\n      dup4\n        /* \"#utility.yul\":1378:1401   */\n      mcopy\n        /* \"#utility.yul\":1435:1436   */\n      0x00\n        /* \"#utility.yul\":1426:1432   */\n      dup4\n        /* \"#utility.yul\":1421:1424   */\n      dup4\n        /* \"#utility.yul\":1417:1433   */\n      add\n        /* \"#utility.yul\":1410:1437   */\n      mstore\n        /* \"#utility.yul\":1305:1444   */\n      pop\n      pop\n      pop\n      jump\t// out\n        /* \"#utility.yul\":1450:1552   */\n    tag_172:\n        /* \"#utility.yul\":1491:1497   */\n      0x00\n        /* \"#utility.yul\":1542:1544   */\n      0x1f\n        /* \"#utility.yul\":1538:1545   */\n      not\n        /* \"#utility.yul\":1533:1535   */\n      0x1f\n        /* \"#utility.yul\":1526:1531   */\n      dup4\n        /* \"#utility.yul\":1522:1536   */\n      add\n        /* \"#utility.yul\":1518:1546   */\n      and\n        /* \"#utility.yul\":1508:1546   */\n      swap1\n      pop\n        /* \"#utility.yul\":1450:1552   */\n      swap2\n      swap1\n      pop\n      jump\t// out\n        /* \"#utility.yul\":1558:1935   */\n    tag_173:\n        /* \"#utility.yul\":1646:1649   */\n      0x00\n        /* \"#utility.yul\":1674:1713   */\n      tag_224\n        /* \"#utility.yul\":1707:1712   */\n      dup3\n        /* \"#utility.yul\":1674:1713   */\n      tag_169\n      jump\t// in\n    tag_224:\n        /* \"#utility.yul\":1729:1800   */\n      tag_225\n        /* \"#utility.yul\":1793:1799   */\n      dup2\n        /* \"#utility.yul\":1788:1791   */\n      dup6\n        /* \"#utility.yul\":1729:1800   */\n      tag_170\n      jump\t// in\n    tag_225:\n        /* \"#utility.yul\":1722:1800   */\n      swap4\n      pop\n        /* \"#utility.yul\":1809:1874   */\n      tag_226\n        /* \"#utility.yul\":1867:1873   */\n      dup2\n        /* \"#utility.yul\":1862:1865   */\n      dup6\n        /* \"#utility.yul\":1855:1859   */\n      0x20\n        /* \"#utility.yul\":1848:1853   */\n      dup7\n        /* \"#utility.yul\":1844:1860   */\n      add\n        /* \"#utility.yul\":1809:1874   */\n      tag_171\n      jump\t// in\n    tag_226:\n        /* \"#utility.yul\":1899:1928   */\n      tag_227\n        /* \"#utility.yul\":1921:1927   */\n      dup2\n        /* \"#utility.yul\":1899:1928   */\n      tag_172\n      jump\t// in\n    tag_227:\n        /* \"#utility.yul\":1894:1897   */\n      dup5\n        /* \"#utility.yul\":1890:1929   */\n      add\n        /* \"#utility.yul\":1883:1929   */\n      swap2\n      pop\n        /* \"#utility.yul\":1650:1935   */\n      pop\n        /* \"#utility.yul\":1558:1935   */\n      swap3\n      swap2\n      pop\n      pop\n      jump\t// out\n        /* \"#utility.yul\":1941:2254   */\n    tag_13:\n        /* \"#utility.yul\":2054:2058   */\n      0x00\n        /* \"#utility.yul\":2092:2094   */\n      0x20\n        /* \"#utility.yul\":2081:2090   */\n      dup3\n        /* \"#utility.yul\":2077:2095   */\n      add\n        /* \"#utility.yul\":2069:2095   */\n      swap1\n      pop\n        /* \"#utility.yul\":2141:2150   */\n      dup2\n        /* \"#utility.yul\":2135:2139   */\n      dup2\n        /* \"#utility.yul\":2131:2151   */\n      sub\n        /* \"#utility.yul\":2127:2128   */\n      0x00\n        /* \"#utility.yul\":2116:2125   */\n      dup4\n        /* \"#utility.yul\":2112:2129   */\n      add\n        /* \"#utility.yul\":2105:2152   */\n      mstore\n        /* \"#utility.yul\":2169:2247   */\n      tag_229\n        /* \"#utility.yul\":2242:2246   */\n      dup2\n        /* \"#utility.yul\":2233:2239   */\n      dup5\n        /* \"#utility.yul\":2169:2247   */\n      tag_173\n      jump\t// in\n    tag_229:\n        /* \"#utility.yul\":2161:2247   */\n      swap1\n      pop\n        /* \"#utility.yul\":1941:2254   */\n      swap3\n      swap2\n      pop\n      pop\n      jump\t// out\n        /* \"#utility.yul\":2260:2377   */\n    tag_174:\n        /* \"#utility.yul\":2369:2370   */\n      0x00\n        /* \"#utility.yul\":2366:2367   */\n      0x00\n        /* \"#utility.yul\":2359:2371   */\n      revert\n        /* \"#utility.yul\":2383:2500   */\n    tag_175:\n        /* \"#utility.yul\":2492:2493   */\n      0x00\n        /* \"#utility.yul\":2489:2490   */\n      0x00\n        /* \"#utility.yul\":2482:2494   */\n      revert\n        /* \"#utility.yul\":2506:2686   */\n    tag_79:\n        /* \"#utility.yul\":2554:2631   */\n      0x4e487b7100000000000000000000000000000000000000000000000000000000\n        /* \"#utility.yul\":2551:2552   */\n      0x00\n        /* \"#utility.yul\":2544:2632   */\n      mstore\n        /* \"#utility.yul\":2651:2655   */\n      0x41\n        /* \"#utility.yul\":2648:2649   */\n      0x04\n        /* \"#utility.yul\":2641:2656   */\n      mstore\n        /* \"#utility.yul\":2675:2679   */\n      0x24\n        /* \"#utility.yul\":2672:2673   */\n      0x00\n        /* \"#utility.yul\":2665:2680   */\n      revert\n        /* \"#utility.yul\":2692:2973   */\n    tag_176:\n        /* \"#utility.yul\":2775:2802   */\n      tag_234\n        /* \"#utility.yul\":2797:2801   */\n      dup3\n        /* \"#utility.yul\":2775:2802   */\n      tag_172\n      jump\t// in\n    tag_234:\n        /* \"#utility.yul\":2767:2773   */\n      dup2\n        /* \"#utility.yul\":2763:2803   */\n      add\n        /* \"#utility.yul\":2905:2911   */\n      dup2\n        /* \"#utility.yul\":2893:2903   */\n      dup2\n        /* \"#utility.yul\":2890:2912   */\n      lt\n        /* \"#utility.yul\":2869:2887   */\n      0xffffffffffffffff\n        /* \"#utility.yul\":2857:2867   */\n      dup3\n        /* \"#utility.yul\":2854:2888   */\n      gt\n        /* \"#utility.yul\":2851:2913   */\n      or\n        /* \"#utility.yul\":2848:2936   */\n      iszero\n      tag_235\n      jumpi\n        /* \"#utility.yul\":2916:2934   */\n      tag_236\n      tag_79\n      jump\t// in\n    tag_236:\n        /* \"#utility.yul\":2848:2936   */\n    tag_235:\n        /* \"#utility.yul\":2956:2966   */\n      dup1\n        /* \"#utility.yul\":2952:2954   */\n      0x40\n        /* \"#utility.yul\":2945:2967   */\n      mstore\n        /* \"#utility.yul\":2735:2973   */\n      pop\n        /* \"#utility.yul\":2692:2973   */\n      pop\n      pop\n      jump\t// out\n        /* \"#utility.yul\":2979:3108   */\n    tag_177:\n        /* \"#utility.yul\":3013:3019   */\n      0x00\n        /* \"#utility.yul\":3040:3060   */\n      tag_238\n      tag_163\n      jump\t// in\n    tag_238:\n        /* \"#utility.yul\":3030:3060   */\n      swap1\n      pop\n        /* \"#utility.yul\":3069:3102   */\n      tag_239\n        /* \"#utility.yul\":3097:3101   */\n      dup3\n        /* \"#utility.yul\":3089:3095   */\n      dup3\n        /* \"#utility.yul\":3069:3102   */\n      tag_176\n      jump\t// in\n    tag_239:\n        /* \"#utility.yul\":2979:3108   */\n      swap2\n      swap1\n      pop\n      jump\t// out\n        /* \"#utility.yul\":3114:3422   */\n    tag_178:\n        /* \"#utility.yul\":3176:3180   */\n      0x00\n        /* \"#utility.yul\":3266:3284   */\n      0xffffffffffffffff\n        /* \"#utility.yul\":3258:3264   */\n      dup3\n        /* \"#utility.yul\":3255:3285   */\n      gt\n        /* \"#utility.yul\":3252:3308   */\n      iszero\n      tag_241\n      jumpi\n        /* \"#utility.yul\":3288:3306   */\n      tag_242\n      tag_79\n      jump\t// in\n    tag_242:\n        /* \"#utility.yul\":3252:3308   */\n    tag_241:\n        /* \"#utility.yul\":3326:3355   */\n      tag_243\n        /* \"#utility.yul\":3348:3354   */\n      dup3\n        /* \"#utility.yul\":3326:3355   */\n      tag_172\n      jump\t// in\n    tag_243:\n        /* \"#utility.yul\":3318:3355   */\n      swap1\n      pop\n        /* \"#utility.yul\":3410:3414   */\n      0x20\n        /* \"#utility.yul\":3404:3408   */\n      dup2\n        /* \"#utility.yul\":3400:3415   */\n      add\n        /* \"#utility.yul\":3392:3415   */\n      swap1\n      pop\n        /* \"#utility.yul\":3114:3422   */\n      swap2\n      swap1\n      pop\n      jump\t// out\n        /* \"#utility.yul\":3428:3576   */\n    tag_179:\n        /* \"#utility.yul\":3526:3532   */\n      dup3\n        /* \"#utility.yul\":3521:3524   */\n      dup2\n        /* \"#utility.yul\":3516:3519   */\n      dup4\n        /* \"#utility.yul\":3503:3533   */\n      calldatacopy\n        /* \"#utility.yul\":3567:3568   */\n      0x00\n        /* \"#utility.yul\":3558:3564   */\n      dup4\n        /* \"#utility.yul\":3553:3556   */\n      dup4\n        /* \"#utility.yul\":3549:3565   */\n      add\n        /* \"#utility.yul\":3542:3569   */\n      mstore\n        /* \"#utility.yul\":3428:3576   */\n      pop\n      pop\n      pop\n      jump\t// out\n        /* \"#utility.yul\":3582:4007   */\n    tag_180:\n        /* \"#utility.yul\":3660:3665   */\n      0x00\n        /* \"#utility.yul\":3685:3751   */\n      tag_246\n        /* \"#utility.yul\":3701:3750   */\n      tag_247\n        /* \"#utility.yul\":3743:3749   */\n      dup5\n        /* \"#utility.yul\":3701:3750   */\n      tag_178\n      jump\t// in\n    tag_247:\n        /* \"#utility.yul\":3685:3751   */\n      tag_177\n      jump\t// in\n    tag_246:\n        /* \"#utility.yul\":3676:3751   */\n      swap1\n      pop\n        /* \"#utility.yul\":3774:3780   */\n      dup3\n        /* \"#utility.yul\":3767:3772   */\n      dup2\n        /* \"#utility.yul\":3760:3781   */\n      mstore\n        /* \"#utility.yul\":3812:3816   */\n      0x20\n        /* \"#utility.yul\":3805:3810   */\n      dup2\n        /* \"#utility.yul\":3801:3817   */\n      add\n        /* \"#utility.yul\":3850:3853   */\n      dup5\n        /* \"#utility.yul\":3841:3847   */\n      dup5\n        /* \"#utility.yul\":3836:3839   */\n      dup5\n        /* \"#utility.yul\":3832:3848   */\n      add\n        /* \"#utility.yul\":3829:3854   */\n      gt\n        /* \"#utility.yul\":3826:3938   */\n      iszero\n      tag_248\n      jumpi\n        /* \"#utility.yul\":3857:3936   */\n      tag_249\n      tag_175\n      jump\t// in\n    tag_249:\n        /* \"#utility.yul\":3826:3938   */\n    tag_248:\n        /* \"#utility.yul\":3947:4001   */\n      tag_250\n        /* \"#utility.yul\":3994:4000   */\n      dup5\n        /* \"#utility.yul\":3989:3992   */\n      dup3\n        /* \"#utility.yul\":3984:3987   */\n      dup6\n        /* \"#utility.yul\":3947:4001   */\n      tag_179\n      jump\t// in\n    tag_250:\n        /* \"#utility.yul\":3666:4007   */\n      pop\n        /* \"#utility.yul\":3582:4007   */\n      swap4\n      swap3\n      pop\n      pop\n      pop\n      jump\t// out\n        /* \"#utility.yul\":4027:4367   */\n    tag_181:\n        /* \"#utility.yul\":4083:4088   */\n      0x00\n        /* \"#utility.yul\":4132:4135   */\n      dup3\n        /* \"#utility.yul\":4125:4129   */\n      0x1f\n        /* \"#utility.yul\":4117:4123   */\n      dup4\n        /* \"#utility.yul\":4113:4130   */\n      add\n        /* \"#utility.yul\":4109:4136   */\n      slt\n        /* \"#utility.yul\":4099:4221   */\n      tag_252\n      jumpi\n        /* \"#utility.yul\":4140:4219   */\n      tag_253\n      tag_174\n      jump\t// in\n    tag_253:\n        /* \"#utility.yul\":4099:4221   */\n    tag_252:\n        /* \"#utility.yul\":4257:4263   */\n      dup2\n        /* \"#utility.yul\":4244:4264   */\n      calldataload\n        /* \"#utility.yul\":4282:4361   */\n      tag_254\n        /* \"#utility.yul\":4357:4360   */\n      dup5\n        /* \"#utility.yul\":4349:4355   */\n      dup3\n        /* \"#utility.yul\":4342:4346   */\n      0x20\n        /* \"#utility.yul\":4334:4340   */\n      dup7\n        /* \"#utility.yul\":4330:4347   */\n      add\n        /* \"#utility.yul\":4282:4361   */\n      tag_180\n      jump\t// in\n    tag_254:\n        /* \"#utility.yul\":4273:4361   */\n      swap2\n      pop\n        /* \"#utility.yul\":4089:4367   */\n      pop\n        /* \"#utility.yul\":4027:4367   */\n      swap3\n      swap2\n      pop\n      pop\n      jump\t// out\n        /* \"#utility.yul\":4373:4882   */\n    tag_16:\n        /* \"#utility.yul\":4442:4448   */\n      0x00\n        /* \"#utility.yul\":4491:4493   */\n      0x20\n        /* \"#utility.yul\":4479:4488   */\n      dup3\n        /* \"#utility.yul\":4470:4477   */\n      dup5\n        /* \"#utility.yul\":4466:4489   */\n      sub\n        /* \"#utility.yul\":4462:4494   */\n      slt\n        /* \"#utility.yul\":4459:4578   */\n      iszero\n      tag_256\n      jumpi\n        /* \"#utility.yul\":4497:4576   */\n      tag_257\n      tag_164\n      jump\t// in\n    tag_257:\n        /* \"#utility.yul\":4459:4578   */\n    tag_256:\n        /* \"#utility.yul\":4645:4646   */\n      0x00\n        /* \"#utility.yul\":4634:4643   */\n      dup3\n        /* \"#utility.yul\":4630:4647   */\n      add\n        /* \"#utility.yul\":4617:4648   */\n      calldataload\n        /* \"#utility.yul\":4675:4693   */\n      0xffffffffffffffff\n        /* \"#utility.yul\":4667:4673   */\n      dup2\n        /* \"#utility.yul\":4664:4694   */\n      gt\n        /* \"#utility.yul\":4661:4778   */\n      iszero\n      tag_258\n      jumpi\n        /* \"#utility.yul\":4697:4776   */\n      tag_259\n      tag_165\n      jump\t// in\n    tag_259:\n        /* \"#utility.yul\":4661:4778   */\n    tag_258:\n        /* \"#utility.yul\":4802:4865   */\n      tag_260\n        /* \"#utility.yul\":4857:4864   */\n      dup5\n        /* \"#utility.yul\":4848:4854   */\n      dup3\n        /* \"#utility.yul\":4837:4846   */\n      dup6\n        /* \"#utility.yul\":4833:4855   */\n      add\n        /* \"#utility.yul\":4802:4865   */\n      tag_181\n      jump\t// in\n    tag_260:\n        /* \"#utility.yul\":4792:4865   */\n      swap2\n      pop\n        /* \"#utility.yul\":4588:4875   */\n      pop\n        /* \"#utility.yul\":4373:4882   */\n      swap3\n      swap2\n      pop\n      pop\n      jump\t// out\n        /* \"#utility.yul\":4888:5198   */\n    tag_182:\n        /* \"#utility.yul\":4964:4968   */\n      0x00\n        /* \"#utility.yul\":5054:5072   */\n      0xffffffffffffffff\n        /* \"#utility.yul\":5046:5052   */\n      dup3\n        /* \"#utility.yul\":5043:5073   */\n      gt\n        /* \"#utility.yul\":5040:5096   */\n      iszero\n      tag_262\n      jumpi\n        /* \"#utility.yul\":5076:5094   */\n      tag_263\n      tag_79\n      jump\t// in\n    tag_263:\n        /* \"#utility.yul\":5040:5096   */\n    tag_262:\n        /* \"#utility.yul\":5126:5130   */\n      0x20\n        /* \"#utility.yul\":5118:5124   */\n      dup3\n        /* \"#utility.yul\":5114:5131   */\n      mul\n        /* \"#utility.yul\":5106:5131   */\n      swap1\n      pop\n        /* \"#utility.yul\":5186:5190   */\n      0x20\n        /* \"#utility.yul\":5180:5184   */\n      dup2\n        /* \"#utility.yul\":5176:5191   */\n      add\n        /* \"#utility.yul\":5168:5191   */\n      swap1\n      pop\n        /* \"#utility.yul\":4888:5198   */\n      swap2\n      swap1\n      pop\n      jump\t// out\n        /* \"#utility.yul\":5204:5321   */\n    tag_183:\n        /* \"#utility.yul\":5313:5314   */\n      0x00\n        /* \"#utility.yul\":5310:5311   */\n      0x00\n        /* \"#utility.yul\":5303:5315   */\n      revert\n        /* \"#utility.yul\":5327:5403   */\n    tag_184:\n        /* \"#utility.yul\":5363:5370   */\n      0x00\n        /* \"#utility.yul\":5392:5397   */\n      dup2\n        /* \"#utility.yul\":5381:5397   */\n      swap1\n      pop\n        /* \"#utility.yul\":5327:5403   */\n      swap2\n      swap1\n      pop\n      jump\t// out\n        /* \"#utility.yul\":5409:5529   */\n    tag_185:\n        /* \"#utility.yul\":5481:5504   */\n      tag_267\n        /* \"#utility.yul\":5498:5503   */\n      dup2\n        /* \"#utility.yul\":5481:5504   */\n      tag_184\n      jump\t// in\n    tag_267:\n        /* \"#utility.yul\":5474:5479   */\n      dup2\n        /* \"#utility.yul\":5471:5505   */\n      eq\n        /* \"#utility.yul\":5461:5523   */\n      tag_268\n      jumpi\n        /* \"#utility.yul\":5519:5520   */\n      0x00\n        /* \"#utility.yul\":5516:5517   */\n      0x00\n        /* \"#utility.yul\":5509:5521   */\n      revert\n        /* \"#utility.yul\":5461:5523   */\n    tag_268:\n        /* \"#utility.yul\":5409:5529   */\n      pop\n      jump\t// out\n        /* \"#utility.yul\":5535:5672   */\n    tag_186:\n        /* \"#utility.yul\":5580:5585   */\n      0x00\n        /* \"#utility.yul\":5618:5624   */\n      dup2\n        /* \"#utility.yul\":5605:5625   */\n      calldataload\n        /* \"#utility.yul\":5596:5625   */\n      swap1\n      pop\n        /* \"#utility.yul\":5634:5666   */\n      tag_270\n        /* \"#utility.yul\":5660:5665   */\n      dup2\n        /* \"#utility.yul\":5634:5666   */\n      tag_185\n      jump\t// in\n    tag_270:\n        /* \"#utility.yul\":5535:5672   */\n      swap3\n      swap2\n      pop\n      pop\n      jump\t// out\n        /* \"#utility.yul\":5694:6401   */\n    tag_187:\n        /* \"#utility.yul\":5789:5794   */\n      0x00\n        /* \"#utility.yul\":5814:5894   */\n      tag_272\n        /* \"#utility.yul\":5830:5893   */\n      tag_273\n        /* \"#utility.yul\":5886:5892   */\n      dup5\n        /* \"#utility.yul\":5830:5893   */\n      tag_182\n      jump\t// in\n    tag_273:\n        /* \"#utility.yul\":5814:5894   */\n      tag_177\n      jump\t// in\n    tag_272:\n        /* \"#utility.yul\":5805:5894   */\n      swap1\n      pop\n        /* \"#utility.yul\":5914:5919   */\n      dup1\n        /* \"#utility.yul\":5943:5949   */\n      dup4\n        /* \"#utility.yul\":5936:5941   */\n      dup3\n        /* \"#utility.yul\":5929:5950   */\n      mstore\n        /* \"#utility.yul\":5977:5981   */\n      0x20\n        /* \"#utility.yul\":5970:5975   */\n      dup3\n        /* \"#utility.yul\":5966:5982   */\n      add\n        /* \"#utility.yul\":5959:5982   */\n      swap1\n      pop\n        /* \"#utility.yul\":6030:6034   */\n      0x20\n        /* \"#utility.yul\":6022:6028   */\n      dup5\n        /* \"#utility.yul\":6018:6035   */\n      mul\n        /* \"#utility.yul\":6010:6016   */\n      dup4\n        /* \"#utility.yul\":6006:6036   */\n      add\n        /* \"#utility.yul\":6059:6062   */\n      dup6\n        /* \"#utility.yul\":6051:6057   */\n      dup2\n        /* \"#utility.yul\":6048:6063   */\n      gt\n        /* \"#utility.yul\":6045:6167   */\n      iszero\n      tag_274\n      jumpi\n        /* \"#utility.yul\":6078:6157   */\n      tag_275\n      tag_183\n      jump\t// in\n    tag_275:\n        /* \"#utility.yul\":6045:6167   */\n    tag_274:\n        /* \"#utility.yul\":6193:6199   */\n      dup4\n        /* \"#utility.yul\":6176:6395   */\n    tag_276:\n        /* \"#utility.yul\":6210:6216   */\n      dup2\n        /* \"#utility.yul\":6205:6208   */\n      dup2\n        /* \"#utility.yul\":6202:6217   */\n      lt\n        /* \"#utility.yul\":6176:6395   */\n      iszero\n      tag_278\n      jumpi\n        /* \"#utility.yul\":6285:6288   */\n      dup1\n        /* \"#utility.yul\":6314:6350   */\n      tag_279\n        /* \"#utility.yul\":6346:6349   */\n      dup9\n        /* \"#utility.yul\":6334:6344   */\n      dup3\n        /* \"#utility.yul\":6314:6350   */\n      tag_186\n      jump\t// in\n    tag_279:\n        /* \"#utility.yul\":6309:6312   */\n      dup5\n        /* \"#utility.yul\":6302:6351   */\n      mstore\n        /* \"#utility.yul\":6380:6384   */\n      0x20\n        /* \"#utility.yul\":6375:6378   */\n      dup5\n        /* \"#utility.yul\":6371:6385   */\n      add\n        /* \"#utility.yul\":6364:6385   */\n      swap4\n      pop\n        /* \"#utility.yul\":6252:6395   */\n      pop\n        /* \"#utility.yul\":6236:6240   */\n      0x20\n        /* \"#utility.yul\":6231:6234   */\n      dup2\n        /* \"#utility.yul\":6227:6241   */\n      add\n        /* \"#utility.yul\":6220:6241   */\n      swap1\n      pop\n        /* \"#utility.yul\":6176:6395   */\n      jump(tag_276)\n    tag_278:\n        /* \"#utility.yul\":6180:6201   */\n      pop\n        /* \"#utility.yul\":5795:6401   */\n      pop\n      pop\n        /* \"#utility.yul\":5694:6401   */\n      swap4\n      swap3\n      pop\n      pop\n      pop\n      jump\t// out\n        /* \"#utility.yul\":6423:6791   */\n    tag_188:\n        /* \"#utility.yul\":6493:6498   */\n      0x00\n        /* \"#utility.yul\":6542:6545   */\n      dup3\n        /* \"#utility.yul\":6535:6539   */\n      0x1f\n        /* \"#utility.yul\":6527:6533   */\n      dup4\n        /* \"#utility.yul\":6523:6540   */\n      add\n        /* \"#utility.yul\":6519:6546   */\n      slt\n        /* \"#utility.yul\":6509:6631   */\n      tag_281\n      jumpi\n        /* \"#utility.yul\":6550:6629   */\n      tag_282\n      tag_174\n      jump\t// in\n    tag_282:\n        /* \"#utility.yul\":6509:6631   */\n    tag_281:\n        /* \"#utility.yul\":6667:6673   */\n      dup2\n        /* \"#utility.yul\":6654:6674   */\n      calldataload\n        /* \"#utility.yul\":6692:6785   */\n      tag_283\n        /* \"#utility.yul\":6781:6784   */\n      dup5\n        /* \"#utility.yul\":6773:6779   */\n      dup3\n        /* \"#utility.yul\":6766:6770   */\n      0x20\n        /* \"#utility.yul\":6758:6764   */\n      dup7\n        /* \"#utility.yul\":6754:6771   */\n      add\n        /* \"#utility.yul\":6692:6785   */\n      tag_187\n      jump\t// in\n    tag_283:\n        /* \"#utility.yul\":6683:6785   */\n      swap2\n      pop\n        /* \"#utility.yul\":6499:6791   */\n      pop\n        /* \"#utility.yul\":6423:6791   */\n      swap3\n      swap2\n      pop\n      pop\n      jump\t// out\n        /* \"#utility.yul\":6797:7687   */\n    tag_21:\n        /* \"#utility.yul\":6913:6919   */\n      0x00\n        /* \"#utility.yul\":6921:6927   */\n      0x00\n        /* \"#utility.yul\":6970:6972   */\n      0x40\n        /* \"#utility.yul\":6958:6967   */\n      dup4\n        /* \"#utility.yul\":6949:6956   */\n      dup6\n        /* \"#utility.yul\":6945:6968   */\n      sub\n        /* \"#utility.yul\":6941:6973   */\n      slt\n        /* \"#utility.yul\":6938:7057   */\n      iszero\n      tag_285\n      jumpi\n        /* \"#utility.yul\":6976:7055   */\n      tag_286\n      tag_164\n      jump\t// in\n    tag_286:\n        /* \"#utility.yul\":6938:7057   */\n    tag_285:\n        /* \"#utility.yul\":7124:7125   */\n      0x00\n        /* \"#utility.yul\":7113:7122   */\n      dup4\n        /* \"#utility.yul\":7109:7126   */\n      add\n        /* \"#utility.yul\":7096:7127   */\n      calldataload\n        /* \"#utility.yul\":7154:7172   */\n      0xffffffffffffffff\n        /* \"#utility.yul\":7146:7152   */\n      dup2\n        /* \"#utility.yul\":7143:7173   */\n      gt\n        /* \"#utility.yul\":7140:7257   */\n      iszero\n      tag_287\n      jumpi\n        /* \"#utility.yul\":7176:7255   */\n      tag_288\n      tag_165\n      jump\t// in\n    tag_288:\n        /* \"#utility.yul\":7140:7257   */\n    tag_287:\n        /* \"#utility.yul\":7281:7358   */\n      tag_289\n        /* \"#utility.yul\":7350:7357   */\n      dup6\n        /* \"#utility.yul\":7341:7347   */\n      dup3\n        /* \"#utility.yul\":7330:7339   */\n      dup7\n        /* \"#utility.yul\":7326:7348   */\n      add\n        /* \"#utility.yul\":7281:7358   */\n      tag_188\n      jump\t// in\n    tag_289:\n        /* \"#utility.yul\":7271:7358   */\n      swap3\n      pop\n        /* \"#utility.yul\":7067:7368   */\n      pop\n        /* \"#utility.yul\":7435:7437   */\n      0x20\n        /* \"#utility.yul\":7424:7433   */\n      dup4\n        /* \"#utility.yul\":7420:7438   */\n      add\n        /* \"#utility.yul\":7407:7439   */\n      calldataload\n        /* \"#utility.yul\":7466:7484   */\n      0xffffffffffffffff\n        /* \"#utility.yul\":7458:7464   */\n      dup2\n        /* \"#utility.yul\":7455:7485   */\n      gt\n        /* \"#utility.yul\":7452:7569   */\n      iszero\n      tag_290\n      jumpi\n        /* \"#utility.yul\":7488:7567   */\n      tag_291\n      tag_165\n      jump\t// in\n    tag_291:\n        /* \"#utility.yul\":7452:7569   */\n    tag_290:\n        /* \"#utility.yul\":7593:7670   */\n      tag_292\n        /* \"#utility.yul\":7662:7669   */\n      dup6\n        /* \"#utility.yul\":7653:7659   */\n      dup3\n        /* \"#utility.yul\":7642:7651   */\n      dup7\n        /* \"#utility.yul\":7638:7660   */\n      add\n        /* \"#utility.yul\":7593:7670   */\n      tag_188\n      jump\t// in\n    tag_292:\n        /* \"#utility.yul\":7583:7670   */\n      swap2\n      pop\n        /* \"#utility.yul\":7378:7680   */\n      pop\n        /* \"#utility.yul\":6797:7687   */\n      swap3\n      pop\n      swap3\n      swap1\n      pop\n      jump\t// out\n        /* \"#utility.yul\":7693:7806   */\n    tag_189:\n        /* \"#utility.yul\":7759:7765   */\n      0x00\n        /* \"#utility.yul\":7793:7798   */\n      dup2\n        /* \"#utility.yul\":7787:7799   */\n      mload\n        /* \"#utility.yul\":7777:7799   */\n      swap1\n      pop\n        /* \"#utility.yul\":7693:7806   */\n      swap2\n      swap1\n      pop\n      jump\t// out\n        /* \"#utility.yul\":7812:7995   */\n    tag_190:\n        /* \"#utility.yul\":7910:7921   */\n      0x00\n        /* \"#utility.yul\":7944:7950   */\n      dup3\n        /* \"#utility.yul\":7939:7942   */\n      dup3\n        /* \"#utility.yul\":7932:7951   */\n      mstore\n        /* \"#utility.yul\":7984:7988   */\n      0x20\n        /* \"#utility.yul\":7979:7982   */\n      dup3\n        /* \"#utility.yul\":7975:7989   */\n      add\n        /* \"#utility.yul\":7960:7989   */\n      swap1\n      pop\n        /* \"#utility.yul\":7812:7995   */\n      swap3\n      swap2\n      pop\n      pop\n      jump\t// out\n        /* \"#utility.yul\":8001:8132   */\n    tag_191:\n        /* \"#utility.yul\":8067:8071   */\n      0x00\n        /* \"#utility.yul\":8090:8093   */\n      dup2\n        /* \"#utility.yul\":8082:8093   */\n      swap1\n      pop\n        /* \"#utility.yul\":8120:8124   */\n      0x20\n        /* \"#utility.yul\":8115:8118   */\n      dup3\n        /* \"#utility.yul\":8111:8125   */\n      add\n        /* \"#utility.yul\":8103:8125   */\n      swap1\n      pop\n        /* \"#utility.yul\":8001:8132   */\n      swap2\n      swap1\n      pop\n      jump\t// out\n        /* \"#utility.yul\":8138:8243   */\n    tag_192:\n        /* \"#utility.yul\":8213:8236   */\n      tag_297\n        /* \"#utility.yul\":8230:8235   */\n      dup2\n        /* \"#utility.yul\":8213:8236   */\n      tag_184\n      jump\t// in\n    tag_297:\n        /* \"#utility.yul\":8208:8211   */\n      dup3\n        /* \"#utility.yul\":8201:8237   */\n      mstore\n        /* \"#utility.yul\":8138:8243   */\n      pop\n      pop\n      jump\t// out\n        /* \"#utility.yul\":8249:8424   */\n    tag_193:\n        /* \"#utility.yul\":8316:8326   */\n      0x00\n        /* \"#utility.yul\":8337:8381   */\n      tag_299\n        /* \"#utility.yul\":8377:8380   */\n      dup4\n        /* \"#utility.yul\":8369:8375   */\n      dup4\n        /* \"#utility.yul\":8337:8381   */\n      tag_192\n      jump\t// in\n    tag_299:\n        /* \"#utility.yul\":8413:8417   */\n      0x20\n        /* \"#utility.yul\":8408:8411   */\n      dup4\n        /* \"#utility.yul\":8404:8418   */\n      add\n        /* \"#utility.yul\":8390:8418   */\n      swap1\n      pop\n        /* \"#utility.yul\":8249:8424   */\n      swap3\n      swap2\n      pop\n      pop\n      jump\t// out\n        /* \"#utility.yul\":8430:8542   */\n    tag_194:\n        /* \"#utility.yul\":8499:8503   */\n      0x00\n        /* \"#utility.yul\":8531:8535   */\n      0x20\n        /* \"#utility.yul\":8526:8529   */\n      dup3\n        /* \"#utility.yul\":8522:8536   */\n      add\n        /* \"#utility.yul\":8514:8536   */\n      swap1\n      pop\n        /* \"#utility.yul\":8430:8542   */\n      swap2\n      swap1\n      pop\n      jump\t// out\n        /* \"#utility.yul\":8576:9300   */\n    tag_195:\n        /* \"#utility.yul\":8693:8696   */\n      0x00\n        /* \"#utility.yul\":8722:8775   */\n      tag_302\n        /* \"#utility.yul\":8769:8774   */\n      dup3\n        /* \"#utility.yul\":8722:8775   */\n      tag_189\n      jump\t// in\n    tag_302:\n        /* \"#utility.yul\":8791:8876   */\n      tag_303\n        /* \"#utility.yul\":8869:8875   */\n      dup2\n        /* \"#utility.yul\":8864:8867   */\n      dup6\n        /* \"#utility.yul\":8791:8876   */\n      tag_190\n      jump\t// in\n    tag_303:\n        /* \"#utility.yul\":8784:8876   */\n      swap4\n      pop\n        /* \"#utility.yul\":8900:8955   */\n      tag_304\n        /* \"#utility.yul\":8949:8954   */\n      dup4\n        /* \"#utility.yul\":8900:8955   */\n      tag_191\n      jump\t// in\n    tag_304:\n        /* \"#utility.yul\":8978:8985   */\n      dup1\n        /* \"#utility.yul\":9009:9010   */\n      0x00\n        /* \"#utility.yul\":8994:9275   */\n    tag_305:\n        /* \"#utility.yul\":9019:9025   */\n      dup4\n        /* \"#utility.yul\":9016:9017   */\n      dup2\n        /* \"#utility.yul\":9013:9026   */\n      lt\n        /* \"#utility.yul\":8994:9275   */\n      iszero\n      tag_307\n      jumpi\n        /* \"#utility.yul\":9095:9101   */\n      dup2\n        /* \"#utility.yul\":9089:9102   */\n      mload\n        /* \"#utility.yul\":9122:9183   */\n      tag_308\n        /* \"#utility.yul\":9179:9182   */\n      dup9\n        /* \"#utility.yul\":9164:9177   */\n      dup3\n        /* \"#utility.yul\":9122:9183   */\n      tag_193\n      jump\t// in\n    tag_308:\n        /* \"#utility.yul\":9115:9183   */\n      swap8\n      pop\n        /* \"#utility.yul\":9206:9265   */\n      tag_309\n        /* \"#utility.yul\":9258:9264   */\n      dup4\n        /* \"#utility.yul\":9206:9265   */\n      tag_194\n      jump\t// in\n    tag_309:\n        /* \"#utility.yul\":9196:9265   */\n      swap3\n      pop\n        /* \"#utility.yul\":9054:9275   */\n      pop\n        /* \"#utility.yul\":9041:9042   */\n      0x01\n        /* \"#utility.yul\":9038:9039   */\n      dup2\n        /* \"#utility.yul\":9034:9043   */\n      add\n        /* \"#utility.yul\":9029:9043   */\n      swap1\n      pop\n        /* \"#utility.yul\":8994:9275   */\n      jump(tag_305)\n    tag_307:\n        /* \"#utility.yul\":8998:9012   */\n      pop\n        /* \"#utility.yul\":9291:9294   */\n      dup6\n        /* \"#utility.yul\":9284:9294   */\n      swap4\n      pop\n        /* \"#utility.yul\":8698:9300   */\n      pop\n      pop\n      pop\n        /* \"#utility.yul\":8576:9300   */\n      swap3\n      swap2\n      pop\n      pop\n      jump\t// out\n        /* \"#utility.yul\":9306:9675   */\n    tag_24:\n        /* \"#utility.yul\":9447:9451   */\n      0x00\n        /* \"#utility.yul\":9485:9487   */\n      0x20\n        /* \"#utility.yul\":9474:9483   */\n      dup3\n        /* \"#utility.yul\":9470:9488   */\n      add\n        /* \"#utility.yul\":9462:9488   */\n      swap1\n      pop\n        /* \"#utility.yul\":9534:9543   */\n      dup2\n        /* \"#utility.yul\":9528:9532   */\n      dup2\n        /* \"#utility.yul\":9524:9544   */\n      sub\n        /* \"#utility.yul\":9520:9521   */\n      0x00\n        /* \"#utility.yul\":9509:9518   */\n      dup4\n        /* \"#utility.yul\":9505:9522   */\n      add\n        /* \"#utility.yul\":9498:9545   */\n      mstore\n        /* \"#utility.yul\":9562:9668   */\n      tag_311\n        /* \"#utility.yul\":9663:9667   */\n      dup2\n        /* \"#utility.yul\":9654:9660   */\n      dup5\n        /* \"#utility.yul\":9562:9668   */\n      tag_195\n      jump\t// in\n    tag_311:\n        /* \"#utility.yul\":9554:9668   */\n      swap1\n      pop\n        /* \"#utility.yul\":9306:9675   */\n      swap3\n      swap2\n      pop\n      pop\n      jump\t// out\n        /* \"#utility.yul\":9681:9796   */\n    tag_196:\n        /* \"#utility.yul\":9766:9789   */\n      tag_313\n        /* \"#utility.yul\":9783:9788   */\n      dup2\n        /* \"#utility.yul\":9766:9789   */\n      tag_184\n      jump\t// in\n    tag_313:\n        /* \"#utility.yul\":9761:9764   */\n      dup3\n        /* \"#utility.yul\":9754:9790   */\n      mstore\n        /* \"#utility.yul\":9681:9796   */\n      pop\n      pop\n      jump\t// out\n        /* \"#utility.yul\":9802:10020   */\n    tag_29:\n        /* \"#utility.yul\":9893:9897   */\n      0x00\n        /* \"#utility.yul\":9931:9933   */\n      0x20\n        /* \"#utility.yul\":9920:9929   */\n      dup3\n        /* \"#utility.yul\":9916:9934   */\n      add\n        /* \"#utility.yul\":9908:9934   */\n      swap1\n      pop\n        /* \"#utility.yul\":9944:10013   */\n      tag_315\n        /* \"#utility.yul\":10010:10011   */\n      0x00\n        /* \"#utility.yul\":9999:10008   */\n      dup4\n        /* \"#utility.yul\":9995:10012   */\n      add\n        /* \"#utility.yul\":9986:9992   */\n      dup5\n        /* \"#utility.yul\":9944:10013   */\n      tag_196\n      jump\t// in\n    tag_315:\n        /* \"#utility.yul\":9802:10020   */\n      swap3\n      swap2\n      pop\n      pop\n      jump\t// out\n        /* \"#utility.yul\":10026:10706   */\n    tag_32:\n        /* \"#utility.yul\":10117:10123   */\n      0x00\n        /* \"#utility.yul\":10125:10131   */\n      0x00\n        /* \"#utility.yul\":10174:10176   */\n      0x40\n        /* \"#utility.yul\":10162:10171   */\n      dup4\n        /* \"#utility.yul\":10153:10160   */\n      dup6\n        /* \"#utility.yul\":10149:10172   */\n      sub\n        /* \"#utility.yul\":10145:10177   */\n      slt\n        /* \"#utility.yul\":10142:10261   */\n      iszero\n      tag_317\n      jumpi\n        /* \"#utility.yul\":10180:10259   */\n      tag_318\n      tag_164\n      jump\t// in\n    tag_318:\n        /* \"#utility.yul\":10142:10261   */\n    tag_317:\n        /* \"#utility.yul\":10328:10329   */\n      0x00\n        /* \"#utility.yul\":10317:10326   */\n      dup4\n        /* \"#utility.yul\":10313:10330   */\n      add\n        /* \"#utility.yul\":10300:10331   */\n      calldataload\n        /* \"#utility.yul\":10358:10376   */\n      0xffffffffffffffff\n        /* \"#utility.yul\":10350:10356   */\n      dup2\n        /* \"#utility.yul\":10347:10377   */\n      gt\n        /* \"#utility.yul\":10344:10461   */\n      iszero\n      tag_319\n      jumpi\n        /* \"#utility.yul\":10380:10459   */\n      tag_320\n      tag_165\n      jump\t// in\n    tag_320:\n        /* \"#utility.yul\":10344:10461   */\n    tag_319:\n        /* \"#utility.yul\":10485:10562   */\n      tag_321\n        /* \"#utility.yul\":10554:10561   */\n      dup6\n        /* \"#utility.yul\":10545:10551   */\n      dup3\n        /* \"#utility.yul\":10534:10543   */\n      dup7\n        /* \"#utility.yul\":10530:10552   */\n      add\n        /* \"#utility.yul\":10485:10562   */\n      tag_188\n      jump\t// in\n    tag_321:\n        /* \"#utility.yul\":10475:10562   */\n      swap3\n      pop\n        /* \"#utility.yul\":10271:10572   */\n      pop\n        /* \"#utility.yul\":10611:10613   */\n      0x20\n        /* \"#utility.yul\":10637:10689   */\n      tag_322\n        /* \"#utility.yul\":10681:10688   */\n      dup6\n        /* \"#utility.yul\":10672:10678   */\n      dup3\n        /* \"#utility.yul\":10661:10670   */\n      dup7\n        /* \"#utility.yul\":10657:10679   */\n      add\n        /* \"#utility.yul\":10637:10689   */\n      tag_186\n      jump\t// in\n    tag_322:\n        /* \"#utility.yul\":10627:10689   */\n      swap2\n      pop\n        /* \"#utility.yul\":10582:10699   */\n      pop\n        /* \"#utility.yul\":10026:10706   */\n      swap3\n      pop\n      swap3\n      swap1\n      pop\n      jump\t// out\n        /* \"#utility.yul\":10712:10932   */\n    tag_197:\n        /* \"#utility.yul\":10852:10886   */\n      0x4e756d626572206d757374206265206265747765656e203120616e6420333939\n        /* \"#utility.yul\":10848:10849   */\n      0x00\n        /* \"#utility.yul\":10840:10846   */\n      dup3\n        /* \"#utility.yul\":10836:10850   */\n      add\n        /* \"#utility.yul\":10829:10887   */\n      mstore\n        /* \"#utility.yul\":10921:10924   */\n      0x3900000000000000000000000000000000000000000000000000000000000000\n        /* \"#utility.yul\":10916:10918   */\n      0x20\n        /* \"#utility.yul\":10908:10914   */\n      dup3\n        /* \"#utility.yul\":10904:10919   */\n      add\n        /* \"#utility.yul\":10897:10925   */\n      mstore\n        /* \"#utility.yul\":10712:10932   */\n      pop\n      jump\t// out\n        /* \"#utility.yul\":10938:11304   */\n    tag_198:\n        /* \"#utility.yul\":11080:11083   */\n      0x00\n        /* \"#utility.yul\":11101:11168   */\n      tag_325\n        /* \"#utility.yul\":11165:11167   */\n      0x21\n        /* \"#utility.yul\":11160:11163   */\n      dup4\n        /* \"#utility.yul\":11101:11168   */\n      tag_170\n      jump\t// in\n    tag_325:\n        /* \"#utility.yul\":11094:11168   */\n      swap2\n      pop\n        /* \"#utility.yul\":11177:11270   */\n      tag_326\n        /* \"#utility.yul\":11266:11269   */\n      dup3\n        /* \"#utility.yul\":11177:11270   */\n      tag_197\n      jump\t// in\n    tag_326:\n        /* \"#utility.yul\":11295:11297   */\n      0x40\n        /* \"#utility.yul\":11290:11293   */\n      dup3\n        /* \"#utility.yul\":11286:11298   */\n      add\n        /* \"#utility.yul\":11279:11298   */\n      swap1\n      pop\n        /* \"#utility.yul\":10938:11304   */\n      swap2\n      swap1\n      pop\n      jump\t// out\n        /* \"#utility.yul\":11310:11729   */\n    tag_39:\n        /* \"#utility.yul\":11476:11480   */\n      0x00\n        /* \"#utility.yul\":11514:11516   */\n      0x20\n        /* \"#utility.yul\":11503:11512   */\n      dup3\n        /* \"#utility.yul\":11499:11517   */\n      add\n        /* \"#utility.yul\":11491:11517   */\n      swap1\n      pop\n        /* \"#utility.yul\":11563:11572   */\n      dup2\n        /* \"#utility.yul\":11557:11561   */\n      dup2\n        /* \"#utility.yul\":11553:11573   */\n      sub\n        /* \"#utility.yul\":11549:11550   */\n      0x00\n        /* \"#utility.yul\":11538:11547   */\n      dup4\n        /* \"#utility.yul\":11534:11551   */\n      add\n        /* \"#utility.yul\":11527:11574   */\n      mstore\n        /* \"#utility.yul\":11591:11722   */\n      tag_328\n        /* \"#utility.yul\":11717:11721   */\n      dup2\n        /* \"#utility.yul\":11591:11722   */\n      tag_198\n      jump\t// in\n    tag_328:\n        /* \"#utility.yul\":11583:11722   */\n      swap1\n      pop\n        /* \"#utility.yul\":11310:11729   */\n      swap2\n      swap1\n      pop\n      jump\t// out\n        /* \"#utility.yul\":11735:11915   */\n    tag_47:\n        /* \"#utility.yul\":11783:11860   */\n      0x4e487b7100000000000000000000000000000000000000000000000000000000\n        /* \"#utility.yul\":11780:11781   */\n      0x00\n        /* \"#utility.yul\":11773:11861   */\n      mstore\n        /* \"#utility.yul\":11880:11884   */\n      0x32\n        /* \"#utility.yul\":11877:11878   */\n      0x04\n        /* \"#utility.yul\":11870:11885   */\n      mstore\n        /* \"#utility.yul\":11904:11908   */\n      0x24\n        /* \"#utility.yul\":11901:11902   */\n      0x00\n        /* \"#utility.yul\":11894:11909   */\n      revert\n        /* \"#utility.yul\":11921:12069   */\n    tag_199:\n        /* \"#utility.yul\":12023:12034   */\n      0x00\n        /* \"#utility.yul\":12060:12063   */\n      dup2\n        /* \"#utility.yul\":12045:12063   */\n      swap1\n      pop\n        /* \"#utility.yul\":11921:12069   */\n      swap3\n      swap2\n      pop\n      pop\n      jump\t// out\n        /* \"#utility.yul\":12075:12465   */\n    tag_200:\n        /* \"#utility.yul\":12181:12184   */\n      0x00\n        /* \"#utility.yul\":12209:12248   */\n      tag_332\n        /* \"#utility.yul\":12242:12247   */\n      dup3\n        /* \"#utility.yul\":12209:12248   */\n      tag_169\n      jump\t// in\n    tag_332:\n        /* \"#utility.yul\":12264:12353   */\n      tag_333\n        /* \"#utility.yul\":12346:12352   */\n      dup2\n        /* \"#utility.yul\":12341:12344   */\n      dup6\n        /* \"#utility.yul\":12264:12353   */\n      tag_199\n      jump\t// in\n    tag_333:\n        /* \"#utility.yul\":12257:12353   */\n      swap4\n      pop\n        /* \"#utility.yul\":12362:12427   */\n      tag_334\n        /* \"#utility.yul\":12420:12426   */\n      dup2\n        /* \"#utility.yul\":12415:12418   */\n      dup6\n        /* \"#utility.yul\":12408:12412   */\n      0x20\n        /* \"#utility.yul\":12401:12406   */\n      dup7\n        /* \"#utility.yul\":12397:12413   */\n      add\n        /* \"#utility.yul\":12362:12427   */\n      tag_171\n      jump\t// in\n    tag_334:\n        /* \"#utility.yul\":12452:12458   */\n      dup1\n        /* \"#utility.yul\":12447:12450   */\n      dup5\n        /* \"#utility.yul\":12443:12459   */\n      add\n        /* \"#utility.yul\":12436:12459   */\n      swap2\n      pop\n        /* \"#utility.yul\":12185:12465   */\n      pop\n        /* \"#utility.yul\":12075:12465   */\n      swap3\n      swap2\n      pop\n      pop\n      jump\t// out\n        /* \"#utility.yul\":12471:12906   */\n    tag_51:\n        /* \"#utility.yul\":12651:12654   */\n      0x00\n        /* \"#utility.yul\":12673:12768   */\n      tag_336\n        /* \"#utility.yul\":12764:12767   */\n      dup3\n        /* \"#utility.yul\":12755:12761   */\n      dup6\n        /* \"#utility.yul\":12673:12768   */\n      tag_200\n      jump\t// in\n    tag_336:\n        /* \"#utility.yul\":12666:12768   */\n      swap2\n      pop\n        /* \"#utility.yul\":12785:12880   */\n      tag_337\n        /* \"#utility.yul\":12876:12879   */\n      dup3\n        /* \"#utility.yul\":12867:12873   */\n      dup5\n        /* \"#utility.yul\":12785:12880   */\n      tag_200\n      jump\t// in\n    tag_337:\n        /* \"#utility.yul\":12778:12880   */\n      swap2\n      pop\n        /* \"#utility.yul\":12897:12900   */\n      dup2\n        /* \"#utility.yul\":12890:12900   */\n      swap1\n      pop\n        /* \"#utility.yul\":12471:12906   */\n      swap4\n      swap3\n      pop\n      pop\n      pop\n      jump\t// out\n        /* \"#utility.yul\":12912:13092   */\n    tag_201:\n        /* \"#utility.yul\":12960:13037   */\n      0x4e487b7100000000000000000000000000000000000000000000000000000000\n        /* \"#utility.yul\":12957:12958   */\n      0x00\n        /* \"#utility.yul\":12950:13038   */\n      mstore\n        /* \"#utility.yul\":13057:13061   */\n      0x11\n        /* \"#utility.yul\":13054:13055   */\n      0x04\n        /* \"#utility.yul\":13047:13062   */\n      mstore\n        /* \"#utility.yul\":13081:13085   */\n      0x24\n        /* \"#utility.yul\":13078:13079   */\n      0x00\n        /* \"#utility.yul\":13071:13086   */\n      revert\n        /* \"#utility.yul\":13098:13292   */\n    tag_55:\n        /* \"#utility.yul\":13138:13142   */\n      0x00\n        /* \"#utility.yul\":13158:13178   */\n      tag_340\n        /* \"#utility.yul\":13176:13177   */\n      dup3\n        /* \"#utility.yul\":13158:13178   */\n      tag_166\n      jump\t// in\n    tag_340:\n        /* \"#utility.yul\":13153:13178   */\n      swap2\n      pop\n        /* \"#utility.yul\":13192:13212   */\n      tag_341\n        /* \"#utility.yul\":13210:13211   */\n      dup4\n        /* \"#utility.yul\":13192:13212   */\n      tag_166\n      jump\t// in\n    tag_341:\n        /* \"#utility.yul\":13187:13212   */\n      swap3\n      pop\n        /* \"#utility.yul\":13236:13237   */\n      dup3\n        /* \"#utility.yul\":13233:13234   */\n      dup3\n        /* \"#utility.yul\":13229:13238   */\n      sub\n        /* \"#utility.yul\":13221:13238   */\n      swap1\n      pop\n        /* \"#utility.yul\":13260:13261   */\n      dup2\n        /* \"#utility.yul\":13254:13258   */\n      dup2\n        /* \"#utility.yul\":13251:13262   */\n      gt\n        /* \"#utility.yul\":13248:13285   */\n      iszero\n      tag_342\n      jumpi\n        /* \"#utility.yul\":13265:13283   */\n      tag_343\n      tag_201\n      jump\t// in\n    tag_343:\n        /* \"#utility.yul\":13248:13285   */\n    tag_342:\n        /* \"#utility.yul\":13098:13292   */\n      swap3\n      swap2\n      pop\n      pop\n      jump\t// out\n        /* \"#utility.yul\":13298:13478   */\n    tag_202:\n        /* \"#utility.yul\":13346:13423   */\n      0x4e487b7100000000000000000000000000000000000000000000000000000000\n        /* \"#utility.yul\":13343:13344   */\n      0x00\n        /* \"#utility.yul\":13336:13424   */\n      mstore\n        /* \"#utility.yul\":13443:13447   */\n      0x12\n        /* \"#utility.yul\":13440:13441   */\n      0x04\n        /* \"#utility.yul\":13433:13448   */\n      mstore\n        /* \"#utility.yul\":13467:13471   */\n      0x24\n        /* \"#utility.yul\":13464:13465   */\n      0x00\n        /* \"#utility.yul\":13457:13472   */\n      revert\n        /* \"#utility.yul\":13484:13669   */\n    tag_61:\n        /* \"#utility.yul\":13524:13525   */\n      0x00\n        /* \"#utility.yul\":13541:13561   */\n      tag_346\n        /* \"#utility.yul\":13559:13560   */\n      dup3\n        /* \"#utility.yul\":13541:13561   */\n      tag_166\n      jump\t// in\n    tag_346:\n        /* \"#utility.yul\":13536:13561   */\n      swap2\n      pop\n        /* \"#utility.yul\":13575:13595   */\n      tag_347\n        /* \"#utility.yul\":13593:13594   */\n      dup4\n        /* \"#utility.yul\":13575:13595   */\n      tag_166\n      jump\t// in\n    tag_347:\n        /* \"#utility.yul\":13570:13595   */\n      swap3\n      pop\n        /* \"#utility.yul\":13614:13615   */\n      dup3\n        /* \"#utility.yul\":13604:13639   */\n      tag_348\n      jumpi\n        /* \"#utility.yul\":13619:13637   */\n      tag_349\n      tag_202\n      jump\t// in\n    tag_349:\n        /* \"#utility.yul\":13604:13639   */\n    tag_348:\n        /* \"#utility.yul\":13661:13662   */\n      dup3\n        /* \"#utility.yul\":13658:13659   */\n      dup3\n        /* \"#utility.yul\":13654:13663   */\n      div\n        /* \"#utility.yul\":13649:13663   */\n      swap1\n      pop\n        /* \"#utility.yul\":13484:13669   */\n      swap3\n      swap2\n      pop\n      pop\n      jump\t// out\n        /* \"#utility.yul\":13675:13866   */\n    tag_76:\n        /* \"#utility.yul\":13715:13718   */\n      0x00\n        /* \"#utility.yul\":13734:13754   */\n      tag_351\n        /* \"#utility.yul\":13752:13753   */\n      dup3\n        /* \"#utility.yul\":13734:13754   */\n      tag_166\n      jump\t// in\n    tag_351:\n        /* \"#utility.yul\":13729:13754   */\n      swap2\n      pop\n        /* \"#utility.yul\":13768:13788   */\n      tag_352\n        /* \"#utility.yul\":13786:13787   */\n      dup4\n        /* \"#utility.yul\":13768:13788   */\n      tag_166\n      jump\t// in\n    tag_352:\n        /* \"#utility.yul\":13763:13788   */\n      swap3\n      pop\n        /* \"#utility.yul\":13811:13812   */\n      dup3\n        /* \"#utility.yul\":13808:13809   */\n      dup3\n        /* \"#utility.yul\":13804:13813   */\n      add\n        /* \"#utility.yul\":13797:13813   */\n      swap1\n      pop\n        /* \"#utility.yul\":13832:13835   */\n      dup1\n        /* \"#utility.yul\":13829:13830   */\n      dup3\n        /* \"#utility.yul\":13826:13836   */\n      gt\n        /* \"#utility.yul\":13823:13859   */\n      iszero\n      tag_353\n      jumpi\n        /* \"#utility.yul\":13839:13857   */\n      tag_354\n      tag_201\n      jump\t// in\n    tag_354:\n        /* \"#utility.yul\":13823:13859   */\n    tag_353:\n        /* \"#utility.yul\":13675:13866   */\n      swap3\n      swap2\n      pop\n      pop\n      jump\t// out\n        /* \"#utility.yul\":13872:14105   */\n    tag_94:\n        /* \"#utility.yul\":13911:13914   */\n      0x00\n        /* \"#utility.yul\":13934:13958   */\n      tag_356\n        /* \"#utility.yul\":13952:13957   */\n      dup3\n        /* \"#utility.yul\":13934:13958   */\n      tag_166\n      jump\t// in\n    tag_356:\n        /* \"#utility.yul\":13925:13958   */\n      swap2\n      pop\n        /* \"#utility.yul\":13980:14046   */\n      0xffffffffffffffffffffffffffffffffffffffffffffffffffffffffffffffff\n        /* \"#utility.yul\":13973:13978   */\n      dup3\n        /* \"#utility.yul\":13970:14047   */\n      sub\n        /* \"#utility.yul\":13967:14070   */\n      tag_357\n      jumpi\n        /* \"#utility.yul\":14050:14068   */\n      tag_358\n      tag_201\n      jump\t// in\n    tag_358:\n        /* \"#utility.yul\":13967:14070   */\n    tag_357:\n        /* \"#utility.yul\":14097:14098   */\n      0x01\n        /* \"#utility.yul\":14090:14095   */\n      dup3\n        /* \"#utility.yul\":14086:14099   */\n      add\n        /* \"#utility.yul\":14079:14099   */\n      swap1\n      pop\n        /* \"#utility.yul\":13872:14105   */\n      swap2\n      swap1\n      pop\n      jump\t// out\n        /* \"#utility.yul\":14111:14282   */\n    tag_132:\n        /* \"#utility.yul\":14150:14153   */\n      0x00\n        /* \"#utility.yul\":14173:14197   */\n      tag_360\n        /* \"#utility.yul\":14191:14196   */\n      dup3\n        /* \"#utility.yul\":14173:14197   */\n      tag_166\n      jump\t// in\n    tag_360:\n        /* \"#utility.yul\":14164:14197   */\n      swap2\n      pop\n        /* \"#utility.yul\":14219:14223   */\n      0x00\n        /* \"#utility.yul\":14212:14217   */\n      dup3\n        /* \"#utility.yul\":14209:14224   */\n      sub\n        /* \"#utility.yul\":14206:14247   */\n      tag_361\n      jumpi\n        /* \"#utility.yul\":14227:14245   */\n      tag_362\n      tag_201\n      jump\t// in\n    tag_362:\n        /* \"#utility.yul\":14206:14247   */\n    tag_361:\n        /* \"#utility.yul\":14274:14275   */\n      0x01\n        /* \"#utility.yul\":14267:14272   */\n      dup3\n        /* \"#utility.yul\":14263:14276   */\n      sub\n        /* \"#utility.yul\":14256:14276   */\n      swap1\n      pop\n        /* \"#utility.yul\":14111:14282   */\n      swap2\n      swap1\n      pop\n      jump\t// out\n        /* \"#utility.yul\":14288:14660   */\n    tag_135:\n        /* \"#utility.yul\":14327:14331   */\n      0x00\n        /* \"#utility.yul\":14347:14366   */\n      tag_364\n        /* \"#utility.yul\":14364:14365   */\n      dup3\n        /* \"#utility.yul\":14347:14366   */\n      tag_184\n      jump\t// in\n    tag_364:\n        /* \"#utility.yul\":14342:14366   */\n      swap2\n      pop\n        /* \"#utility.yul\":14380:14399   */\n      tag_365\n        /* \"#utility.yul\":14397:14398   */\n      dup4\n        /* \"#utility.yul\":14380:14399   */\n      tag_184\n      jump\t// in\n    tag_365:\n        /* \"#utility.yul\":14375:14399   */\n      swap3\n      pop\n        /* \"#utility.yul\":14423:14424   */\n      dup3\n        /* \"#utility.yul\":14420:14421   */\n      dup3\n        /* \"#utility.yul\":14416:14425   */\n      sub\n        /* \"#utility.yul\":14408:14425   */\n      swap1\n      pop\n        /* \"#utility.yul\":14617:14618   */\n      dup2\n        /* \"#utility.yul\":14611:14615   */\n      dup2\n        /* \"#utility.yul\":14607:14619   */\n      slt\n        /* \"#utility.yul\":14603:14604   */\n      0x00\n        /* \"#utility.yul\":14600:14601   */\n      dup5\n        /* \"#utility.yul\":14596:14605   */\n      slt\n        /* \"#utility.yul\":14592:14620   */\n      and\n        /* \"#utility.yul\":14575:14576   */\n      dup3\n        /* \"#utility.yul\":14569:14573   */\n      dup3\n        /* \"#utility.yul\":14565:14577   */\n      sgt\n        /* \"#utility.yul\":14560:14561   */\n      0x00\n        /* \"#utility.yul\":14557:14558   */\n      dup6\n        /* \"#utility.yul\":14553:14562   */\n      slt\n        /* \"#utility.yul\":14546:14563   */\n      iszero\n        /* \"#utility.yul\":14542:14578   */\n      and\n        /* \"#utility.yul\":14526:14630   */\n      or\n        /* \"#utility.yul\":14523:14653   */\n      iszero\n      tag_366\n      jumpi\n        /* \"#utility.yul\":14633:14651   */\n      tag_367\n      tag_201\n      jump\t// in\n    tag_367:\n        /* \"#utility.yul\":14523:14653   */\n    tag_366:\n        /* \"#utility.yul\":14288:14660   */\n      swap3\n      swap2\n      pop\n      pop\n      jump\t// out\n        /* \"#utility.yul\":14666:15051   */\n    tag_140:\n        /* \"#utility.yul\":14705:14706   */\n      0x00\n        /* \"#utility.yul\":14722:14741   */\n      tag_369\n        /* \"#utility.yul\":14739:14740   */\n      dup3\n        /* \"#utility.yul\":14722:14741   */\n      tag_184\n      jump\t// in\n    tag_369:\n        /* \"#utility.yul\":14717:14741   */\n      swap2\n      pop\n        /* \"#utility.yul\":14755:14774   */\n      tag_370\n        /* \"#utility.yul\":14772:14773   */\n      dup4\n        /* \"#utility.yul\":14755:14774   */\n      tag_184\n      jump\t// in\n    tag_370:\n        /* \"#utility.yul\":14750:14774   */\n      swap3\n      pop\n        /* \"#utility.yul\":14793:14794   */\n      dup3\n        /* \"#utility.yul\":14783:14818   */\n      tag_371\n      jumpi\n        /* \"#utility.yul\":14798:14816   */\n      tag_372\n      tag_202\n      jump\t// in\n    tag_372:\n        /* \"#utility.yul\":14783:14818   */\n    tag_371:\n        /* \"#utility.yul\":14984:14985   */\n      0x01\n        /* \"#utility.yul\":14981:14982   */\n      0x00\n        /* \"#utility.yul\":14977:14986   */\n      sub\n        /* \"#utility.yul\":14974:14975   */\n      dup4\n        /* \"#utility.yul\":14971:14987   */\n      eq\n        /* \"#utility.yul\":14890:14956   */\n      0x8000000000000000000000000000000000000000000000000000000000000000\n        /* \"#utility.yul\":14887:14888   */\n      dup4\n        /* \"#utility.yul\":14884:14957   */\n      eq\n        /* \"#utility.yul\":14867:14997   */\n      and\n        /* \"#utility.yul\":14864:15020   */\n      iszero\n      tag_373\n      jumpi\n        /* \"#utility.yul\":15000:15018   */\n      tag_374\n      tag_201\n      jump\t// in\n    tag_374:\n        /* \"#utility.yul\":14864:15020   */\n    tag_373:\n        /* \"#utility.yul\":15043:15044   */\n      dup3\n        /* \"#utility.yul\":15040:15041   */\n      dup3\n        /* \"#utility.yul\":15035:15045   */\n      sdiv\n        /* \"#utility.yul\":15030:15045   */\n      swap1\n      pop\n        /* \"#utility.yul\":14666:15051   */\n      swap3\n      swap2\n      pop\n      pop\n      jump\t// out\n        /* \"#utility.yul\":15057:15432   */\n    tag_142:\n        /* \"#utility.yul\":15096:15099   */\n      0x00\n        /* \"#utility.yul\":15115:15134   */\n      tag_376\n        /* \"#utility.yul\":15132:15133   */\n      dup3\n        /* \"#utility.yul\":15115:15134   */\n      tag_184\n      jump\t// in\n    tag_376:\n        /* \"#utility.yul\":15110:15134   */\n      swap2\n      pop\n        /* \"#utility.yul\":15148:15167   */\n      tag_377\n        /* \"#utility.yul\":15165:15166   */\n      dup4\n        /* \"#utility.yul\":15148:15167   */\n      tag_184\n      jump\t// in\n    tag_377:\n        /* \"#utility.yul\":15143:15167   */\n      swap3\n      pop\n        /* \"#utility.yul\":15190:15191   */\n      dup3\n        /* \"#utility.yul\":15187:15188   */\n      dup3\n        /* \"#utility.yul\":15183:15192   */\n      add\n        /* \"#utility.yul\":15176:15192   */\n      swap1\n      pop\n        /* \"#utility.yul\":15388:15389   */\n      dup3\n        /* \"#utility.yul\":15383:15386   */\n      dup2\n        /* \"#utility.yul\":15379:15390   */\n      slt\n        /* \"#utility.yul\":15372:15391   */\n      iszero\n        /* \"#utility.yul\":15368:15369   */\n      0x00\n        /* \"#utility.yul\":15365:15366   */\n      dup4\n        /* \"#utility.yul\":15361:15370   */\n      slt\n        /* \"#utility.yul\":15357:15392   */\n      and\n        /* \"#utility.yul\":15340:15341   */\n      dup4\n        /* \"#utility.yul\":15335:15338   */\n      dup3\n        /* \"#utility.yul\":15331:15342   */\n      slt\n        /* \"#utility.yul\":15326:15327   */\n      0x00\n        /* \"#utility.yul\":15323:15324   */\n      dup5\n        /* \"#utility.yul\":15319:15328   */\n      slt\n        /* \"#utility.yul\":15312:15329   */\n      iszero\n        /* \"#utility.yul\":15308:15343   */\n      and\n        /* \"#utility.yul\":15292:15402   */\n      or\n        /* \"#utility.yul\":15289:15425   */\n      iszero\n      tag_378\n      jumpi\n        /* \"#utility.yul\":15405:15423   */\n      tag_379\n      tag_201\n      jump\t// in\n    tag_379:\n        /* \"#utility.yul\":15289:15425   */\n    tag_378:\n        /* \"#utility.yul\":15057:15432   */\n      swap3\n      swap2\n      pop\n      pop\n      jump\t// out\n        /* \"#utility.yul\":15438:15619   */\n    tag_203:\n        /* \"#utility.yul\":15578:15611   */\n      0x496e76616c696420526f6d616e206e756d6572616c2063686172616374657200\n        /* \"#utility.yul\":15574:15575   */\n      0x00\n        /* \"#utility.yul\":15566:15572   */\n      dup3\n        /* \"#utility.yul\":15562:15576   */\n      add\n        /* \"#utility.yul\":15555:15612   */\n      mstore\n        /* \"#utility.yul\":15438:15619   */\n      pop\n      jump\t// out\n        /* \"#utility.yul\":15625:15991   */\n    tag_204:\n        /* \"#utility.yul\":15767:15770   */\n      0x00\n        /* \"#utility.yul\":15788:15855   */\n      tag_382\n        /* \"#utility.yul\":15852:15854   */\n      0x1f\n        /* \"#utility.yul\":15847:15850   */\n      dup4\n        /* \"#utility.yul\":15788:15855   */\n      tag_170\n      jump\t// in\n    tag_382:\n        /* \"#utility.yul\":15781:15855   */\n      swap2\n      pop\n        /* \"#utility.yul\":15864:15957   */\n      tag_383\n        /* \"#utility.yul\":15953:15956   */\n      dup3\n        /* \"#utility.yul\":15864:15957   */\n      tag_203\n      jump\t// in\n    tag_383:\n        /* \"#utility.yul\":15982:15984   */\n      0x20\n        /* \"#utility.yul\":15977:15980   */\n      dup3\n        /* \"#utility.yul\":15973:15985   */\n      add\n        /* \"#utility.yul\":15966:15985   */\n      swap1\n      pop\n        /* \"#utility.yul\":15625:15991   */\n      swap2\n      swap1\n      pop\n      jump\t// out\n        /* \"#utility.yul\":15997:16416   */\n    tag_162:\n        /* \"#utility.yul\":16163:16167   */\n      0x00\n        /* \"#utility.yul\":16201:16203   */\n      0x20\n        /* \"#utility.yul\":16190:16199   */\n      dup3\n        /* \"#utility.yul\":16186:16204   */\n      add\n        /* \"#utility.yul\":16178:16204   */\n      swap1\n      pop\n        /* \"#utility.yul\":16250:16259   */\n      dup2\n        /* \"#utility.yul\":16244:16248   */\n      dup2\n        /* \"#utility.yul\":16240:16260   */\n      sub\n        /* \"#utility.yul\":16236:16237   */\n      0x00\n        /* \"#utility.yul\":16225:16234   */\n      dup4\n        /* \"#utility.yul\":16221:16238   */\n      add\n        /* \"#utility.yul\":16214:16261   */\n      mstore\n        /* \"#utility.yul\":16278:16409   */\n      tag_385\n        /* \"#utility.yul\":16404:16408   */\n      dup2\n        /* \"#utility.yul\":16278:16409   */\n      tag_204\n      jump\t// in\n    tag_385:\n        /* \"#utility.yul\":16270:16409   */\n      swap1\n      pop\n        /* \"#utility.yul\":15997:16416   */\n      swap2\n      swap1\n      pop\n      jump\t// out\n\n    auxdata: 0xa2646970667358221220ea11fd4ef1249e3f46a68952b8c080226f3bba246a3d0ef12d7cb8dac21cd90f64736f6c634300081f0033\n}\n",
				"bytecode": {
					"linkReferences": {},
					"object": "6080604052348015600e575f5ffd5b5061166f8061001c5f395ff3fe608060405234801561000f575f5ffd5b5060043610610055575f3560e01c80630cbc513a146100595780635729c211146100895780637591f01f146100b9578063baa97199146100e9578063f435370614610119575b5f5ffd5b610073600480360381019061006e9190610d7e565b610149565b6040516100809190610e19565b60405180910390f35b6100a3600480360381019061009e9190610f65565b6105d0565b6040516100b09190610e19565b60405180910390f35b6100d360048036038101906100ce91906110a3565b6106f1565b6040516100e091906111d0565b60405180910390f35b61010360048036038101906100fe9190610f65565b610934565b60405161011091906111ff565b60405180910390f35b610133600480360381019061012e9190611218565b6109d1565b60405161014091906111ff565b60405180910390f35b60605f8211801561015c5750610f9f8211155b61019b576040517f08c379a0000000000000000000000000000000000000000000000000000000008152600401610192906112e2565b60405180910390fd5b5f604051806101a001604052806040518060400160405280600181526020017f4d0000000000000000000000000000000000000000000000000000000000000081525081526020016040518060400160405280600281526020017f434d00000000000000000000000000000000000000000000000000000000000081525081526020016040518060400160405280600181526020017f440000000000000000000000000000000000000000000000000000000000000081525081526020016040518060400160405280600281526020017f434400000000000000000000000000000000000000000000000000000000000081525081526020016040518060400160405280600181526020017f430000000000000000000000000000000000000000000000000000000000000081525081526020016040518060400160405280600281526020017f584300000000000000000000000000000000000000000000000000000000000081525081526020016040518060400160405280600181526020017f4c0000000000000000000000000000000000000000000000000000000000000081525081526020016040518060400160405280600281526020017f584c00000000000000000000000000000000000000000000000000000000000081525081526020016040518060400160405280600181526020017f580000000000000000000000000000000000000000000000000000000000000081525081526020016040518060400160405280600281526020017f495800000000000000000000000000000000000000000000000000000000000081525081526020016040518060400160405280600181526020017f560000000000000000000000000000000000000000000000000000000000000081525081526020016040518060400160405280600281526020017f495600000000000000000000000000000000000000000000000000000000000081525081526020016040518060400160405280600181526020017f490000000000000000000000000000000000000000000000000000000000000081525081525090505f604051806101a001604052806103e8815260200161038481526020016101f48152602001610190815260200160648152602001605a81526020016032815260200160288152602001600a8152602001600981526020016005815260200160048152602001600181525090505f60405180602001604052805f81525090505f5f90505b600d8110156105c4575b8281600d811061054757610546611300565b5b602002015186106105b757818482600d811061056657610565611300565b5b602002015160405160200161057c929190611367565b60405160208183030381529060405291508281600d81106105a05761059f611300565b5b6020020151866105b091906113b7565b9550610534565b808060010191505061052a565b50809350505050919050565b60605f8290505f5f90505b600282516105e99190611417565b8110156106e75781600182845161060091906113b7565b61060a91906113b7565b8151811061061b5761061a611300565b5b602001015160f81c60f81b82828151811061063957610638611300565b5b602001015160f81c60f81b83838151811061065757610656611300565b5b6020010184600185875161066b91906113b7565b61067591906113b7565b8151811061068657610685611300565b5b60200101827effffffffffffffffffffffffffffffffffffffffffffffffffffffffffffff19165f1a9053827effffffffffffffffffffffffffffffffffffffffffffffffffffffffffffff19165f1a9053505080806001019150506105db565b5080915050919050565b60605f835190505f835190505f818361070a9190611447565b90505f8167ffffffffffffffff81111561072757610726610e41565b5b6040519080825280602002602001820160405280156107555781602001602082028036833780820191505090505b5090505f5f90505f5f90505f5f90505b868310801561077357508582105b1561085c5788828151811061078b5761078a611300565b5b60200260200101518a84815181106107a6576107a5611300565b5b602002602001015113610800578983815181106107c6576107c5611300565b5b60200260200101518482815181106107e1576107e0611300565b5b60200260200101818152505082806107f89061147a565b935050610849565b88828151811061081357610812611300565b5b602002602001015184828151811061082e5761082d611300565b5b60200260200101818152505081806108459061147a565b9250505b80806108549061147a565b915050610765565b5b868310156108c05789838151811061087857610877611300565b5b602002602001015184828151811061089357610892611300565b5b60200260200101818152505082806108aa9061147a565b93505080806108b89061147a565b91505061085d565b5b85821015610924578882815181106108dc576108db611300565b5b60200260200101518482815181106108f7576108f6611300565b5b602002602001018181525050818061090e9061147a565b925050808061091c9061147a565b9150506108c1565b8397505050505050505092915050565b5f5f5f90505f5f90505f845190505b5f8111156109c6575f8560018361095a91906113b7565b8151811061096b5761096a611300565b5b602001015160f81c60f81b90505f61098282610ab9565b90508381101561099f57808561099891906113b7565b94506109ae565b80856109ab9190611447565b94505b809350505080806109be906114c1565b915050610943565b508192505050919050565b5f5f5f90505f600185516109e591906114e8565b90505b808213610a8d575f600283836109fe91906114e8565b610a089190611528565b83610a139190611590565b905084868281518110610a2957610a28611300565b5b602002602001015103610a4157809350505050610ab3565b84868281518110610a5557610a54611300565b5b60200260200101511215610a7757600181610a709190611590565b9250610a87565b600181610a8491906114e8565b91505b506109e8565b7fffffffffffffffffffffffffffffffffffffffffffffffffffffffffffffffff925050505b92915050565b5f7f4900000000000000000000000000000000000000000000000000000000000000827effffffffffffffffffffffffffffffffffffffffffffffffffffffffffffff191603610b0c5760019050610d35565b7f5600000000000000000000000000000000000000000000000000000000000000827effffffffffffffffffffffffffffffffffffffffffffffffffffffffffffff191603610b5e5760059050610d35565b7f5800000000000000000000000000000000000000000000000000000000000000827effffffffffffffffffffffffffffffffffffffffffffffffffffffffffffff191603610bb057600a9050610d35565b7f4c00000000000000000000000000000000000000000000000000000000000000827effffffffffffffffffffffffffffffffffffffffffffffffffffffffffffff191603610c025760329050610d35565b7f4300000000000000000000000000000000000000000000000000000000000000827effffffffffffffffffffffffffffffffffffffffffffffffffffffffffffff191603610c545760649050610d35565b7f4400000000000000000000000000000000000000000000000000000000000000827effffffffffffffffffffffffffffffffffffffffffffffffffffffffffffff191603610ca7576101f49050610d35565b7f4d00000000000000000000000000000000000000000000000000000000000000827effffffffffffffffffffffffffffffffffffffffffffffffffffffffffffff191603610cfa576103e89050610d35565b6040517f08c379a0000000000000000000000000000000000000000000000000000000008152600401610d2c9061161b565b60405180910390fd5b919050565b5f604051905090565b5f5ffd5b5f5ffd5b5f819050919050565b610d5d81610d4b565b8114610d67575f5ffd5b50565b5f81359050610d7881610d54565b92915050565b5f60208284031215610d9357610d92610d43565b5b5f610da084828501610d6a565b91505092915050565b5f81519050919050565b5f82825260208201905092915050565b8281835e5f83830152505050565b5f601f19601f8301169050919050565b5f610deb82610da9565b610df58185610db3565b9350610e05818560208601610dc3565b610e0e81610dd1565b840191505092915050565b5f6020820190508181035f830152610e318184610de1565b905092915050565b5f5ffd5b5f5ffd5b7f4e487b71000000000000000000000000000000000000000000000000000000005f52604160045260245ffd5b610e7782610dd1565b810181811067ffffffffffffffff82111715610e9657610e95610e41565b5b80604052505050565b5f610ea8610d3a565b9050610eb48282610e6e565b919050565b5f67ffffffffffffffff821115610ed357610ed2610e41565b5b610edc82610dd1565b9050602081019050919050565b828183375f83830152505050565b5f610f09610f0484610eb9565b610e9f565b905082815260208101848484011115610f2557610f24610e3d565b5b610f30848285610ee9565b509392505050565b5f82601f830112610f4c57610f4b610e39565b5b8135610f5c848260208601610ef7565b91505092915050565b5f60208284031215610f7a57610f79610d43565b5b5f82013567ffffffffffffffff811115610f9757610f96610d47565b5b610fa384828501610f38565b91505092915050565b5f67ffffffffffffffff821115610fc657610fc5610e41565b5b602082029050602081019050919050565b5f5ffd5b5f819050919050565b610fed81610fdb565b8114610ff7575f5ffd5b50565b5f8135905061100881610fe4565b92915050565b5f61102061101b84610fac565b610e9f565b9050808382526020820190506020840283018581111561104357611042610fd7565b5b835b8181101561106c57806110588882610ffa565b845260208401935050602081019050611045565b5050509392505050565b5f82601f83011261108a57611089610e39565b5b813561109a84826020860161100e565b91505092915050565b5f5f604083850312156110b9576110b8610d43565b5b5f83013567ffffffffffffffff8111156110d6576110d5610d47565b5b6110e285828601611076565b925050602083013567ffffffffffffffff81111561110357611102610d47565b5b61110f85828601611076565b9150509250929050565b5f81519050919050565b5f82825260208201905092915050565b5f819050602082019050919050565b61114b81610fdb565b82525050565b5f61115c8383611142565b60208301905092915050565b5f602082019050919050565b5f61117e82611119565b6111888185611123565b935061119383611133565b805f5b838110156111c35781516111aa8882611151565b97506111b583611168565b925050600181019050611196565b5085935050505092915050565b5f6020820190508181035f8301526111e88184611174565b905092915050565b6111f981610fdb565b82525050565b5f6020820190506112125f8301846111f0565b92915050565b5f5f6040838503121561122e5761122d610d43565b5b5f83013567ffffffffffffffff81111561124b5761124a610d47565b5b61125785828601611076565b925050602061126885828601610ffa565b9150509250929050565b7f4e756d626572206d757374206265206265747765656e203120616e64203339395f8201527f3900000000000000000000000000000000000000000000000000000000000000602082015250565b5f6112cc602183610db3565b91506112d782611272565b604082019050919050565b5f6020820190508181035f8301526112f9816112c0565b9050919050565b7f4e487b71000000000000000000000000000000000000000000000000000000005f52603260045260245ffd5b5f81905092915050565b5f61134182610da9565b61134b818561132d565b935061135b818560208601610dc3565b80840191505092915050565b5f6113728285611337565b915061137e8284611337565b91508190509392505050565b7f4e487b71000000000000000000000000000000000000000000000000000000005f52601160045260245ffd5b5f6113c182610d4b565b91506113cc83610d4b565b92508282039050818111156113e4576113e361138a565b5b92915050565b7f4e487b71000000000000000000000000000000000000000000000000000000005f52601260045260245ffd5b5f61142182610d4b565b915061142c83610d4b565b92508261143c5761143b6113ea565b5b828204905092915050565b5f61145182610d4b565b915061145c83610d4b565b92508282019050808211156114745761147361138a565b5b92915050565b5f61148482610d4b565b91507fffffffffffffffffffffffffffffffffffffffffffffffffffffffffffffffff82036114b6576114b561138a565b5b600182019050919050565b5f6114cb82610d4b565b91505f82036114dd576114dc61138a565b5b600182039050919050565b5f6114f282610fdb565b91506114fd83610fdb565b925082820390508181125f8412168282135f8512151617156115225761152161138a565b5b92915050565b5f61153282610fdb565b915061153d83610fdb565b92508261154d5761154c6113ea565b5b60015f0383147f8000000000000000000000000000000000000000000000000000000000000000831416156115855761158461138a565b5b828205905092915050565b5f61159a82610fdb565b91506115a583610fdb565b92508282019050828112155f8312168382125f8412151617156115cb576115ca61138a565b5b92915050565b7f496e76616c696420526f6d616e206e756d6572616c20636861726163746572005f82015250565b5f611605601f83610db3565b9150611610826115d1565b602082019050919050565b5f6020820190508181035f830152611632816115f9565b905091905056fea2646970667358221220ea11fd4ef1249e3f46a68952b8c080226f3bba246a3d0ef12d7cb8dac21cd90f64736f6c634300081f0033",
					"opcodes": "PUSH1 0x80 PUSH1 0x40 MSTORE CALLVALUE DUP1 ISZERO PUSH1 0xE JUMPI PUSH0 PUSH0 REVERT JUMPDEST POP PUSH2 0x166F DUP1 PUSH2 0x1C PUSH0 CODECOPY PUSH0 RETURN INVALID PUSH1 0x80 PUSH1 0x40 MSTORE CALLVALUE DUP1 ISZERO PUSH2 0xF JUMPI PUSH0 PUSH0 REVERT JUMPDEST POP PUSH1 0x4 CALLDATASIZE LT PUSH2 0x55 JUMPI PUSH0 CALLDATALOAD PUSH1 0xE0 SHR DUP1 PUSH4 0xCBC513A EQ PUSH2 0x59 JUMPI DUP1 PUSH4 0x5729C211 EQ PUSH2 0x89 JUMPI DUP1 PUSH4 0x7591F01F EQ PUSH2 0xB9 JUMPI DUP1 PUSH4 0xBAA97199 EQ PUSH2 0xE9 JUMPI DUP1 PUSH4 0xF4353706 EQ PUSH2 0x119 JUMPI JUMPDEST PUSH0 PUSH0 REVERT JUMPDEST PUSH2 0x73 PUSH1 0x4 DUP1 CALLDATASIZE SUB DUP2 ADD SWAP1 PUSH2 0x6E SWAP2 SWAP1 PUSH2 0xD7E JUMP JUMPDEST PUSH2 0x149 JUMP JUMPDEST PUSH1 0x40 MLOAD PUSH2 0x80 SWAP2 SWAP1 PUSH2 0xE19 JUMP JUMPDEST PUSH1 0x40 MLOAD DUP1 SWAP2 SUB SWAP1 RETURN JUMPDEST PUSH2 0xA3 PUSH1 0x4 DUP1 CALLDATASIZE SUB DUP2 ADD SWAP1 PUSH2 0x9E SWAP2 SWAP1 PUSH2 0xF65 JUMP JUMPDEST PUSH2 0x5D0 JUMP JUMPDEST PUSH1 0x40 MLOAD PUSH2 0xB0 SWAP2 SWAP1 PUSH2 0xE19 JUMP JUMPDEST PUSH1 0x40 MLOAD DUP1 SWAP2 SUB SWAP1 RETURN JUMPDEST PUSH2 0xD3 PUSH1 0x4 DUP1 CALLDATASIZE SUB DUP2 ADD SWAP1 PUSH2 0xCE SWAP2 SWAP1 PUSH2 0x10A3 JUMP JUMPDEST PUSH2 0x6F1 JUMP JUMPDEST PUSH1 0x40 MLOAD PUSH2 0xE0 SWAP2 SWAP1 PUSH2 0x11D0 JUMP JUMPDEST PUSH1 0x40 MLOAD DUP1 SWAP2 SUB SWAP1 RETURN JUMPDEST PUSH2 0x103 PUSH1 0x4 DUP1 CALLDATASIZE SUB DUP2 ADD SWAP1 PUSH2 0xFE SWAP2 SWAP1 PUSH2 0xF65 JUMP JUMPDEST PUSH2 0x934 JUMP JUMPDEST PUSH1 0x40 MLOAD PUSH2 0x110 SWAP2 SWAP1 PUSH2 0x11FF JUMP JUMPDEST PUSH1 0x40 MLOAD DUP1 SWAP2 SUB SWAP1 RETURN JUMPDEST PUSH2 0x133 PUSH1 0x4 DUP1 CALLDATASIZE SUB DUP2 ADD SWAP1 PUSH2 0x12E SWAP2 SWAP1 PUSH2 0x1218 JUMP JUMPDEST PUSH2 0x9D1 JUMP JUMPDEST PUSH1 0x40 MLOAD PUSH2 0x140 SWAP2 SWAP1 PUSH2 0x11FF JUMP JUMPDEST PUSH1 0x40 MLOAD DUP1 SWAP2 SUB SWAP1 RETURN JUMPDEST PUSH1 0x60 PUSH0 DUP3 GT DUP1 ISZERO PUSH2 0x15C JUMPI POP PUSH2 0xF9F DUP3 GT ISZERO JUMPDEST PUSH2 0x19B JUMPI PUSH1 0x40 MLOAD PUSH32 0x8C379A000000000000000000000000000000000000000000000000000000000 DUP2 MSTORE PUSH1 0x4 ADD PUSH2 0x192 SWAP1 PUSH2 0x12E2 JUMP JUMPDEST PUSH1 0x40 MLOAD DUP1 SWAP2 SUB SWAP1 REVERT JUMPDEST PUSH0 PUSH1 0x40 MLOAD DUP1 PUSH2 0x1A0 ADD PUSH1 0x40 MSTORE DUP1 PUSH1 0x40 MLOAD DUP1 PUSH1 0x40 ADD PUSH1 0x40 MSTORE DUP1 PUSH1 0x1 DUP2 MSTORE PUSH1 0x20 ADD PUSH32 0x4D00000000000000000000000000000000000000000000000000000000000000 DUP2 MSTORE POP DUP2 MSTORE PUSH1 0x20 ADD PUSH1 0x40 MLOAD DUP1 PUSH1 0x40 ADD PUSH1 0x40 MSTORE DUP1 PUSH1 0x2 DUP2 MSTORE PUSH1 0x20 ADD PUSH32 0x434D000000000000000000000000000000000000000000000000000000000000 DUP2 MSTORE POP DUP2 MSTORE PUSH1 0x20 ADD PUSH1 0x40 MLOAD DUP1 PUSH1 0x40 ADD PUSH1 0x40 MSTORE DUP1 PUSH1 0x1 DUP2 MSTORE PUSH1 0x20 ADD PUSH32 0x4400000000000000000000000000000000000000000000000000000000000000 DUP2 MSTORE POP DUP2 MSTORE PUSH1 0x20 ADD PUSH1 0x40 MLOAD DUP1 PUSH1 0x40 ADD PUSH1 0x40 MSTORE DUP1 PUSH1 0x2 DUP2 MSTORE PUSH1 0x20 ADD PUSH32 0x4344000000000000000000000000000000000000000000000000000000000000 DUP2 MSTORE POP DUP2 MSTORE PUSH1 0x20 ADD PUSH1 0x40 MLOAD DUP1 PUSH1 0x40 ADD PUSH1 0x40 MSTORE DUP1 PUSH1 0x1 DUP2 MSTORE PUSH1 0x20 ADD PUSH32 0x4300000000000000000000000000000000000000000000000000000000000000 DUP2 MSTORE POP DUP2 MSTORE PUSH1 0x20 ADD PUSH1 0x40 MLOAD DUP1 PUSH1 0x40 ADD PUSH1 0x40 MSTORE DUP1 PUSH1 0x2 DUP2 MSTORE PUSH1 0x20 ADD PUSH32 0x5843000000000000000000000000000000000000000000000000000000000000 DUP2 MSTORE POP DUP2 MSTORE PUSH1 0x20 ADD PUSH1 0x40 MLOAD DUP1 PUSH1 0x40 ADD PUSH1 0x40 MSTORE DUP1 PUSH1 0x1 DUP2 MSTORE PUSH1 0x20 ADD PUSH32 0x4C00000000000000000000000000000000000000000000000000000000000000 DUP2 MSTORE POP DUP2 MSTORE PUSH1 0x20 ADD PUSH1 0x40 MLOAD DUP1 PUSH1 0x40 ADD PUSH1 0x40 MSTORE DUP1 PUSH1 0x2 DUP2 MSTORE PUSH1 0x20 ADD PUSH32 0x584C000000000000000000000000000000000000000000000000000000000000 DUP2 MSTORE POP DUP2 MSTORE PUSH1 0x20 ADD PUSH1 0x40 MLOAD DUP1 PUSH1 0x40 ADD PUSH1 0x40 MSTORE DUP1 PUSH1 0x1 DUP2 MSTORE PUSH1 0x20 ADD PUSH32 0x5800000000000000000000000000000000000000000000000000000000000000 DUP2 MSTORE POP DUP2 MSTORE PUSH1 0x20 ADD PUSH1 0x40 MLOAD DUP1 PUSH1 0x40 ADD PUSH1 0x40 MSTORE DUP1 PUSH1 0x2 DUP2 MSTORE PUSH1 0x20 ADD PUSH32 0x4958000000000000000000000000000000000000000000000000000000000000 DUP2 MSTORE POP DUP2 MSTORE PUSH1 0x20 ADD PUSH1 0x40 MLOAD DUP1 PUSH1 0x40 ADD PUSH1 0x40 MSTORE DUP1 PUSH1 0x1 DUP2 MSTORE PUSH1 0x20 ADD PUSH32 0x5600000000000000000000000000000000000000000000000000000000000000 DUP2 MSTORE POP DUP2 MSTORE PUSH1 0x20 ADD PUSH1 0x40 MLOAD DUP1 PUSH1 0x40 ADD PUSH1 0x40 MSTORE DUP1 PUSH1 0x2 DUP2 MSTORE PUSH1 0x20 ADD PUSH32 0x4956000000000000000000000000000000000000000000000000000000000000 DUP2 MSTORE POP DUP2 MSTORE PUSH1 0x20 ADD PUSH1 0x40 MLOAD DUP1 PUSH1 0x40 ADD PUSH1 0x40 MSTORE DUP1 PUSH1 0x1 DUP2 MSTORE PUSH1 0x20 ADD PUSH32 0x4900000000000000000000000000000000000000000000000000000000000000 DUP2 MSTORE POP DUP2 MSTORE POP SWAP1 POP PUSH0 PUSH1 0x40 MLOAD DUP1 PUSH2 0x1A0 ADD PUSH1 0x40 MSTORE DUP1 PUSH2 0x3E8 DUP2 MSTORE PUSH1 0x20 ADD PUSH2 0x384 DUP2 MSTORE PUSH1 0x20 ADD PUSH2 0x1F4 DUP2 MSTORE PUSH1 0x20 ADD PUSH2 0x190 DUP2 MSTORE PUSH1 0x20 ADD PUSH1 0x64 DUP2 MSTORE PUSH1 0x20 ADD PUSH1 0x5A DUP2 MSTORE PUSH1 0x20 ADD PUSH1 0x32 DUP2 MSTORE PUSH1 0x20 ADD PUSH1 0x28 DUP2 MSTORE PUSH1 0x20 ADD PUSH1 0xA DUP2 MSTORE PUSH1 0x20 ADD PUSH1 0x9 DUP2 MSTORE PUSH1 0x20 ADD PUSH1 0x5 DUP2 MSTORE PUSH1 0x20 ADD PUSH1 0x4 DUP2 MSTORE PUSH1 0x20 ADD PUSH1 0x1 DUP2 MSTORE POP SWAP1 POP PUSH0 PUSH1 0x40 MLOAD DUP1 PUSH1 0x20 ADD PUSH1 0x40 MSTORE DUP1 PUSH0 DUP2 MSTORE POP SWAP1 POP PUSH0 PUSH0 SWAP1 POP JUMPDEST PUSH1 0xD DUP2 LT ISZERO PUSH2 0x5C4 JUMPI JUMPDEST DUP3 DUP2 PUSH1 0xD DUP2 LT PUSH2 0x547 JUMPI PUSH2 0x546 PUSH2 0x1300 JUMP JUMPDEST JUMPDEST PUSH1 0x20 MUL ADD MLOAD DUP7 LT PUSH2 0x5B7 JUMPI DUP2 DUP5 DUP3 PUSH1 0xD DUP2 LT PUSH2 0x566 JUMPI PUSH2 0x565 PUSH2 0x1300 JUMP JUMPDEST JUMPDEST PUSH1 0x20 MUL ADD MLOAD PUSH1 0x40 MLOAD PUSH1 0x20 ADD PUSH2 0x57C SWAP3 SWAP2 SWAP1 PUSH2 0x1367 JUMP JUMPDEST PUSH1 0x40 MLOAD PUSH1 0x20 DUP2 DUP4 SUB SUB DUP2 MSTORE SWAP1 PUSH1 0x40 MSTORE SWAP2 POP DUP3 DUP2 PUSH1 0xD DUP2 LT PUSH2 0x5A0 JUMPI PUSH2 0x59F PUSH2 0x1300 JUMP JUMPDEST JUMPDEST PUSH1 0x20 MUL ADD MLOAD DUP7 PUSH2 0x5B0 SWAP2 SWAP1 PUSH2 0x13B7 JUMP JUMPDEST SWAP6 POP PUSH2 0x534 JUMP JUMPDEST DUP1 DUP1 PUSH1 0x1 ADD SWAP2 POP POP PUSH2 0x52A JUMP JUMPDEST POP DUP1 SWAP4 POP POP POP POP SWAP2 SWAP1 POP JUMP JUMPDEST PUSH1 0x60 PUSH0 DUP3 SWAP1 POP PUSH0 PUSH0 SWAP1 POP JUMPDEST PUSH1 0x2 DUP3 MLOAD PUSH2 0x5E9 SWAP2 SWAP1 PUSH2 0x1417 JUMP JUMPDEST DUP2 LT ISZERO PUSH2 0x6E7 JUMPI DUP2 PUSH1 0x1 DUP3 DUP5 MLOAD PUSH2 0x600 SWAP2 SWAP1 PUSH2 0x13B7 JUMP JUMPDEST PUSH2 0x60A SWAP2 SWAP1 PUSH2 0x13B7 JUMP JUMPDEST DUP2 MLOAD DUP2 LT PUSH2 0x61B JUMPI PUSH2 0x61A PUSH2 0x1300 JUMP JUMPDEST JUMPDEST PUSH1 0x20 ADD ADD MLOAD PUSH1 0xF8 SHR PUSH1 0xF8 SHL DUP3 DUP3 DUP2 MLOAD DUP2 LT PUSH2 0x639 JUMPI PUSH2 0x638 PUSH2 0x1300 JUMP JUMPDEST JUMPDEST PUSH1 0x20 ADD ADD MLOAD PUSH1 0xF8 SHR PUSH1 0xF8 SHL DUP4 DUP4 DUP2 MLOAD DUP2 LT PUSH2 0x657 JUMPI PUSH2 0x656 PUSH2 0x1300 JUMP JUMPDEST JUMPDEST PUSH1 0x20 ADD ADD DUP5 PUSH1 0x1 DUP6 DUP8 MLOAD PUSH2 0x66B SWAP2 SWAP1 PUSH2 0x13B7 JUMP JUMPDEST PUSH2 0x675 SWAP2 SWAP1 PUSH2 0x13B7 JUMP JUMPDEST DUP2 MLOAD DUP2 LT PUSH2 0x686 JUMPI PUSH2 0x685 PUSH2 0x1300 JUMP JUMPDEST JUMPDEST PUSH1 0x20 ADD ADD DUP3 PUSH31 0xFFFFFFFFFFFFFFFFFFFFFFFFFFFFFFFFFFFFFFFFFFFFFFFFFFFFFFFFFFFFFF NOT AND PUSH0 BYTE SWAP1 MSTORE8 DUP3 PUSH31 0xFFFFFFFFFFFFFFFFFFFFFFFFFFFFFFFFFFFFFFFFFFFFFFFFFFFFFFFFFFFFFF NOT AND PUSH0 BYTE SWAP1 MSTORE8 POP POP DUP1 DUP1 PUSH1 0x1 ADD SWAP2 POP POP PUSH2 0x5DB JUMP JUMPDEST POP DUP1 SWAP2 POP POP SWAP2 SWAP1 POP JUMP JUMPDEST PUSH1 0x60 PUSH0 DUP4 MLOAD SWAP1 POP PUSH0 DUP4 MLOAD SWAP1 POP PUSH0 DUP2 DUP4 PUSH2 0x70A SWAP2 SWAP1 PUSH2 0x1447 JUMP JUMPDEST SWAP1 POP PUSH0 DUP2 PUSH8 0xFFFFFFFFFFFFFFFF DUP2 GT ISZERO PUSH2 0x727 JUMPI PUSH2 0x726 PUSH2 0xE41 JUMP JUMPDEST JUMPDEST PUSH1 0x40 MLOAD SWAP1 DUP1 DUP3 MSTORE DUP1 PUSH1 0x20 MUL PUSH1 0x20 ADD DUP3 ADD PUSH1 0x40 MSTORE DUP1 ISZERO PUSH2 0x755 JUMPI DUP2 PUSH1 0x20 ADD PUSH1 0x20 DUP3 MUL DUP1 CALLDATASIZE DUP4 CALLDATACOPY DUP1 DUP3 ADD SWAP2 POP POP SWAP1 POP JUMPDEST POP SWAP1 POP PUSH0 PUSH0 SWAP1 POP PUSH0 PUSH0 SWAP1 POP PUSH0 PUSH0 SWAP1 POP JUMPDEST DUP7 DUP4 LT DUP1 ISZERO PUSH2 0x773 JUMPI POP DUP6 DUP3 LT JUMPDEST ISZERO PUSH2 0x85C JUMPI DUP9 DUP3 DUP2 MLOAD DUP2 LT PUSH2 0x78B JUMPI PUSH2 0x78A PUSH2 0x1300 JUMP JUMPDEST JUMPDEST PUSH1 0x20 MUL PUSH1 0x20 ADD ADD MLOAD DUP11 DUP5 DUP2 MLOAD DUP2 LT PUSH2 0x7A6 JUMPI PUSH2 0x7A5 PUSH2 0x1300 JUMP JUMPDEST JUMPDEST PUSH1 0x20 MUL PUSH1 0x20 ADD ADD MLOAD SGT PUSH2 0x800 JUMPI DUP10 DUP4 DUP2 MLOAD DUP2 LT PUSH2 0x7C6 JUMPI PUSH2 0x7C5 PUSH2 0x1300 JUMP JUMPDEST JUMPDEST PUSH1 0x20 MUL PUSH1 0x20 ADD ADD MLOAD DUP5 DUP3 DUP2 MLOAD DUP2 LT PUSH2 0x7E1 JUMPI PUSH2 0x7E0 PUSH2 0x1300 JUMP JUMPDEST JUMPDEST PUSH1 0x20 MUL PUSH1 0x20 ADD ADD DUP2 DUP2 MSTORE POP POP DUP3 DUP1 PUSH2 0x7F8 SWAP1 PUSH2 0x147A JUMP JUMPDEST SWAP4 POP POP PUSH2 0x849 JUMP JUMPDEST DUP9 DUP3 DUP2 MLOAD DUP2 LT PUSH2 0x813 JUMPI PUSH2 0x812 PUSH2 0x1300 JUMP JUMPDEST JUMPDEST PUSH1 0x20 MUL PUSH1 0x20 ADD ADD MLOAD DUP5 DUP3 DUP2 MLOAD DUP2 LT PUSH2 0x82E JUMPI PUSH2 0x82D PUSH2 0x1300 JUMP JUMPDEST JUMPDEST PUSH1 0x20 MUL PUSH1 0x20 ADD ADD DUP2 DUP2 MSTORE POP POP DUP2 DUP1 PUSH2 0x845 SWAP1 PUSH2 0x147A JUMP JUMPDEST SWAP3 POP POP JUMPDEST DUP1 DUP1 PUSH2 0x854 SWAP1 PUSH2 0x147A JUMP JUMPDEST SWAP2 POP POP PUSH2 0x765 JUMP JUMPDEST JUMPDEST DUP7 DUP4 LT ISZERO PUSH2 0x8C0 JUMPI DUP10 DUP4 DUP2 MLOAD DUP2 LT PUSH2 0x878 JUMPI PUSH2 0x877 PUSH2 0x1300 JUMP JUMPDEST JUMPDEST PUSH1 0x20 MUL PUSH1 0x20 ADD ADD MLOAD DUP5 DUP3 DUP2 MLOAD DUP2 LT PUSH2 0x893 JUMPI PUSH2 0x892 PUSH2 0x1300 JUMP JUMPDEST JUMPDEST PUSH1 0x20 MUL PUSH1 0x20 ADD ADD DUP2 DUP2 MSTORE POP POP DUP3 DUP1 PUSH2 0x8AA SWAP1 PUSH2 0x147A JUMP JUMPDEST SWAP4 POP POP DUP1 DUP1 PUSH2 0x8B8 SWAP1 PUSH2 0x147A JUMP JUMPDEST SWAP2 POP POP PUSH2 0x85D JUMP JUMPDEST JUMPDEST DUP6 DUP3 LT ISZERO PUSH2 0x924 JUMPI DUP9 DUP3 DUP2 MLOAD DUP2 LT PUSH2 0x8DC JUMPI PUSH2 0x8DB PUSH2 0x1300 JUMP JUMPDEST JUMPDEST PUSH1 0x20 MUL PUSH1 0x20 ADD ADD MLOAD DUP5 DUP3 DUP2 MLOAD DUP2 LT PUSH2 0x8F7 JUMPI PUSH2 0x8F6 PUSH2 0x1300 JUMP JUMPDEST JUMPDEST PUSH1 0x20 MUL PUSH1 0x20 ADD ADD DUP2 DUP2 MSTORE POP POP DUP2 DUP1 PUSH2 0x90E SWAP1 PUSH2 0x147A JUMP JUMPDEST SWAP3 POP POP DUP1 DUP1 PUSH2 0x91C SWAP1 PUSH2 0x147A JUMP JUMPDEST SWAP2 POP POP PUSH2 0x8C1 JUMP JUMPDEST DUP4 SWAP8 POP POP POP POP POP POP POP POP SWAP3 SWAP2 POP POP JUMP JUMPDEST PUSH0 PUSH0 PUSH0 SWAP1 POP PUSH0 PUSH0 SWAP1 POP PUSH0 DUP5 MLOAD SWAP1 POP JUMPDEST PUSH0 DUP2 GT ISZERO PUSH2 0x9C6 JUMPI PUSH0 DUP6 PUSH1 0x1 DUP4 PUSH2 0x95A SWAP2 SWAP1 PUSH2 0x13B7 JUMP JUMPDEST DUP2 MLOAD DUP2 LT PUSH2 0x96B JUMPI PUSH2 0x96A PUSH2 0x1300 JUMP JUMPDEST JUMPDEST PUSH1 0x20 ADD ADD MLOAD PUSH1 0xF8 SHR PUSH1 0xF8 SHL SWAP1 POP PUSH0 PUSH2 0x982 DUP3 PUSH2 0xAB9 JUMP JUMPDEST SWAP1 POP DUP4 DUP2 LT ISZERO PUSH2 0x99F JUMPI DUP1 DUP6 PUSH2 0x998 SWAP2 SWAP1 PUSH2 0x13B7 JUMP JUMPDEST SWAP5 POP PUSH2 0x9AE JUMP JUMPDEST DUP1 DUP6 PUSH2 0x9AB SWAP2 SWAP1 PUSH2 0x1447 JUMP JUMPDEST SWAP5 POP JUMPDEST DUP1 SWAP4 POP POP POP DUP1 DUP1 PUSH2 0x9BE SWAP1 PUSH2 0x14C1 JUMP JUMPDEST SWAP2 POP POP PUSH2 0x943 JUMP JUMPDEST POP DUP2 SWAP3 POP POP POP SWAP2 SWAP1 POP JUMP JUMPDEST PUSH0 PUSH0 PUSH0 SWAP1 POP PUSH0 PUSH1 0x1 DUP6 MLOAD PUSH2 0x9E5 SWAP2 SWAP1 PUSH2 0x14E8 JUMP JUMPDEST SWAP1 POP JUMPDEST DUP1 DUP3 SGT PUSH2 0xA8D JUMPI PUSH0 PUSH1 0x2 DUP4 DUP4 PUSH2 0x9FE SWAP2 SWAP1 PUSH2 0x14E8 JUMP JUMPDEST PUSH2 0xA08 SWAP2 SWAP1 PUSH2 0x1528 JUMP JUMPDEST DUP4 PUSH2 0xA13 SWAP2 SWAP1 PUSH2 0x1590 JUMP JUMPDEST SWAP1 POP DUP5 DUP7 DUP3 DUP2 MLOAD DUP2 LT PUSH2 0xA29 JUMPI PUSH2 0xA28 PUSH2 0x1300 JUMP JUMPDEST JUMPDEST PUSH1 0x20 MUL PUSH1 0x20 ADD ADD MLOAD SUB PUSH2 0xA41 JUMPI DUP1 SWAP4 POP POP POP POP PUSH2 0xAB3 JUMP JUMPDEST DUP5 DUP7 DUP3 DUP2 MLOAD DUP2 LT PUSH2 0xA55 JUMPI PUSH2 0xA54 PUSH2 0x1300 JUMP JUMPDEST JUMPDEST PUSH1 0x20 MUL PUSH1 0x20 ADD ADD MLOAD SLT ISZERO PUSH2 0xA77 JUMPI PUSH1 0x1 DUP2 PUSH2 0xA70 SWAP2 SWAP1 PUSH2 0x1590 JUMP JUMPDEST SWAP3 POP PUSH2 0xA87 JUMP JUMPDEST PUSH1 0x1 DUP2 PUSH2 0xA84 SWAP2 SWAP1 PUSH2 0x14E8 JUMP JUMPDEST SWAP2 POP JUMPDEST POP PUSH2 0x9E8 JUMP JUMPDEST PUSH32 0xFFFFFFFFFFFFFFFFFFFFFFFFFFFFFFFFFFFFFFFFFFFFFFFFFFFFFFFFFFFFFFFF SWAP3 POP POP POP JUMPDEST SWAP3 SWAP2 POP POP JUMP JUMPDEST PUSH0 PUSH32 0x4900000000000000000000000000000000000000000000000000000000000000 DUP3 PUSH31 0xFFFFFFFFFFFFFFFFFFFFFFFFFFFFFFFFFFFFFFFFFFFFFFFFFFFFFFFFFFFFFF NOT AND SUB PUSH2 0xB0C JUMPI PUSH1 0x1 SWAP1 POP PUSH2 0xD35 JUMP JUMPDEST PUSH32 0x5600000000000000000000000000000000000000000000000000000000000000 DUP3 PUSH31 0xFFFFFFFFFFFFFFFFFFFFFFFFFFFFFFFFFFFFFFFFFFFFFFFFFFFFFFFFFFFFFF NOT AND SUB PUSH2 0xB5E JUMPI PUSH1 0x5 SWAP1 POP PUSH2 0xD35 JUMP JUMPDEST PUSH32 0x5800000000000000000000000000000000000000000000000000000000000000 DUP3 PUSH31 0xFFFFFFFFFFFFFFFFFFFFFFFFFFFFFFFFFFFFFFFFFFFFFFFFFFFFFFFFFFFFFF NOT AND SUB PUSH2 0xBB0 JUMPI PUSH1 0xA SWAP1 POP PUSH2 0xD35 JUMP JUMPDEST PUSH32 0x4C00000000000000000000000000000000000000000000000000000000000000 DUP3 PUSH31 0xFFFFFFFFFFFFFFFFFFFFFFFFFFFFFFFFFFFFFFFFFFFFFFFFFFFFFFFFFFFFFF NOT AND SUB PUSH2 0xC02 JUMPI PUSH1 0x32 SWAP1 POP PUSH2 0xD35 JUMP JUMPDEST PUSH32 0x4300000000000000000000000000000000000000000000000000000000000000 DUP3 PUSH31 0xFFFFFFFFFFFFFFFFFFFFFFFFFFFFFFFFFFFFFFFFFFFFFFFFFFFFFFFFFFFFFF NOT AND SUB PUSH2 0xC54 JUMPI PUSH1 0x64 SWAP1 POP PUSH2 0xD35 JUMP JUMPDEST PUSH32 0x4400000000000000000000000000000000000000000000000000000000000000 DUP3 PUSH31 0xFFFFFFFFFFFFFFFFFFFFFFFFFFFFFFFFFFFFFFFFFFFFFFFFFFFFFFFFFFFFFF NOT AND SUB PUSH2 0xCA7 JUMPI PUSH2 0x1F4 SWAP1 POP PUSH2 0xD35 JUMP JUMPDEST PUSH32 0x4D00000000000000000000000000000000000000000000000000000000000000 DUP3 PUSH31 0xFFFFFFFFFFFFFFFFFFFFFFFFFFFFFFFFFFFFFFFFFFFFFFFFFFFFFFFFFFFFFF NOT AND SUB PUSH2 0xCFA JUMPI PUSH2 0x3E8 SWAP1 POP PUSH2 0xD35 JUMP JUMPDEST PUSH1 0x40 MLOAD PUSH32 0x8C379A000000000000000000000000000000000000000000000000000000000 DUP2 MSTORE PUSH1 0x4 ADD PUSH2 0xD2C SWAP1 PUSH2 0x161B JUMP JUMPDEST PUSH1 0x40 MLOAD DUP1 SWAP2 SUB SWAP1 REVERT JUMPDEST SWAP2 SWAP1 POP JUMP JUMPDEST PUSH0 PUSH1 0x40 MLOAD SWAP1 POP SWAP1 JUMP JUMPDEST PUSH0 PUSH0 REVERT JUMPDEST PUSH0 PUSH0 REVERT JUMPDEST PUSH0 DUP2 SWAP1 POP SWAP2 SWAP1 POP JUMP JUMPDEST PUSH2 0xD5D DUP2 PUSH2 0xD4B JUMP JUMPDEST DUP2 EQ PUSH2 0xD67 JUMPI PUSH0 PUSH0 REVERT JUMPDEST POP JUMP JUMPDEST PUSH0 DUP2 CALLDATALOAD SWAP1 POP PUSH2 0xD78 DUP2 PUSH2 0xD54 JUMP JUMPDEST SWAP3 SWAP2 POP POP JUMP JUMPDEST PUSH0 PUSH1 0x20 DUP3 DUP5 SUB SLT ISZERO PUSH2 0xD93 JUMPI PUSH2 0xD92 PUSH2 0xD43 JUMP JUMPDEST JUMPDEST PUSH0 PUSH2 0xDA0 DUP5 DUP3 DUP6 ADD PUSH2 0xD6A JUMP JUMPDEST SWAP2 POP POP SWAP3 SWAP2 POP POP JUMP JUMPDEST PUSH0 DUP2 MLOAD SWAP1 POP SWAP2 SWAP1 POP JUMP JUMPDEST PUSH0 DUP3 DUP3 MSTORE PUSH1 0x20 DUP3 ADD SWAP1 POP SWAP3 SWAP2 POP POP JUMP JUMPDEST DUP3 DUP2 DUP4 MCOPY PUSH0 DUP4 DUP4 ADD MSTORE POP POP POP JUMP JUMPDEST PUSH0 PUSH1 0x1F NOT PUSH1 0x1F DUP4 ADD AND SWAP1 POP SWAP2 SWAP1 POP JUMP JUMPDEST PUSH0 PUSH2 0xDEB DUP3 PUSH2 0xDA9 JUMP JUMPDEST PUSH2 0xDF5 DUP2 DUP6 PUSH2 0xDB3 JUMP JUMPDEST SWAP4 POP PUSH2 0xE05 DUP2 DUP6 PUSH1 0x20 DUP7 ADD PUSH2 0xDC3 JUMP JUMPDEST PUSH2 0xE0E DUP2 PUSH2 0xDD1 JUMP JUMPDEST DUP5 ADD SWAP2 POP POP SWAP3 SWAP2 POP POP JUMP JUMPDEST PUSH0 PUSH1 0x20 DUP3 ADD SWAP1 POP DUP2 DUP2 SUB PUSH0 DUP4 ADD MSTORE PUSH2 0xE31 DUP2 DUP5 PUSH2 0xDE1 JUMP JUMPDEST SWAP1 POP SWAP3 SWAP2 POP POP JUMP JUMPDEST PUSH0 PUSH0 REVERT JUMPDEST PUSH0 PUSH0 REVERT JUMPDEST PUSH32 0x4E487B7100000000000000000000000000000000000000000000000000000000 PUSH0 MSTORE PUSH1 0x41 PUSH1 0x4 MSTORE PUSH1 0x24 PUSH0 REVERT JUMPDEST PUSH2 0xE77 DUP3 PUSH2 0xDD1 JUMP JUMPDEST DUP2 ADD DUP2 DUP2 LT PUSH8 0xFFFFFFFFFFFFFFFF DUP3 GT OR ISZERO PUSH2 0xE96 JUMPI PUSH2 0xE95 PUSH2 0xE41 JUMP JUMPDEST JUMPDEST DUP1 PUSH1 0x40 MSTORE POP POP POP JUMP JUMPDEST PUSH0 PUSH2 0xEA8 PUSH2 0xD3A JUMP JUMPDEST SWAP1 POP PUSH2 0xEB4 DUP3 DUP3 PUSH2 0xE6E JUMP JUMPDEST SWAP2 SWAP1 POP JUMP JUMPDEST PUSH0 PUSH8 0xFFFFFFFFFFFFFFFF DUP3 GT ISZERO PUSH2 0xED3 JUMPI PUSH2 0xED2 PUSH2 0xE41 JUMP JUMPDEST JUMPDEST PUSH2 0xEDC DUP3 PUSH2 0xDD1 JUMP JUMPDEST SWAP1 POP PUSH1 0x20 DUP2 ADD SWAP1 POP SWAP2 SWAP1 POP JUMP JUMPDEST DUP3 DUP2 DUP4 CALLDATACOPY PUSH0 DUP4 DUP4 ADD MSTORE POP POP POP JUMP JUMPDEST PUSH0 PUSH2 0xF09 PUSH2 0xF04 DUP5 PUSH2 0xEB9 JUMP JUMPDEST PUSH2 0xE9F JUMP JUMPDEST SWAP1 POP DUP3 DUP2 MSTORE PUSH1 0x20 DUP2 ADD DUP5 DUP5 DUP5 ADD GT ISZERO PUSH2 0xF25 JUMPI PUSH2 0xF24 PUSH2 0xE3D JUMP JUMPDEST JUMPDEST PUSH2 0xF30 DUP5 DUP3 DUP6 PUSH2 0xEE9 JUMP JUMPDEST POP SWAP4 SWAP3 POP POP POP JUMP JUMPDEST PUSH0 DUP3 PUSH1 0x1F DUP4 ADD SLT PUSH2 0xF4C JUMPI PUSH2 0xF4B PUSH2 0xE39 JUMP JUMPDEST JUMPDEST DUP2 CALLDATALOAD PUSH2 0xF5C DUP5 DUP3 PUSH1 0x20 DUP7 ADD PUSH2 0xEF7 JUMP JUMPDEST SWAP2 POP POP SWAP3 SWAP2 POP POP JUMP JUMPDEST PUSH0 PUSH1 0x20 DUP3 DUP5 SUB SLT ISZERO PUSH2 0xF7A JUMPI PUSH2 0xF79 PUSH2 0xD43 JUMP JUMPDEST JUMPDEST PUSH0 DUP3 ADD CALLDATALOAD PUSH8 0xFFFFFFFFFFFFFFFF DUP2 GT ISZERO PUSH2 0xF97 JUMPI PUSH2 0xF96 PUSH2 0xD47 JUMP JUMPDEST JUMPDEST PUSH2 0xFA3 DUP5 DUP3 DUP6 ADD PUSH2 0xF38 JUMP JUMPDEST SWAP2 POP POP SWAP3 SWAP2 POP POP JUMP JUMPDEST PUSH0 PUSH8 0xFFFFFFFFFFFFFFFF DUP3 GT ISZERO PUSH2 0xFC6 JUMPI PUSH2 0xFC5 PUSH2 0xE41 JUMP JUMPDEST JUMPDEST PUSH1 0x20 DUP3 MUL SWAP1 POP PUSH1 0x20 DUP2 ADD SWAP1 POP SWAP2 SWAP1 POP JUMP JUMPDEST PUSH0 PUSH0 REVERT JUMPDEST PUSH0 DUP2 SWAP1 POP SWAP2 SWAP1 POP JUMP JUMPDEST PUSH2 0xFED DUP2 PUSH2 0xFDB JUMP JUMPDEST DUP2 EQ PUSH2 0xFF7 JUMPI PUSH0 PUSH0 REVERT JUMPDEST POP JUMP JUMPDEST PUSH0 DUP2 CALLDATALOAD SWAP1 POP PUSH2 0x1008 DUP2 PUSH2 0xFE4 JUMP JUMPDEST SWAP3 SWAP2 POP POP JUMP JUMPDEST PUSH0 PUSH2 0x1020 PUSH2 0x101B DUP5 PUSH2 0xFAC JUMP JUMPDEST PUSH2 0xE9F JUMP JUMPDEST SWAP1 POP DUP1 DUP4 DUP3 MSTORE PUSH1 0x20 DUP3 ADD SWAP1 POP PUSH1 0x20 DUP5 MUL DUP4 ADD DUP6 DUP2 GT ISZERO PUSH2 0x1043 JUMPI PUSH2 0x1042 PUSH2 0xFD7 JUMP JUMPDEST JUMPDEST DUP4 JUMPDEST DUP2 DUP2 LT ISZERO PUSH2 0x106C JUMPI DUP1 PUSH2 0x1058 DUP9 DUP3 PUSH2 0xFFA JUMP JUMPDEST DUP5 MSTORE PUSH1 0x20 DUP5 ADD SWAP4 POP POP PUSH1 0x20 DUP2 ADD SWAP1 POP PUSH2 0x1045 JUMP JUMPDEST POP POP POP SWAP4 SWAP3 POP POP POP JUMP JUMPDEST PUSH0 DUP3 PUSH1 0x1F DUP4 ADD SLT PUSH2 0x108A JUMPI PUSH2 0x1089 PUSH2 0xE39 JUMP JUMPDEST JUMPDEST DUP2 CALLDATALOAD PUSH2 0x109A DUP5 DUP3 PUSH1 0x20 DUP7 ADD PUSH2 0x100E JUMP JUMPDEST SWAP2 POP POP SWAP3 SWAP2 POP POP JUMP JUMPDEST PUSH0 PUSH0 PUSH1 0x40 DUP4 DUP6 SUB SLT ISZERO PUSH2 0x10B9 JUMPI PUSH2 0x10B8 PUSH2 0xD43 JUMP JUMPDEST JUMPDEST PUSH0 DUP4 ADD CALLDATALOAD PUSH8 0xFFFFFFFFFFFFFFFF DUP2 GT ISZERO PUSH2 0x10D6 JUMPI PUSH2 0x10D5 PUSH2 0xD47 JUMP JUMPDEST JUMPDEST PUSH2 0x10E2 DUP6 DUP3 DUP7 ADD PUSH2 0x1076 JUMP JUMPDEST SWAP3 POP POP PUSH1 0x20 DUP4 ADD CALLDATALOAD PUSH8 0xFFFFFFFFFFFFFFFF DUP2 GT ISZERO PUSH2 0x1103 JUMPI PUSH2 0x1102 PUSH2 0xD47 JUMP JUMPDEST JUMPDEST PUSH2 0x110F DUP6 DUP3 DUP7 ADD PUSH2 0x1076 JUMP JUMPDEST SWAP2 POP POP SWAP3 POP SWAP3 SWAP1 POP JUMP JUMPDEST PUSH0 DUP2 MLOAD SWAP1 POP SWAP2 SWAP1 POP JUMP JUMPDEST PUSH0 DUP3 DUP3 MSTORE PUSH1 0x20 DUP3 ADD SWAP1 POP SWAP3 SWAP2 POP POP JUMP JUMPDEST PUSH0 DUP2 SWAP1 POP PUSH1 0x20 DUP3 ADD SWAP1 POP SWAP2 SWAP1 POP JUMP JUMPDEST PUSH2 0x114B DUP2 PUSH2 0xFDB JUMP JUMPDEST DUP3 MSTORE POP POP JUMP JUMPDEST PUSH0 PUSH2 0x115C DUP4 DUP4 PUSH2 0x1142 JUMP JUMPDEST PUSH1 0x20 DUP4 ADD SWAP1 POP SWAP3 SWAP2 POP POP JUMP JUMPDEST PUSH0 PUSH1 0x20 DUP3 ADD SWAP1 POP SWAP2 SWAP1 POP JUMP JUMPDEST PUSH0 PUSH2 0x117E DUP3 PUSH2 0x1119 JUMP JUMPDEST PUSH2 0x1188 DUP2 DUP6 PUSH2 0x1123 JUMP JUMPDEST SWAP4 POP PUSH2 0x1193 DUP4 PUSH2 0x1133 JUMP JUMPDEST DUP1 PUSH0 JUMPDEST DUP4 DUP2 LT ISZERO PUSH2 0x11C3 JUMPI DUP2 MLOAD PUSH2 0x11AA DUP9 DUP3 PUSH2 0x1151 JUMP JUMPDEST SWAP8 POP PUSH2 0x11B5 DUP4 PUSH2 0x1168 JUMP JUMPDEST SWAP3 POP POP PUSH1 0x1 DUP2 ADD SWAP1 POP PUSH2 0x1196 JUMP JUMPDEST POP DUP6 SWAP4 POP POP POP POP SWAP3 SWAP2 POP POP JUMP JUMPDEST PUSH0 PUSH1 0x20 DUP3 ADD SWAP1 POP DUP2 DUP2 SUB PUSH0 DUP4 ADD MSTORE PUSH2 0x11E8 DUP2 DUP5 PUSH2 0x1174 JUMP JUMPDEST SWAP1 POP SWAP3 SWAP2 POP POP JUMP JUMPDEST PUSH2 0x11F9 DUP2 PUSH2 0xFDB JUMP JUMPDEST DUP3 MSTORE POP POP JUMP JUMPDEST PUSH0 PUSH1 0x20 DUP3 ADD SWAP1 POP PUSH2 0x1212 PUSH0 DUP4 ADD DUP5 PUSH2 0x11F0 JUMP JUMPDEST SWAP3 SWAP2 POP POP JUMP JUMPDEST PUSH0 PUSH0 PUSH1 0x40 DUP4 DUP6 SUB SLT ISZERO PUSH2 0x122E JUMPI PUSH2 0x122D PUSH2 0xD43 JUMP JUMPDEST JUMPDEST PUSH0 DUP4 ADD CALLDATALOAD PUSH8 0xFFFFFFFFFFFFFFFF DUP2 GT ISZERO PUSH2 0x124B JUMPI PUSH2 0x124A PUSH2 0xD47 JUMP JUMPDEST JUMPDEST PUSH2 0x1257 DUP6 DUP3 DUP7 ADD PUSH2 0x1076 JUMP JUMPDEST SWAP3 POP POP PUSH1 0x20 PUSH2 0x1268 DUP6 DUP3 DUP7 ADD PUSH2 0xFFA JUMP JUMPDEST SWAP2 POP POP SWAP3 POP SWAP3 SWAP1 POP JUMP JUMPDEST PUSH32 0x4E756D626572206D757374206265206265747765656E203120616E6420333939 PUSH0 DUP3 ADD MSTORE PUSH32 0x3900000000000000000000000000000000000000000000000000000000000000 PUSH1 0x20 DUP3 ADD MSTORE POP JUMP JUMPDEST PUSH0 PUSH2 0x12CC PUSH1 0x21 DUP4 PUSH2 0xDB3 JUMP JUMPDEST SWAP2 POP PUSH2 0x12D7 DUP3 PUSH2 0x1272 JUMP JUMPDEST PUSH1 0x40 DUP3 ADD SWAP1 POP SWAP2 SWAP1 POP JUMP JUMPDEST PUSH0 PUSH1 0x20 DUP3 ADD SWAP1 POP DUP2 DUP2 SUB PUSH0 DUP4 ADD MSTORE PUSH2 0x12F9 DUP2 PUSH2 0x12C0 JUMP JUMPDEST SWAP1 POP SWAP2 SWAP1 POP JUMP JUMPDEST PUSH32 0x4E487B7100000000000000000000000000000000000000000000000000000000 PUSH0 MSTORE PUSH1 0x32 PUSH1 0x4 MSTORE PUSH1 0x24 PUSH0 REVERT JUMPDEST PUSH0 DUP2 SWAP1 POP SWAP3 SWAP2 POP POP JUMP JUMPDEST PUSH0 PUSH2 0x1341 DUP3 PUSH2 0xDA9 JUMP JUMPDEST PUSH2 0x134B DUP2 DUP6 PUSH2 0x132D JUMP JUMPDEST SWAP4 POP PUSH2 0x135B DUP2 DUP6 PUSH1 0x20 DUP7 ADD PUSH2 0xDC3 JUMP JUMPDEST DUP1 DUP5 ADD SWAP2 POP POP SWAP3 SWAP2 POP POP JUMP JUMPDEST PUSH0 PUSH2 0x1372 DUP3 DUP6 PUSH2 0x1337 JUMP JUMPDEST SWAP2 POP PUSH2 0x137E DUP3 DUP5 PUSH2 0x1337 JUMP JUMPDEST SWAP2 POP DUP2 SWAP1 POP SWAP4 SWAP3 POP POP POP JUMP JUMPDEST PUSH32 0x4E487B7100000000000000000000000000000000000000000000000000000000 PUSH0 MSTORE PUSH1 0x11 PUSH1 0x4 MSTORE PUSH1 0x24 PUSH0 REVERT JUMPDEST PUSH0 PUSH2 0x13C1 DUP3 PUSH2 0xD4B JUMP JUMPDEST SWAP2 POP PUSH2 0x13CC DUP4 PUSH2 0xD4B JUMP JUMPDEST SWAP3 POP DUP3 DUP3 SUB SWAP1 POP DUP2 DUP2 GT ISZERO PUSH2 0x13E4 JUMPI PUSH2 0x13E3 PUSH2 0x138A JUMP JUMPDEST JUMPDEST SWAP3 SWAP2 POP POP JUMP JUMPDEST PUSH32 0x4E487B7100000000000000000000000000000000000000000000000000000000 PUSH0 MSTORE PUSH1 0x12 PUSH1 0x4 MSTORE PUSH1 0x24 PUSH0 REVERT JUMPDEST PUSH0 PUSH2 0x1421 DUP3 PUSH2 0xD4B JUMP JUMPDEST SWAP2 POP PUSH2 0x142C DUP4 PUSH2 0xD4B JUMP JUMPDEST SWAP3 POP DUP3 PUSH2 0x143C JUMPI PUSH2 0x143B PUSH2 0x13EA JUMP JUMPDEST JUMPDEST DUP3 DUP3 DIV SWAP1 POP SWAP3 SWAP2 POP POP JUMP JUMPDEST PUSH0 PUSH2 0x1451 DUP3 PUSH2 0xD4B JUMP JUMPDEST SWAP2 POP PUSH2 0x145C DUP4 PUSH2 0xD4B JUMP JUMPDEST SWAP3 POP DUP3 DUP3 ADD SWAP1 POP DUP1 DUP3 GT ISZERO PUSH2 0x1474 JUMPI PUSH2 0x1473 PUSH2 0x138A JUMP JUMPDEST JUMPDEST SWAP3 SWAP2 POP POP JUMP JUMPDEST PUSH0 PUSH2 0x1484 DUP3 PUSH2 0xD4B JUMP JUMPDEST SWAP2 POP PUSH32 0xFFFFFFFFFFFFFFFFFFFFFFFFFFFFFFFFFFFFFFFFFFFFFFFFFFFFFFFFFFFFFFFF DUP3 SUB PUSH2 0x14B6 JUMPI PUSH2 0x14B5 PUSH2 0x138A JUMP JUMPDEST JUMPDEST PUSH1 0x1 DUP3 ADD SWAP1 POP SWAP2 SWAP1 POP JUMP JUMPDEST PUSH0 PUSH2 0x14CB DUP3 PUSH2 0xD4B JUMP JUMPDEST SWAP2 POP PUSH0 DUP3 SUB PUSH2 0x14DD JUMPI PUSH2 0x14DC PUSH2 0x138A JUMP JUMPDEST JUMPDEST PUSH1 0x1 DUP3 SUB SWAP1 POP SWAP2 SWAP1 POP JUMP JUMPDEST PUSH0 PUSH2 0x14F2 DUP3 PUSH2 0xFDB JUMP JUMPDEST SWAP2 POP PUSH2 0x14FD DUP4 PUSH2 0xFDB JUMP JUMPDEST SWAP3 POP DUP3 DUP3 SUB SWAP1 POP DUP2 DUP2 SLT PUSH0 DUP5 SLT AND DUP3 DUP3 SGT PUSH0 DUP6 SLT ISZERO AND OR ISZERO PUSH2 0x1522 JUMPI PUSH2 0x1521 PUSH2 0x138A JUMP JUMPDEST JUMPDEST SWAP3 SWAP2 POP POP JUMP JUMPDEST PUSH0 PUSH2 0x1532 DUP3 PUSH2 0xFDB JUMP JUMPDEST SWAP2 POP PUSH2 0x153D DUP4 PUSH2 0xFDB JUMP JUMPDEST SWAP3 POP DUP3 PUSH2 0x154D JUMPI PUSH2 0x154C PUSH2 0x13EA JUMP JUMPDEST JUMPDEST PUSH1 0x1 PUSH0 SUB DUP4 EQ PUSH32 0x8000000000000000000000000000000000000000000000000000000000000000 DUP4 EQ AND ISZERO PUSH2 0x1585 JUMPI PUSH2 0x1584 PUSH2 0x138A JUMP JUMPDEST JUMPDEST DUP3 DUP3 SDIV SWAP1 POP SWAP3 SWAP2 POP POP JUMP JUMPDEST PUSH0 PUSH2 0x159A DUP3 PUSH2 0xFDB JUMP JUMPDEST SWAP2 POP PUSH2 0x15A5 DUP4 PUSH2 0xFDB JUMP JUMPDEST SWAP3 POP DUP3 DUP3 ADD SWAP1 POP DUP3 DUP2 SLT ISZERO PUSH0 DUP4 SLT AND DUP4 DUP3 SLT PUSH0 DUP5 SLT ISZERO AND OR ISZERO PUSH2 0x15CB JUMPI PUSH2 0x15CA PUSH2 0x138A JUMP JUMPDEST JUMPDEST SWAP3 SWAP2 POP POP JUMP JUMPDEST PUSH32 0x496E76616C696420526F6D616E206E756D6572616C2063686172616374657200 PUSH0 DUP3 ADD MSTORE POP JUMP JUMPDEST PUSH0 PUSH2 0x1605 PUSH1 0x1F DUP4 PUSH2 0xDB3 JUMP JUMPDEST SWAP2 POP PUSH2 0x1610 DUP3 PUSH2 0x15D1 JUMP JUMPDEST PUSH1 0x20 DUP3 ADD SWAP1 POP SWAP2 SWAP1 POP JUMP JUMPDEST PUSH0 PUSH1 0x20 DUP3 ADD SWAP1 POP DUP2 DUP2 SUB PUSH0 DUP4 ADD MSTORE PUSH2 0x1632 DUP2 PUSH2 0x15F9 JUMP JUMPDEST SWAP1 POP SWAP2 SWAP1 POP JUMP INVALID LOG2 PUSH5 0x6970667358 0x22 SLT KECCAK256 0xEA GT REVERT 0x4E CALL 0x24 SWAP15 EXTCODEHASH CHAINID 0xA6 DUP10 MSTORE 0xB8 0xC0 DUP1 0x22 PUSH16 0x3BBA246A3D0EF12D7CB8DAC21CD90F64 PUSH20 0x6F6C634300081F00330000000000000000000000 "
				},
				"gasEstimates": {
					"creation": {
						"codeDepositCost": "1148600",
						"executionCost": "1192",
						"totalCost": "1149792"
					},
					"external": {
						"binarySearch(int256[],int256)": "infinite",
						"intToRoman(uint256)": "infinite",
						"mergeSortedArrays(int256[],int256[])": "infinite",
						"remanToInt(string)": "infinite",
						"reverseString(string)": "infinite"
					},
					"internal": {
						"_getRomanValue(bytes1)": "infinite"
					}
				},
				"methodIdentifiers": {
					"binarySearch(int256[],int256)": "f4353706",
					"intToRoman(uint256)": "0cbc513a",
					"mergeSortedArrays(int256[],int256[])": "7591f01f",
					"remanToInt(string)": "baa97199",
					"reverseString(string)": "5729c211"
				}
			},
			"storageLayout": {
				"storage": [],
				"types": null
			},
			"userdoc": {
				"kind": "user",
				"methods": {},
				"version": 1
			}
		}
	}
}