{
	"data": {
		"bytecode": {
			"linkReferences": {},
			"object": "6080604052348015600e575f5ffd5b5061166f8061001c5f395ff3fe608060405234801561000f575f5ffd5b5060043610610055575f3560e01c80630cbc513a146100595780635729c211146100895780637591f01f146100b9578063baa97199146100e9578063f435370614610119575b5f5ffd5b610073600480360381019061006e9190610d7e565b610149565b6040516100809190610e19565b60405180910390f35b6100a3600480360381019061009e9190610f65565b6105d0565b6040516100b09190610e19565b60405180910390f35b6100d360048036038101906100ce91906110a3565b6106f1565b6040516100e091906111d0565b60405180910390f35b61010360048036038101906100fe9190610f65565b610934565b60405161011091906111ff565b60405180910390f35b610133600480360381019061012e9190611218565b6109d1565b60405161014091906111ff565b60405180910390f35b60605f8211801561015c5750610f9f8211155b61019b576040517f08c379a0000000000000000000000000000000000000000000000000000000008152600401610192906112e2565b60405180910390fd5b5f604051806101a001604052806040518060400160405280600181526020017f4d0000000000000000000000000000000000000000000000000000000000000081525081526020016040518060400160405280600281526020017f434d00000000000000000000000000000000000000000000000000000000000081525081526020016040518060400160405280600181526020017f440000000000000000000000000000000000000000000000000000000000000081525081526020016040518060400160405280600281526020017f434400000000000000000000000000000000000000000000000000000000000081525081526020016040518060400160405280600181526020017f430000000000000000000000000000000000000000000000000000000000000081525081526020016040518060400160405280600281526020017f584300000000000000000000000000000000000000000000000000000000000081525081526020016040518060400160405280600181526020017f4c0000000000000000000000000000000000000000000000000000000000000081525081526020016040518060400160405280600281526020017f584c00000000000000000000000000000000000000000000000000000000000081525081526020016040518060400160405280600181526020017f580000000000000000000000000000000000000000000000000000000000000081525081526020016040518060400160405280600281526020017f495800000000000000000000000000000000000000000000000000000000000081525081526020016040518060400160405280600181526020017f560000000000000000000000000000000000000000000000000000000000000081525081526020016040518060400160405280600281526020017f495600000000000000000000000000000000000000000000000000000000000081525081526020016040518060400160405280600181526020017f490000000000000000000000000000000000000000000000000000000000000081525081525090505f604051806101a001604052806103e8815260200161038481526020016101f48152602001610190815260200160648152602001605a81526020016032815260200160288152602001600a8152602001600981526020016005815260200160048152602001600181525090505f60405180602001604052805f81525090505f5f90505b600d8110156105c4575b8281600d811061054757610546611300565b5b602002015186106105b757818482600d811061056657610565611300565b5b602002015160405160200161057c929190611367565b60405160208183030381529060405291508281600d81106105a05761059f611300565b5b6020020151866105b091906113b7565b9550610534565b808060010191505061052a565b50809350505050919050565b60605f8290505f5f90505b600282516105e99190611417565b8110156106e75781600182845161060091906113b7565b61060a91906113b7565b8151811061061b5761061a611300565b5b602001015160f81c60f81b82828151811061063957610638611300565b5b602001015160f81c60f81b83838151811061065757610656611300565b5b6020010184600185875161066b91906113b7565b61067591906113b7565b8151811061068657610685611300565b5b60200101827effffffffffffffffffffffffffffffffffffffffffffffffffffffffffffff19165f1a9053827effffffffffffffffffffffffffffffffffffffffffffffffffffffffffffff19165f1a9053505080806001019150506105db565b5080915050919050565b60605f835190505f835190505f818361070a9190611447565b90505f8167ffffffffffffffff81111561072757610726610e41565b5b6040519080825280602002602001820160405280156107555781602001602082028036833780820191505090505b5090505f5f90505f5f90505f5f90505b868310801561077357508582105b1561085c5788828151811061078b5761078a611300565b5b60200260200101518a84815181106107a6576107a5611300565b5b602002602001015113610800578983815181106107c6576107c5611300565b5b60200260200101518482815181106107e1576107e0611300565b5b60200260200101818152505082806107f89061147a565b935050610849565b88828151811061081357610812611300565b5b602002602001015184828151811061082e5761082d611300565b5b60200260200101818152505081806108459061147a565b9250505b80806108549061147a565b915050610765565b5b868310156108c05789838151811061087857610877611300565b5b602002602001015184828151811061089357610892611300565b5b60200260200101818152505082806108aa9061147a565b93505080806108b89061147a565b91505061085d565b5b85821015610924578882815181106108dc576108db611300565b5b60200260200101518482815181106108f7576108f6611300565b5b602002602001018181525050818061090e9061147a565b925050808061091c9061147a565b9150506108c1565b8397505050505050505092915050565b5f5f5f90505f5f90505f845190505b5f8111156109c6575f8560018361095a91906113b7565b8151811061096b5761096a611300565b5b602001015160f81c60f81b90505f61098282610ab9565b90508381101561099f57808561099891906113b7565b94506109ae565b80856109ab9190611447565b94505b809350505080806109be906114c1565b915050610943565b508192505050919050565b5f5f5f90505f600185516109e591906114e8565b90505b808213610a8d575f600283836109fe91906114e8565b610a089190611528565b83610a139190611590565b905084868281518110610a2957610a28611300565b5b602002602001015103610a4157809350505050610ab3565b84868281518110610a5557610a54611300565b5b60200260200101511215610a7757600181610a709190611590565b9250610a87565b600181610a8491906114e8565b91505b506109e8565b7fffffffffffffffffffffffffffffffffffffffffffffffffffffffffffffffff925050505b92915050565b5f7f4900000000000000000000000000000000000000000000000000000000000000827effffffffffffffffffffffffffffffffffffffffffffffffffffffffffffff191603610b0c5760019050610d35565b7f5600000000000000000000000000000000000000000000000000000000000000827effffffffffffffffffffffffffffffffffffffffffffffffffffffffffffff191603610b5e5760059050610d35565b7f5800000000000000000000000000000000000000000000000000000000000000827effffffffffffffffffffffffffffffffffffffffffffffffffffffffffffff191603610bb057600a9050610d35565b7f4c00000000000000000000000000000000000000000000000000000000000000827effffffffffffffffffffffffffffffffffffffffffffffffffffffffffffff191603610c025760329050610d35565b7f4300000000000000000000000000000000000000000000000000000000000000827effffffffffffffffffffffffffffffffffffffffffffffffffffffffffffff191603610c545760649050610d35565b7f4400000000000000000000000000000000000000000000000000000000000000827effffffffffffffffffffffffffffffffffffffffffffffffffffffffffffff191603610ca7576101f49050610d35565b7f4d00000000000000000000000000000000000000000000000000000000000000827effffffffffffffffffffffffffffffffffffffffffffffffffffffffffffff191603610cfa576103e89050610d35565b6040517f08c379a0000000000000000000000000000000000000000000000000000000008152600401610d2c9061161b565b60405180910390fd5b919050565b5f604051905090565b5f5ffd5b5f5ffd5b5f819050919050565b610d5d81610d4b565b8114610d67575f5ffd5b50565b5f81359050610d7881610d54565b92915050565b5f60208284031215610d9357610d92610d43565b5b5f610da084828501610d6a565b91505092915050565b5f81519050919050565b5f82825260208201905092915050565b8281835e5f83830152505050565b5f601f19601f8301169050919050565b5f610deb82610da9565b610df58185610db3565b9350610e05818560208601610dc3565b610e0e81610dd1565b840191505092915050565b5f6020820190508181035f830152610e318184610de1565b905092915050565b5f5ffd5b5f5ffd5b7f4e487b71000000000000000000000000000000000000000000000000000000005f52604160045260245ffd5b610e7782610dd1565b810181811067ffffffffffffffff82111715610e9657610e95610e41565b5b80604052505050565b5f610ea8610d3a565b9050610eb48282610e6e565b919050565b5f67ffffffffffffffff821115610ed357610ed2610e41565b5b610edc82610dd1565b9050602081019050919050565b828183375f83830152505050565b5f610f09610f0484610eb9565b610e9f565b905082815260208101848484011115610f2557610f24610e3d565b5b610f30848285610ee9565b509392505050565b5f82601f830112610f4c57610f4b610e39565b5b8135610f5c848260208601610ef7565b91505092915050565b5f60208284031215610f7a57610f79610d43565b5b5f82013567ffffffffffffffff811115610f9757610f96610d47565b5b610fa384828501610f38565b91505092915050565b5f67ffffffffffffffff821115610fc657610fc5610e41565b5b602082029050602081019050919050565b5f5ffd5b5f819050919050565b610fed81610fdb565b8114610ff7575f5ffd5b50565b5f8135905061100881610fe4565b92915050565b5f61102061101b84610fac565b610e9f565b9050808382526020820190506020840283018581111561104357611042610fd7565b5b835b8181101561106c57806110588882610ffa565b845260208401935050602081019050611045565b5050509392505050565b5f82601f83011261108a57611089610e39565b5b813561109a84826020860161100e565b91505092915050565b5f5f604083850312156110b9576110b8610d43565b5b5f83013567ffffffffffffffff8111156110d6576110d5610d47565b5b6110e285828601611076565b925050602083013567ffffffffffffffff81111561110357611102610d47565b5b61110f85828601611076565b9150509250929050565b5f81519050919050565b5f82825260208201905092915050565b5f819050602082019050919050565b61114b81610fdb565b82525050565b5f61115c8383611142565b60208301905092915050565b5f602082019050919050565b5f61117e82611119565b6111888185611123565b935061119383611133565b805f5b838110156111c35781516111aa8882611151565b97506111b583611168565b925050600181019050611196565b5085935050505092915050565b5f6020820190508181035f8301526111e88184611174565b905092915050565b6111f981610fdb565b82525050565b5f6020820190506112125f8301846111f0565b92915050565b5f5f6040838503121561122e5761122d610d43565b5b5f83013567ffffffffffffffff81111561124b5761124a610d47565b5b61125785828601611076565b925050602061126885828601610ffa565b9150509250929050565b7f4e756d626572206d757374206265206265747765656e203120616e64203339395f8201527f3900000000000000000000000000000000000000000000000000000000000000602082015250565b5f6112cc602183610db3565b91506112d782611272565b604082019050919050565b5f6020820190508181035f8301526112f9816112c0565b9050919050565b7f4e487b71000000000000000000000000000000000000000000000000000000005f52603260045260245ffd5b5f81905092915050565b5f61134182610da9565b61134b818561132d565b935061135b818560208601610dc3565b80840191505092915050565b5f6113728285611337565b915061137e8284611337565b91508190509392505050565b7f4e487b71000000000000000000000000000000000000000000000000000000005f52601160045260245ffd5b5f6113c182610d4b565b91506113cc83610d4b565b92508282039050818111156113e4576113e361138a565b5b92915050565b7f4e487b71000000000000000000000000000000000000000000000000000000005f52601260045260245ffd5b5f61142182610d4b565b915061142c83610d4b565b92508261143c5761143b6113ea565b5b828204905092915050565b5f61145182610d4b565b915061145c83610d4b565b92508282019050808211156114745761147361138a565b5b92915050565b5f61148482610d4b565b91507fffffffffffffffffffffffffffffffffffffffffffffffffffffffffffffffff82036114b6576114b561138a565b5b600182019050919050565b5f6114cb82610d4b565b91505f82036114dd576114dc61138a565b5b600182039050919050565b5f6114f282610fdb565b91506114fd83610fdb565b925082820390508181125f8412168282135f8512151617156115225761152161138a565b5b92915050565b5f61153282610fdb565b915061153d83610fdb565b92508261154d5761154c6113ea565b5b60015f0383147f8000000000000000000000000000000000000000000000000000000000000000831416156115855761158461138a565b5b828205905092915050565b5f61159a82610fdb565b91506115a583610fdb565b92508282019050828112155f8312168382125f8412151617156115cb576115ca61138a565b5b92915050565b7f496e76616c696420526f6d616e206e756d6572616c20636861726163746572005f82015250565b5f611605601f83610db3565b9150611610826115d1565b602082019050919050565b5f6020820190508181035f830152611632816115f9565b905091905056fea2646970667358221220ea11fd4ef1249e3f46a68952b8c080226f3bba246a3d0ef12d7cb8dac21cd90f64736f6c634300081f0033",
			"opcodes": "PUSH1 0x80 PUSH1 0x40 MSTORE CALLVALUE DUP1 ISZERO PUSH1 0xE JUMPI PUSH0 PUSH0 REVERT JUMPDEST POP PUSH2 0x166F DUP1 PUSH2 0x1C PUSH0 CODECOPY PUSH0 RETURN INVALID PUSH1 0x80 PUSH1 0x40 MSTORE CALLVALUE DUP1 ISZERO PUSH2 0xF JUMPI PUSH0 PUSH0 REVERT JUMPDEST POP PUSH1 0x4 CALLDATASIZE LT PUSH2 0x55 JUMPI PUSH0 CALLDATALOAD PUSH1 0xE0 SHR DUP1 PUSH4 0xCBC513A EQ PUSH2 0x59 JUMPI DUP1 PUSH4 0x5729C211 EQ PUSH2 0x89 JUMPI DUP1 PUSH4 0x7591F01F EQ PUSH2 0xB9 JUMPI DUP1 PUSH4 0xBAA97199 EQ PUSH2 0xE9 JUMPI DUP1 PUSH4 0xF4353706 EQ PUSH2 0x119 JUMPI JUMPDEST PUSH0 PUSH0 REVERT JUMPDEST PUSH2 0x73 PUSH1 0x4 DUP1 CALLDATASIZE SUB DUP2 ADD SWAP1 PUSH2 0x6E SWAP2 SWAP1 PUSH2 0xD7E JUMP JUMPDEST PUSH2 0x149 JUMP JUMPDEST PUSH1 0x40 MLOAD PUSH2 0x80 SWAP2 SWAP1 PUSH2 0xE19 JUMP JUMPDEST PUSH1 0x40 MLOAD DUP1 SWAP2 SUB SWAP1 RETURN JUMPDEST PUSH2 0xA3 PUSH1 0x4 DUP1 CALLDATASIZE SUB DUP2 ADD SWAP1 PUSH2 0x9E SWAP2 SWAP1 PUSH2 0xF65 JUMP JUMPDEST PUSH2 0x5D0 JUMP JUMPDEST PUSH1 0x40 MLOAD PUSH2 0xB0 SWAP2 SWAP1 PUSH2 0xE19 JUMP JUMPDEST PUSH1 0x40 MLOAD DUP1 SWAP2 SUB SWAP1 RETURN JUMPDEST PUSH2 0xD3 PUSH1 0x4 DUP1 CALLDATASIZE SUB DUP2 ADD SWAP1 PUSH2 0xCE SWAP2 SWAP1 PUSH2 0x10A3 JUMP JUMPDEST PUSH2 0x6F1 JUMP JUMPDEST PUSH1 0x40 MLOAD PUSH2 0xE0 SWAP2 SWAP1 PUSH2 0x11D0 JUMP JUMPDEST PUSH1 0x40 MLOAD DUP1 SWAP2 SUB SWAP1 RETURN JUMPDEST PUSH2 0x103 PUSH1 0x4 DUP1 CALLDATASIZE SUB DUP2 ADD SWAP1 PUSH2 0xFE SWAP2 SWAP1 PUSH2 0xF65 JUMP JUMPDEST PUSH2 0x934 JUMP JUMPDEST PUSH1 0x40 MLOAD PUSH2 0x110 SWAP2 SWAP1 PUSH2 0x11FF JUMP JUMPDEST PUSH1 0x40 MLOAD DUP1 SWAP2 SUB SWAP1 RETURN JUMPDEST PUSH2 0x133 PUSH1 0x4 DUP1 CALLDATASIZE SUB DUP2 ADD SWAP1 PUSH2 0x12E SWAP2 SWAP1 PUSH2 0x1218 JUMP JUMPDEST PUSH2 0x9D1 JUMP JUMPDEST PUSH1 0x40 MLOAD PUSH2 0x140 SWAP2 SWAP1 PUSH2 0x11FF JUMP JUMPDEST PUSH1 0x40 MLOAD DUP1 SWAP2 SUB SWAP1 RETURN JUMPDEST PUSH1 0x60 PUSH0 DUP3 GT DUP1 ISZERO PUSH2 0x15C JUMPI POP PUSH2 0xF9F DUP3 GT ISZERO JUMPDEST PUSH2 0x19B JUMPI PUSH1 0x40 MLOAD PUSH32 0x8C379A000000000000000000000000000000000000000000000000000000000 DUP2 MSTORE PUSH1 0x4 ADD PUSH2 0x192 SWAP1 PUSH2 0x12E2 JUMP JUMPDEST PUSH1 0x40 MLOAD DUP1 SWAP2 SUB SWAP1 REVERT JUMPDEST PUSH0 PUSH1 0x40 MLOAD DUP1 PUSH2 0x1A0 ADD PUSH1 0x40 MSTORE DUP1 PUSH1 0x40 MLOAD DUP1 PUSH1 0x40 ADD PUSH1 0x40 MSTORE DUP1 PUSH1 0x1 DUP2 MSTORE PUSH1 0x20 ADD PUSH32 0x4D00000000000000000000000000000000000000000000000000000000000000 DUP2 MSTORE POP DUP2 MSTORE PUSH1 0x20 ADD PUSH1 0x40 MLOAD DUP1 PUSH1 0x40 ADD PUSH1 0x40 MSTORE DUP1 PUSH1 0x2 DUP2 MSTORE PUSH1 0x20 ADD PUSH32 0x434D000000000000000000000000000000000000000000000000000000000000 DUP2 MSTORE POP DUP2 MSTORE PUSH1 0x20 ADD PUSH1 0x40 MLOAD DUP1 PUSH1 0x40 ADD PUSH1 0x40 MSTORE DUP1 PUSH1 0x1 DUP2 MSTORE PUSH1 0x20 ADD PUSH32 0x4400000000000000000000000000000000000000000000000000000000000000 DUP2 MSTORE POP DUP2 MSTORE PUSH1 0x20 ADD PUSH1 0x40 MLOAD DUP1 PUSH1 0x40 ADD PUSH1 0x40 MSTORE DUP1 PUSH1 0x2 DUP2 MSTORE PUSH1 0x20 ADD PUSH32 0x4344000000000000000000000000000000000000000000000000000000000000 DUP2 MSTORE POP DUP2 MSTORE PUSH1 0x20 ADD PUSH1 0x40 MLOAD DUP1 PUSH1 0x40 ADD PUSH1 0x40 MSTORE DUP1 PUSH1 0x1 DUP2 MSTORE PUSH1 0x20 ADD PUSH32 0x4300000000000000000000000000000000000000000000000000000000000000 DUP2 MSTORE POP DUP2 MSTORE PUSH1 0x20 ADD PUSH1 0x40 MLOAD DUP1 PUSH1 0x40 ADD PUSH1 0x40 MSTORE DUP1 PUSH1 0x2 DUP2 MSTORE PUSH1 0x20 ADD PUSH32 0x5843000000000000000000000000000000000000000000000000000000000000 DUP2 MSTORE POP DUP2 MSTORE PUSH1 0x20 ADD PUSH1 0x40 MLOAD DUP1 PUSH1 0x40 ADD PUSH1 0x40 MSTORE DUP1 PUSH1 0x1 DUP2 MSTORE PUSH1 0x20 ADD PUSH32 0x4C00000000000000000000000000000000000000000000000000000000000000 DUP2 MSTORE POP DUP2 MSTORE PUSH1 0x20 ADD PUSH1 0x40 MLOAD DUP1 PUSH1 0x40 ADD PUSH1 0x40 MSTORE DUP1 PUSH1 0x2 DUP2 MSTORE PUSH1 0x20 ADD PUSH32 0x584C000000000000000000000000000000000000000000000000000000000000 DUP2 MSTORE POP DUP2 MSTORE PUSH1 0x20 ADD PUSH1 0x40 MLOAD DUP1 PUSH1 0x40 ADD PUSH1 0x40 MSTORE DUP1 PUSH1 0x1 DUP2 MSTORE PUSH1 0x20 ADD PUSH32 0x5800000000000000000000000000000000000000000000000000000000000000 DUP2 MSTORE POP DUP2 MSTORE PUSH1 0x20 ADD PUSH1 0x40 MLOAD DUP1 PUSH1 0x40 ADD PUSH1 0x40 MSTORE DUP1 PUSH1 0x2 DUP2 MSTORE PUSH1 0x20 ADD PUSH32 0x4958000000000000000000000000000000000000000000000000000000000000 DUP2 MSTORE POP DUP2 MSTORE PUSH1 0x20 ADD PUSH1 0x40 MLOAD DUP1 PUSH1 0x40 ADD PUSH1 0x40 MSTORE DUP1 PUSH1 0x1 DUP2 MSTORE PUSH1 0x20 ADD PUSH32 0x5600000000000000000000000000000000000000000000000000000000000000 DUP2 MSTORE POP DUP2 MSTORE PUSH1 0x20 ADD PUSH1 0x40 MLOAD DUP1 PUSH1 0x40 ADD PUSH1 0x40 MSTORE DUP1 PUSH1 0x2 DUP2 MSTORE PUSH1 0x20 ADD PUSH32 0x4956000000000000000000000000000000000000000000000000000000000000 DUP2 MSTORE POP DUP2 MSTORE PUSH1 0x20 ADD PUSH1 0x40 MLOAD DUP1 PUSH1 0x40 ADD PUSH1 0x40 MSTORE DUP1 PUSH1 0x1 DUP2 MSTORE PUSH1 0x20 ADD PUSH32 0x4900000000000000000000000000000000000000000000000000000000000000 DUP2 MSTORE POP DUP2 MSTORE POP SWAP1 POP PUSH0 PUSH1 0x40 MLOAD DUP1 PUSH2 0x1A0 ADD PUSH1 0x40 MSTORE DUP1 PUSH2 0x3E8 DUP2 MSTORE PUSH1 0x20 ADD PUSH2 0x384 DUP2 MSTORE PUSH1 0x20 ADD PUSH2 0x1F4 DUP2 MSTORE PUSH1 0x20 ADD PUSH2 0x190 DUP2 MSTORE PUSH1 0x20 ADD PUSH1 0x64 DUP2 MSTORE PUSH1 0x20 ADD PUSH1 0x5A DUP2 MSTORE PUSH1 0x20 ADD PUSH1 0x32 DUP2 MSTORE PUSH1 0x20 ADD PUSH1 0x28 DUP2 MSTORE PUSH1 0x20 ADD PUSH1 0xA DUP2 MSTORE PUSH1 0x20 ADD PUSH1 0x9 DUP2 MSTORE PUSH1 0x20 ADD PUSH1 0x5 DUP2 MSTORE PUSH1 0x20 ADD PUSH1 0x4 DUP2 MSTORE PUSH1 0x20 ADD PUSH1 0x1 DUP2 MSTORE POP SWAP1 POP PUSH0 PUSH1 0x40 MLOAD DUP1 PUSH1 0x20 ADD PUSH1 0x40 MSTORE DUP1 PUSH0 DUP2 MSTORE POP SWAP1 POP PUSH0 PUSH0 SWAP1 POP JUMPDEST PUSH1 0xD DUP2 LT ISZERO PUSH2 0x5C4 JUMPI JUMPDEST DUP3 DUP2 PUSH1 0xD DUP2 LT PUSH2 0x547 JUMPI PUSH2 0x546 PUSH2 0x1300 JUMP JUMPDEST JUMPDEST PUSH1 0x20 MUL ADD MLOAD DUP7 LT PUSH2 0x5B7 JUMPI DUP2 DUP5 DUP3 PUSH1 0xD DUP2 LT PUSH2 0x566 JUMPI PUSH2 0x565 PUSH2 0x1300 JUMP JUMPDEST JUMPDEST PUSH1 0x20 MUL ADD MLOAD PUSH1 0x40 MLOAD PUSH1 0x20 ADD PUSH2 0x57C SWAP3 SWAP2 SWAP1 PUSH2 0x1367 JUMP JUMPDEST PUSH1 0x40 MLOAD PUSH1 0x20 DUP2 DUP4 SUB SUB DUP2 MSTORE SWAP1 PUSH1 0x40 MSTORE SWAP2 POP DUP3 DUP2 PUSH1 0xD DUP2 LT PUSH2 0x5A0 JUMPI PUSH2 0x59F PUSH2 0x1300 JUMP JUMPDEST JUMPDEST PUSH1 0x20 MUL ADD MLOAD DUP7 PUSH2 0x5B0 SWAP2 SWAP1 PUSH2 0x13B7 JUMP JUMPDEST SWAP6 POP PUSH2 0x534 JUMP JUMPDEST DUP1 DUP1 PUSH1 0x1 ADD SWAP2 POP POP PUSH2 0x52A JUMP JUMPDEST POP DUP1 SWAP4 POP POP POP POP SWAP2 SWAP1 POP JUMP JUMPDEST PUSH1 0x60 PUSH0 DUP3 SWAP1 POP PUSH0 PUSH0 SWAP1 POP JUMPDEST PUSH1 0x2 DUP3 MLOAD PUSH2 0x5E9 SWAP2 SWAP1 PUSH2 0x1417 JUMP JUMPDEST DUP2 LT ISZERO PUSH2 0x6E7 JUMPI DUP2 PUSH1 0x1 DUP3 DUP5 MLOAD PUSH2 0x600 SWAP2 SWAP1 PUSH2 0x13B7 JUMP JUMPDEST PUSH2 0x60A SWAP2 SWAP1 PUSH2 0x13B7 JUMP JUMPDEST DUP2 MLOAD DUP2 LT PUSH2 0x61B JUMPI PUSH2 0x61A PUSH2 0x1300 JUMP JUMPDEST JUMPDEST PUSH1 0x20 ADD ADD MLOAD PUSH1 0xF8 SHR PUSH1 0xF8 SHL DUP3 DUP3 DUP2 MLOAD DUP2 LT PUSH2 0x639 JUMPI PUSH2 0x638 PUSH2 0x1300 JUMP JUMPDEST JUMPDEST PUSH1 0x20 ADD ADD MLOAD PUSH1 0xF8 SHR PUSH1 0xF8 SHL DUP4 DUP4 DUP2 MLOAD DUP2 LT PUSH2 0x657 JUMPI PUSH2 0x656 PUSH2 0x1300 JUMP JUMPDEST JUMPDEST PUSH1 0x20 ADD ADD DUP5 PUSH1 0x1 DUP6 DUP8 MLOAD PUSH2 0x66B SWAP2 SWAP1 PUSH2 0x13B7 JUMP JUMPDEST PUSH2 0x675 SWAP2 SWAP1 PUSH2 0x13B7 JUMP JUMPDEST DUP2 MLOAD DUP2 LT PUSH2 0x686 JUMPI PUSH2 0x685 PUSH2 0x1300 JUMP JUMPDEST JUMPDEST PUSH1 0x20 ADD ADD DUP3 PUSH31 0xFFFFFFFFFFFFFFFFFFFFFFFFFFFFFFFFFFFFFFFFFFFFFFFFFFFFFFFFFFFFFF NOT AND PUSH0 BYTE SWAP1 MSTORE8 DUP3 PUSH31 0xFFFFFFFFFFFFFFFFFFFFFFFFFFFFFFFFFFFFFFFFFFFFFFFFFFFFFFFFFFFFFF NOT AND PUSH0 BYTE SWAP1 MSTORE8 POP POP DUP1 DUP1 PUSH1 0x1 ADD SWAP2 POP POP PUSH2 0x5DB JUMP JUMPDEST POP DUP1 SWAP2 POP POP SWAP2 SWAP1 POP JUMP JUMPDEST PUSH1 0x60 PUSH0 DUP4 MLOAD SWAP1 POP PUSH0 DUP4 MLOAD SWAP1 POP PUSH0 DUP2 DUP4 PUSH2 0x70A SWAP2 SWAP1 PUSH2 0x1447 JUMP JUMPDEST SWAP1 POP PUSH0 DUP2 PUSH8 0xFFFFFFFFFFFFFFFF DUP2 GT ISZERO PUSH2 0x727 JUMPI PUSH2 0x726 PUSH2 0xE41 JUMP JUMPDEST JUMPDEST PUSH1 0x40 MLOAD SWAP1 DUP1 DUP3 MSTORE DUP1 PUSH1 0x20 MUL PUSH1 0x20 ADD DUP3 ADD PUSH1 0x40 MSTORE DUP1 ISZERO PUSH2 0x755 JUMPI DUP2 PUSH1 0x20 ADD PUSH1 0x20 DUP3 MUL DUP1 CALLDATASIZE DUP4 CALLDATACOPY DUP1 DUP3 ADD SWAP2 POP POP SWAP1 POP JUMPDEST POP SWAP1 POP PUSH0 PUSH0 SWAP1 POP PUSH0 PUSH0 SWAP1 POP PUSH0 PUSH0 SWAP1 POP JUMPDEST DUP7 DUP4 LT DUP1 ISZERO PUSH2 0x773 JUMPI POP DUP6 DUP3 LT JUMPDEST ISZERO PUSH2 0x85C JUMPI DUP9 DUP3 DUP2 MLOAD DUP2 LT PUSH2 0x78B JUMPI PUSH2 0x78A PUSH2 0x1300 JUMP JUMPDEST JUMPDEST PUSH1 0x20 MUL PUSH1 0x20 ADD ADD MLOAD DUP11 DUP5 DUP2 MLOAD DUP2 LT PUSH2 0x7A6 JUMPI PUSH2 0x7A5 PUSH2 0x1300 JUMP JUMPDEST JUMPDEST PUSH1 0x20 MUL PUSH1 0x20 ADD ADD MLOAD SGT PUSH2 0x800 JUMPI DUP10 DUP4 DUP2 MLOAD DUP2 LT PUSH2 0x7C6 JUMPI PUSH2 0x7C5 PUSH2 0x1300 JUMP JUMPDEST JUMPDEST PUSH1 0x20 MUL PUSH1 0x20 ADD ADD MLOAD DUP5 DUP3 DUP2 MLOAD DUP2 LT PUSH2 0x7E1 JUMPI PUSH2 0x7E0 PUSH2 0x1300 JUMP JUMPDEST JUMPDEST PUSH1 0x20 MUL PUSH1 0x20 ADD ADD DUP2 DUP2 MSTORE POP POP DUP3 DUP1 PUSH2 0x7F8 SWAP1 PUSH2 0x147A JUMP JUMPDEST SWAP4 POP POP PUSH2 0x849 JUMP JUMPDEST DUP9 DUP3 DUP2 MLOAD DUP2 LT PUSH2 0x813 JUMPI PUSH2 0x812 PUSH2 0x1300 JUMP JUMPDEST JUMPDEST PUSH1 0x20 MUL PUSH1 0x20 ADD ADD MLOAD DUP5 DUP3 DUP2 MLOAD DUP2 LT PUSH2 0x82E JUMPI PUSH2 0x82D PUSH2 0x1300 JUMP JUMPDEST JUMPDEST PUSH1 0x20 MUL PUSH1 0x20 ADD ADD DUP2 DUP2 MSTORE POP POP DUP2 DUP1 PUSH2 0x845 SWAP1 PUSH2 0x147A JUMP JUMPDEST SWAP3 POP POP JUMPDEST DUP1 DUP1 PUSH2 0x854 SWAP1 PUSH2 0x147A JUMP JUMPDEST SWAP2 POP POP PUSH2 0x765 JUMP JUMPDEST JUMPDEST DUP7 DUP4 LT ISZERO PUSH2 0x8C0 JUMPI DUP10 DUP4 DUP2 MLOAD DUP2 LT PUSH2 0x878 JUMPI PUSH2 0x877 PUSH2 0x1300 JUMP JUMPDEST JUMPDEST PUSH1 0x20 MUL PUSH1 0x20 ADD ADD MLOAD DUP5 DUP3 DUP2 MLOAD DUP2 LT PUSH2 0x893 JUMPI PUSH2 0x892 PUSH2 0x1300 JUMP JUMPDEST JUMPDEST PUSH1 0x20 MUL PUSH1 0x20 ADD ADD DUP2 DUP2 MSTORE POP POP DUP3 DUP1 PUSH2 0x8AA SWAP1 PUSH2 0x147A JUMP JUMPDEST SWAP4 POP POP DUP1 DUP1 PUSH2 0x8B8 SWAP1 PUSH2 0x147A JUMP JUMPDEST SWAP2 POP POP PUSH2 0x85D JUMP JUMPDEST JUMPDEST DUP6 DUP3 LT ISZERO PUSH2 0x924 JUMPI DUP9 DUP3 DUP2 MLOAD DUP2 LT PUSH2 0x8DC JUMPI PUSH2 0x8DB PUSH2 0x1300 JUMP JUMPDEST JUMPDEST PUSH1 0x20 MUL PUSH1 0x20 ADD ADD MLOAD DUP5 DUP3 DUP2 MLOAD DUP2 LT PUSH2 0x8F7 JUMPI PUSH2 0x8F6 PUSH2 0x1300 JUMP JUMPDEST JUMPDEST PUSH1 0x20 MUL PUSH1 0x20 ADD ADD DUP2 DUP2 MSTORE POP POP DUP2 DUP1 PUSH2 0x90E SWAP1 PUSH2 0x147A JUMP JUMPDEST SWAP3 POP POP DUP1 DUP1 PUSH2 0x91C SWAP1 PUSH2 0x147A JUMP JUMPDEST SWAP2 POP POP PUSH2 0x8C1 JUMP JUMPDEST DUP4 SWAP8 POP POP POP POP POP POP POP POP SWAP3 SWAP2 POP POP JUMP JUMPDEST PUSH0 PUSH0 PUSH0 SWAP1 POP PUSH0 PUSH0 SWAP1 POP PUSH0 DUP5 MLOAD SWAP1 POP JUMPDEST PUSH0 DUP2 GT ISZERO PUSH2 0x9C6 JUMPI PUSH0 DUP6 PUSH1 0x1 DUP4 PUSH2 0x95A SWAP2 SWAP1 PUSH2 0x13B7 JUMP JUMPDEST DUP2 MLOAD DUP2 LT PUSH2 0x96B JUMPI PUSH2 0x96A PUSH2 0x1300 JUMP JUMPDEST JUMPDEST PUSH1 0x20 ADD ADD MLOAD PUSH1 0xF8 SHR PUSH1 0xF8 SHL SWAP1 POP PUSH0 PUSH2 0x982 DUP3 PUSH2 0xAB9 JUMP JUMPDEST SWAP1 POP DUP4 DUP2 LT ISZERO PUSH2 0x99F JUMPI DUP1 DUP6 PUSH2 0x998 SWAP2 SWAP1 PUSH2 0x13B7 JUMP JUMPDEST SWAP5 POP PUSH2 0x9AE JUMP JUMPDEST DUP1 DUP6 PUSH2 0x9AB SWAP2 SWAP1 PUSH2 0x1447 JUMP JUMPDEST SWAP5 POP JUMPDEST DUP1 SWAP4 POP POP POP DUP1 DUP1 PUSH2 0x9BE SWAP1 PUSH2 0x14C1 JUMP JUMPDEST SWAP2 POP POP PUSH2 0x943 JUMP JUMPDEST POP DUP2 SWAP3 POP POP POP SWAP2 SWAP1 POP JUMP JUMPDEST PUSH0 PUSH0 PUSH0 SWAP1 POP PUSH0 PUSH1 0x1 DUP6 MLOAD PUSH2 0x9E5 SWAP2 SWAP1 PUSH2 0x14E8 JUMP JUMPDEST SWAP1 POP JUMPDEST DUP1 DUP3 SGT PUSH2 0xA8D JUMPI PUSH0 PUSH1 0x2 DUP4 DUP4 PUSH2 0x9FE SWAP2 SWAP1 PUSH2 0x14E8 JUMP JUMPDEST PUSH2 0xA08 SWAP2 SWAP1 PUSH2 0x1528 JUMP JUMPDEST DUP4 PUSH2 0xA13 SWAP2 SWAP1 PUSH2 0x1590 JUMP JUMPDEST SWAP1 POP DUP5 DUP7 DUP3 DUP2 MLOAD DUP2 LT PUSH2 0xA29 JUMPI PUSH2 0xA28 PUSH2 0x1300 JUMP JUMPDEST JUMPDEST PUSH1 0x20 MUL PUSH1 0x20 ADD ADD MLOAD SUB PUSH2 0xA41 JUMPI DUP1 SWAP4 POP POP POP POP PUSH2 0xAB3 JUMP JUMPDEST DUP5 DUP7 DUP3 DUP2 MLOAD DUP2 LT PUSH2 0xA55 JUMPI PUSH2 0xA54 PUSH2 0x1300 JUMP JUMPDEST JUMPDEST PUSH1 0x20 MUL PUSH1 0x20 ADD ADD MLOAD SLT ISZERO PUSH2 0xA77 JUMPI PUSH1 0x1 DUP2 PUSH2 0xA70 SWAP2 SWAP1 PUSH2 0x1590 JUMP JUMPDEST SWAP3 POP PUSH2 0xA87 JUMP JUMPDEST PUSH1 0x1 DUP2 PUSH2 0xA84 SWAP2 SWAP1 PUSH2 0x14E8 JUMP JUMPDEST SWAP2 POP JUMPDEST POP PUSH2 0x9E8 JUMP JUMPDEST PUSH32 0xFFFFFFFFFFFFFFFFFFFFFFFFFFFFFFFFFFFFFFFFFFFFFFFFFFFFFFFFFFFFFFFF SWAP3 POP POP POP JUMPDEST SWAP3 SWAP2 POP POP JUMP JUMPDEST PUSH0 PUSH32 0x4900000000000000000000000000000000000000000000000000000000000000 DUP3 PUSH31 0xFFFFFFFFFFFFFFFFFFFFFFFFFFFFFFFFFFFFFFFFFFFFFFFFFFFFFFFFFFFFFF NOT AND SUB PUSH2 0xB0C JUMPI PUSH1 0x1 SWAP1 POP PUSH2 0xD35 JUMP JUMPDEST PUSH32 0x5600000000000000000000000000000000000000000000000000000000000000 DUP3 PUSH31 0xFFFFFFFFFFFFFFFFFFFFFFFFFFFFFFFFFFFFFFFFFFFFFFFFFFFFFFFFFFFFFF NOT AND SUB PUSH2 0xB5E JUMPI PUSH1 0x5 SWAP1 POP PUSH2 0xD35 JUMP JUMPDEST PUSH32 0x5800000000000000000000000000000000000000000000000000000000000000 DUP3 PUSH31 0xFFFFFFFFFFFFFFFFFFFFFFFFFFFFFFFFFFFFFFFFFFFFFFFFFFFFFFFFFFFFFF NOT AND SUB PUSH2 0xBB0 JUMPI PUSH1 0xA SWAP1 POP PUSH2 0xD35 JUMP JUMPDEST PUSH32 0x4C00000000000000000000000000000000000000000000000000000000000000 DUP3 PUSH31 0xFFFFFFFFFFFFFFFFFFFFFFFFFFFFFFFFFFFFFFFFFFFFFFFFFFFFFFFFFFFFFF NOT AND SUB PUSH2 0xC02 JUMPI PUSH1 0x32 SWAP1 POP PUSH2 0xD35 JUMP JUMPDEST PUSH32 0x4300000000000000000000000000000000000000000000000000000000000000 DUP3 PUSH31 0xFFFFFFFFFFFFFFFFFFFFFFFFFFFFFFFFFFFFFFFFFFFFFFFFFFFFFFFFFFFFFF NOT AND SUB PUSH2 0xC54 JUMPI PUSH1 0x64 SWAP1 POP PUSH2 0xD35 JUMP JUMPDEST PUSH32 0x4400000000000000000000000000000000000000000000000000000000000000 DUP3 PUSH31 0xFFFFFFFFFFFFFFFFFFFFFFFFFFFFFFFFFFFFFFFFFFFFFFFFFFFFFFFFFFFFFF NOT AND SUB PUSH2 0xCA7 JUMPI PUSH2 0x1F4 SWAP1 POP PUSH2 0xD35 JUMP JUMPDEST PUSH32 0x4D00000000000000000000000000000000000000000000000000000000000000 DUP3 PUSH31 0xFFFFFFFFFFFFFFFFFFFFFFFFFFFFFFFFFFFFFFFFFFFFFFFFFFFFFFFFFFFFFF NOT AND SUB PUSH2 0xCFA JUMPI PUSH2 0x3E8 SWAP1 POP PUSH2 0xD35 JUMP JUMPDEST PUSH1 0x40 MLOAD PUSH32 0x8C379A000000000000000000000000000000000000000000000000000000000 DUP2 MSTORE PUSH1 0x4 ADD PUSH2 0xD2C SWAP1 PUSH2 0x161B JUMP JUMPDEST PUSH1 0x40 MLOAD DUP1 SWAP2 SUB SWAP1 REVERT JUMPDEST SWAP2 SWAP1 POP JUMP JUMPDEST PUSH0 PUSH1 0x40 MLOAD SWAP1 POP SWAP1 JUMP JUMPDEST PUSH0 PUSH0 REVERT JUMPDEST PUSH0 PUSH0 REVERT JUMPDEST PUSH0 DUP2 SWAP1 POP SWAP2 SWAP1 POP JUMP JUMPDEST PUSH2 0xD5D DUP2 PUSH2 0xD4B JUMP JUMPDEST DUP2 EQ PUSH2 0xD67 JUMPI PUSH0 PUSH0 REVERT JUMPDEST POP JUMP JUMPDEST PUSH0 DUP2 CALLDATALOAD SWAP1 POP PUSH2 0xD78 DUP2 PUSH2 0xD54 JUMP JUMPDEST SWAP3 SWAP2 POP POP JUMP JUMPDEST PUSH0 PUSH1 0x20 DUP3 DUP5 SUB SLT ISZERO PUSH2 0xD93 JUMPI PUSH2 0xD92 PUSH2 0xD43 JUMP JUMPDEST JUMPDEST PUSH0 PUSH2 0xDA0 DUP5 DUP3 DUP6 ADD PUSH2 0xD6A JUMP JUMPDEST SWAP2 POP POP SWAP3 SWAP2 POP POP JUMP JUMPDEST PUSH0 DUP2 MLOAD SWAP1 POP SWAP2 SWAP1 POP JUMP JUMPDEST PUSH0 DUP3 DUP3 MSTORE PUSH1 0x20 DUP3 ADD SWAP1 POP SWAP3 SWAP2 POP POP JUMP JUMPDEST DUP3 DUP2 DUP4 MCOPY PUSH0 DUP4 DUP4 ADD MSTORE POP POP POP JUMP JUMPDEST PUSH0 PUSH1 0x1F NOT PUSH1 0x1F DUP4 ADD AND SWAP1 POP SWAP2 SWAP1 POP JUMP JUMPDEST PUSH0 PUSH2 0xDEB DUP3 PUSH2 0xDA9 JUMP JUMPDEST PUSH2 0xDF5 DUP2 DUP6 PUSH2 0xDB3 JUMP JUMPDEST SWAP4 POP PUSH2 0xE05 DUP2 DUP6 PUSH1 0x20 DUP7 ADD PUSH2 0xDC3 JUMP JUMPDEST PUSH2 0xE0E DUP2 PUSH2 0xDD1 JUMP JUMPDEST DUP5 ADD SWAP2 POP POP SWAP3 SWAP2 POP POP JUMP JUMPDEST PUSH0 PUSH1 0x20 DUP3 ADD SWAP1 POP DUP2 DUP2 SUB PUSH0 DUP4 ADD MSTORE PUSH2 0xE31 DUP2 DUP5 PUSH2 0xDE1 JUMP JUMPDEST SWAP1 POP SWAP3 SWAP2 POP POP JUMP JUMPDEST PUSH0 PUSH0 REVERT JUMPDEST PUSH0 PUSH0 REVERT JUMPDEST PUSH32 0x4E487B7100000000000000000000000000000000000000000000000000000000 PUSH0 MSTORE PUSH1 0x41 PUSH1 0x4 MSTORE PUSH1 0x24 PUSH0 REVERT JUMPDEST PUSH2 0xE77 DUP3 PUSH2 0xDD1 JUMP JUMPDEST DUP2 ADD DUP2 DUP2 LT PUSH8 0xFFFFFFFFFFFFFFFF DUP3 GT OR ISZERO PUSH2 0xE96 JUMPI PUSH2 0xE95 PUSH2 0xE41 JUMP JUMPDEST JUMPDEST DUP1 PUSH1 0x40 MSTORE POP POP POP JUMP JUMPDEST PUSH0 PUSH2 0xEA8 PUSH2 0xD3A JUMP JUMPDEST SWAP1 POP PUSH2 0xEB4 DUP3 DUP3 PUSH2 0xE6E JUMP JUMPDEST SWAP2 SWAP1 POP JUMP JUMPDEST PUSH0 PUSH8 0xFFFFFFFFFFFFFFFF DUP3 GT ISZERO PUSH2 0xED3 JUMPI PUSH2 0xED2 PUSH2 0xE41 JUMP JUMPDEST JUMPDEST PUSH2 0xEDC DUP3 PUSH2 0xDD1 JUMP JUMPDEST SWAP1 POP PUSH1 0x20 DUP2 ADD SWAP1 POP SWAP2 SWAP1 POP JUMP JUMPDEST DUP3 DUP2 DUP4 CALLDATACOPY PUSH0 DUP4 DUP4 ADD MSTORE POP POP POP JUMP JUMPDEST PUSH0 PUSH2 0xF09 PUSH2 0xF04 DUP5 PUSH2 0xEB9 JUMP JUMPDEST PUSH2 0xE9F JUMP JUMPDEST SWAP1 POP DUP3 DUP2 MSTORE PUSH1 0x20 DUP2 ADD DUP5 DUP5 DUP5 ADD GT ISZERO PUSH2 0xF25 JUMPI PUSH2 0xF24 PUSH2 0xE3D JUMP JUMPDEST JUMPDEST PUSH2 0xF30 DUP5 DUP3 DUP6 PUSH2 0xEE9 JUMP JUMPDEST POP SWAP4 SWAP3 POP POP POP JUMP JUMPDEST PUSH0 DUP3 PUSH1 0x1F DUP4 ADD SLT PUSH2 0xF4C JUMPI PUSH2 0xF4B PUSH2 0xE39 JUMP JUMPDEST JUMPDEST DUP2 CALLDATALOAD PUSH2 0xF5C DUP5 DUP3 PUSH1 0x20 DUP7 ADD PUSH2 0xEF7 JUMP JUMPDEST SWAP2 POP POP SWAP3 SWAP2 POP POP JUMP JUMPDEST PUSH0 PUSH1 0x20 DUP3 DUP5 SUB SLT ISZERO PUSH2 0xF7A JUMPI PUSH2 0xF79 PUSH2 0xD43 JUMP JUMPDEST JUMPDEST PUSH0 DUP3 ADD CALLDATALOAD PUSH8 0xFFFFFFFFFFFFFFFF DUP2 GT ISZERO PUSH2 0xF97 JUMPI PUSH2 0xF96 PUSH2 0xD47 JUMP JUMPDEST JUMPDEST PUSH2 0xFA3 DUP5 DUP3 DUP6 ADD PUSH2 0xF38 JUMP JUMPDEST SWAP2 POP POP SWAP3 SWAP2 POP POP JUMP JUMPDEST PUSH0 PUSH8 0xFFFFFFFFFFFFFFFF DUP3 GT ISZERO PUSH2 0xFC6 JUMPI PUSH2 0xFC5 PUSH2 0xE41 JUMP JUMPDEST JUMPDEST PUSH1 0x20 DUP3 MUL SWAP1 POP PUSH1 0x20 DUP2 ADD SWAP1 POP SWAP2 SWAP1 POP JUMP JUMPDEST PUSH0 PUSH0 REVERT JUMPDEST PUSH0 DUP2 SWAP1 POP SWAP2 SWAP1 POP JUMP JUMPDEST PUSH2 0xFED DUP2 PUSH2 0xFDB JUMP JUMPDEST DUP2 EQ PUSH2 0xFF7 JUMPI PUSH0 PUSH0 REVERT JUMPDEST POP JUMP JUMPDEST PUSH0 DUP2 CALLDATALOAD SWAP1 POP PUSH2 0x1008 DUP2 PUSH2 0xFE4 JUMP JUMPDEST SWAP3 SWAP2 POP POP JUMP JUMPDEST PUSH0 PUSH2 0x1020 PUSH2 0x101B DUP5 PUSH2 0xFAC JUMP JUMPDEST PUSH2 0xE9F JUMP JUMPDEST SWAP1 POP DUP1 DUP4 DUP3 MSTORE PUSH1 0x20 DUP3 ADD SWAP1 POP PUSH1 0x20 DUP5 MUL DUP4 ADD DUP6 DUP2 GT ISZERO PUSH2 0x1043 JUMPI PUSH2 0x1042 PUSH2 0xFD7 JUMP JUMPDEST JUMPDEST DUP4 JUMPDEST DUP2 DUP2 LT ISZERO PUSH2 0x106C JUMPI DUP1 PUSH2 0x1058 DUP9 DUP3 PUSH2 0xFFA JUMP JUMPDEST DUP5 MSTORE PUSH1 0x20 DUP5 ADD SWAP4 POP POP PUSH1 0x20 DUP2 ADD SWAP1 POP PUSH2 0x1045 JUMP JUMPDEST POP POP POP SWAP4 SWAP3 POP POP POP JUMP JUMPDEST PUSH0 DUP3 PUSH1 0x1F DUP4 ADD SLT PUSH2 0x108A JUMPI PUSH2 0x1089 PUSH2 0xE39 JUMP JUMPDEST JUMPDEST DUP2 CALLDATALOAD PUSH2 0x109A DUP5 DUP3 PUSH1 0x20 DUP7 ADD PUSH2 0x100E JUMP JUMPDEST SWAP2 POP POP SWAP3 SWAP2 POP POP JUMP JUMPDEST PUSH0 PUSH0 PUSH1 0x40 DUP4 DUP6 SUB SLT ISZERO PUSH2 0x10B9 JUMPI PUSH2 0x10B8 PUSH2 0xD43 JUMP JUMPDEST JUMPDEST PUSH0 DUP4 ADD CALLDATALOAD PUSH8 0xFFFFFFFFFFFFFFFF DUP2 GT ISZERO PUSH2 0x10D6 JUMPI PUSH2 0x10D5 PUSH2 0xD47 JUMP JUMPDEST JUMPDEST PUSH2 0x10E2 DUP6 DUP3 DUP7 ADD PUSH2 0x1076 JUMP JUMPDEST SWAP3 POP POP PUSH1 0x20 DUP4 ADD CALLDATALOAD PUSH8 0xFFFFFFFFFFFFFFFF DUP2 GT ISZERO PUSH2 0x1103 JUMPI PUSH2 0x1102 PUSH2 0xD47 JUMP JUMPDEST JUMPDEST PUSH2 0x110F DUP6 DUP3 DUP7 ADD PUSH2 0x1076 JUMP JUMPDEST SWAP2 POP POP SWAP3 POP SWAP3 SWAP1 POP JUMP JUMPDEST PUSH0 DUP2 MLOAD SWAP1 POP SWAP2 SWAP1 POP JUMP JUMPDEST PUSH0 DUP3 DUP3 MSTORE PUSH1 0x20 DUP3 ADD SWAP1 POP SWAP3 SWAP2 POP POP JUMP JUMPDEST PUSH0 DUP2 SWAP1 POP PUSH1 0x20 DUP3 ADD SWAP1 POP SWAP2 SWAP1 POP JUMP JUMPDEST PUSH2 0x114B DUP2 PUSH2 0xFDB JUMP JUMPDEST DUP3 MSTORE POP POP JUMP JUMPDEST PUSH0 PUSH2 0x115C DUP4 DUP4 PUSH2 0x1142 JUMP JUMPDEST PUSH1 0x20 DUP4 ADD SWAP1 POP SWAP3 SWAP2 POP POP JUMP JUMPDEST PUSH0 PUSH1 0x20 DUP3 ADD SWAP1 POP SWAP2 SWAP1 POP JUMP JUMPDEST PUSH0 PUSH2 0x117E DUP3 PUSH2 0x1119 JUMP JUMPDEST PUSH2 0x1188 DUP2 DUP6 PUSH2 0x1123 JUMP JUMPDEST SWAP4 POP PUSH2 0x1193 DUP4 PUSH2 0x1133 JUMP JUMPDEST DUP1 PUSH0 JUMPDEST DUP4 DUP2 LT ISZERO PUSH2 0x11C3 JUMPI DUP2 MLOAD PUSH2 0x11AA DUP9 DUP3 PUSH2 0x1151 JUMP JUMPDEST SWAP8 POP PUSH2 0x11B5 DUP4 PUSH2 0x1168 JUMP JUMPDEST SWAP3 POP POP PUSH1 0x1 DUP2 ADD SWAP1 POP PUSH2 0x1196 JUMP JUMPDEST POP DUP6 SWAP4 POP POP POP POP SWAP3 SWAP2 POP POP JUMP JUMPDEST PUSH0 PUSH1 0x20 DUP3 ADD SWAP1 POP DUP2 DUP2 SUB PUSH0 DUP4 ADD MSTORE PUSH2 0x11E8 DUP2 DUP5 PUSH2 0x1174 JUMP JUMPDEST SWAP1 POP SWAP3 SWAP2 POP POP JUMP JUMPDEST PUSH2 0x11F9 DUP2 PUSH2 0xFDB JUMP JUMPDEST DUP3 MSTORE POP POP JUMP JUMPDEST PUSH0 PUSH1 0x20 DUP3 ADD SWAP1 POP PUSH2 0x1212 PUSH0 DUP4 ADD DUP5 PUSH2 0x11F0 JUMP JUMPDEST SWAP3 SWAP2 POP POP JUMP JUMPDEST PUSH0 PUSH0 PUSH1 0x40 DUP4 DUP6 SUB SLT ISZERO PUSH2 0x122E JUMPI PUSH2 0x122D PUSH2 0xD43 JUMP JUMPDEST JUMPDEST PUSH0 DUP4 ADD CALLDATALOAD PUSH8 0xFFFFFFFFFFFFFFFF DUP2 GT ISZERO PUSH2 0x124B JUMPI PUSH2 0x124A PUSH2 0xD47 JUMP JUMPDEST JUMPDEST PUSH2 0x1257 DUP6 DUP3 DUP7 ADD PUSH2 0x1076 JUMP JUMPDEST SWAP3 POP POP PUSH1 0x20 PUSH2 0x1268 DUP6 DUP3 DUP7 ADD PUSH2 0xFFA JUMP JUMPDEST SWAP2 POP POP SWAP3 POP SWAP3 SWAP1 POP JUMP JUMPDEST PUSH32 0x4E756D626572206D757374206265206265747765656E203120616E6420333939 PUSH0 DUP3 ADD MSTORE PUSH32 0x3900000000000000000000000000000000000000000000000000000000000000 PUSH1 0x20 DUP3 ADD MSTORE POP JUMP JUMPDEST PUSH0 PUSH2 0x12CC PUSH1 0x21 DUP4 PUSH2 0xDB3 JUMP JUMPDEST SWAP2 POP PUSH2 0x12D7 DUP3 PUSH2 0x1272 JUMP JUMPDEST PUSH1 0x40 DUP3 ADD SWAP1 POP SWAP2 SWAP1 POP JUMP JUMPDEST PUSH0 PUSH1 0x20 DUP3 ADD SWAP1 POP DUP2 DUP2 SUB PUSH0 DUP4 ADD MSTORE PUSH2 0x12F9 DUP2 PUSH2 0x12C0 JUMP JUMPDEST SWAP1 POP SWAP2 SWAP1 POP JUMP JUMPDEST PUSH32 0x4E487B7100000000000000000000000000000000000000000000000000000000 PUSH0 MSTORE PUSH1 0x32 PUSH1 0x4 MSTORE PUSH1 0x24 PUSH0 REVERT JUMPDEST PUSH0 DUP2 SWAP1 POP SWAP3 SWAP2 POP POP JUMP JUMPDEST PUSH0 PUSH2 0x1341 DUP3 PUSH2 0xDA9 JUMP JUMPDEST PUSH2 0x134B DUP2 DUP6 PUSH2 0x132D JUMP JUMPDEST SWAP4 POP PUSH2 0x135B DUP2 DUP6 PUSH1 0x20 DUP7 ADD PUSH2 0xDC3 JUMP JUMPDEST DUP1 DUP5 ADD SWAP2 POP POP SWAP3 SWAP2 POP POP JUMP JUMPDEST PUSH0 PUSH2 0x1372 DUP3 DUP6 PUSH2 0x1337 JUMP JUMPDEST SWAP2 POP PUSH2 0x137E DUP3 DUP5 PUSH2 0x1337 JUMP JUMPDEST SWAP2 POP DUP2 SWAP1 POP SWAP4 SWAP3 POP POP POP JUMP JUMPDEST PUSH32 0x4E487B7100000000000000000000000000000000000000000000000000000000 PUSH0 MSTORE PUSH1 0x11 PUSH1 0x4 MSTORE PUSH1 0x24 PUSH0 REVERT JUMPDEST PUSH0 PUSH2 0x13C1 DUP3 PUSH2 0xD4B JUMP JUMPDEST SWAP2 POP PUSH2 0x13CC DUP4 PUSH2 0xD4B JUMP JUMPDEST SWAP3 POP DUP3 DUP3 SUB SWAP1 POP DUP2 DUP2 GT ISZERO PUSH2 0x13E4 JUMPI PUSH2 0x13E3 PUSH2 0x138A JUMP JUMPDEST JUMPDEST SWAP3 SWAP2 POP POP JUMP JUMPDEST PUSH32 0x4E487B7100000000000000000000000000000000000000000000000000000000 PUSH0 MSTORE PUSH1 0x12 PUSH1 0x4 MSTORE PUSH1 0x24 PUSH0 REVERT JUMPDEST PUSH0 PUSH2 0x1421 DUP3 PUSH2 0xD4B JUMP JUMPDEST SWAP2 POP PUSH2 0x142C DUP4 PUSH2 0xD4B JUMP JUMPDEST SWAP3 POP DUP3 PUSH2 0x143C JUMPI PUSH2 0x143B PUSH2 0x13EA JUMP JUMPDEST JUMPDEST DUP3 DUP3 DIV SWAP1 POP SWAP3 SWAP2 POP POP JUMP JUMPDEST PUSH0 PUSH2 0x1451 DUP3 PUSH2 0xD4B JUMP JUMPDEST SWAP2 POP PUSH2 0x145C DUP4 PUSH2 0xD4B JUMP JUMPDEST SWAP3 POP DUP3 DUP3 ADD SWAP1 POP DUP1 DUP3 GT ISZERO PUSH2 0x1474 JUMPI PUSH2 0x1473 PUSH2 0x138A JUMP JUMPDEST JUMPDEST SWAP3 SWAP2 POP POP JUMP JUMPDEST PUSH0 PUSH2 0x1484 DUP3 PUSH2 0xD4B JUMP JUMPDEST SWAP2 POP PUSH32 0xFFFFFFFFFFFFFFFFFFFFFFFFFFFFFFFFFFFFFFFFFFFFFFFFFFFFFFFFFFFFFFFF DUP3 SUB PUSH2 0x14B6 JUMPI PUSH2 0x14B5 PUSH2 0x138A JUMP JUMPDEST JUMPDEST PUSH1 0x1 DUP3 ADD SWAP1 POP SWAP2 SWAP1 POP JUMP JUMPDEST PUSH0 PUSH2 0x14CB DUP3 PUSH2 0xD4B JUMP JUMPDEST SWAP2 POP PUSH0 DUP3 SUB PUSH2 0x14DD JUMPI PUSH2 0x14DC PUSH2 0x138A JUMP JUMPDEST JUMPDEST PUSH1 0x1 DUP3 SUB SWAP1 POP SWAP2 SWAP1 POP JUMP JUMPDEST PUSH0 PUSH2 0x14F2 DUP3 PUSH2 0xFDB JUMP JUMPDEST SWAP2 POP PUSH2 0x14FD DUP4 PUSH2 0xFDB JUMP JUMPDEST SWAP3 POP DUP3 DUP3 SUB SWAP1 POP DUP2 DUP2 SLT PUSH0 DUP5 SLT AND DUP3 DUP3 SGT PUSH0 DUP6 SLT ISZERO AND OR ISZERO PUSH2 0x1522 JUMPI PUSH2 0x1521 PUSH2 0x138A JUMP JUMPDEST JUMPDEST SWAP3 SWAP2 POP POP JUMP JUMPDEST PUSH0 PUSH2 0x1532 DUP3 PUSH2 0xFDB JUMP JUMPDEST SWAP2 POP PUSH2 0x153D DUP4 PUSH2 0xFDB JUMP JUMPDEST SWAP3 POP DUP3 PUSH2 0x154D JUMPI PUSH2 0x154C PUSH2 0x13EA JUMP JUMPDEST JUMPDEST PUSH1 0x1 PUSH0 SUB DUP4 EQ PUSH32 0x8000000000000000000000000000000000000000000000000000000000000000 DUP4 EQ AND ISZERO PUSH2 0x1585 JUMPI PUSH2 0x1584 PUSH2 0x138A JUMP JUMPDEST JUMPDEST DUP3 DUP3 SDIV SWAP1 POP SWAP3 SWAP2 POP POP JUMP JUMPDEST PUSH0 PUSH2 0x159A DUP3 PUSH2 0xFDB JUMP JUMPDEST SWAP2 POP PUSH2 0x15A5 DUP4 PUSH2 0xFDB JUMP JUMPDEST SWAP3 POP DUP3 DUP3 ADD SWAP1 POP DUP3 DUP2 SLT ISZERO PUSH0 DUP4 SLT AND DUP4 DUP3 SLT PUSH0 DUP5 SLT ISZERO AND OR ISZERO PUSH2 0x15CB JUMPI PUSH2 0x15CA PUSH2 0x138A JUMP JUMPDEST JUMPDEST SWAP3 SWAP2 POP POP JUMP JUMPDEST PUSH32 0x496E76616C696420526F6D616E206E756D6572616C2063686172616374657200 PUSH0 DUP3 ADD MSTORE POP JUMP JUMPDEST PUSH0 PUSH2 0x1605 PUSH1 0x1F DUP4 PUSH2 0xDB3 JUMP JUMPDEST SWAP2 POP PUSH2 0x1610 DUP3 PUSH2 0x15D1 JUMP JUMPDEST PUSH1 0x20 DUP3 ADD SWAP1 POP SWAP2 SWAP1 POP JUMP JUMPDEST PUSH0 PUSH1 0x20 DUP3 ADD SWAP1 POP DUP2 DUP2 SUB PUSH0 DUP4 ADD MSTORE PUSH2 0x1632 DUP2 PUSH2 0x15F9 JUMP JUMPDEST SWAP1 POP SWAP2 SWAP1 POP JUMP INVALID LOG2 PUSH5 0x6970667358 0x22 SLT KECCAK256 0xEA GT REVERT 0x4E CALL 0x24 SWAP15 EXTCODEHASH CHAINID 0xA6 DUP10 MSTORE 0xB8 0xC0 DUP1 0x22 PUSH16 0x3BBA246A3D0EF12D7CB8DAC21CD90F64 PUSH20 0x6F6C634300081F00330000000000000000000000 "
		},
		"gasEstimates": {
			"creation": {
				"codeDepositCost": "1148600",
				"executionCost": "1192",
				"totalCost": "1149792"
			},
			"external": {
				"binarySearch(int256[],int256)": "infinite",
				"intToRoman(uint256)": "infinite",
				"mergeSortedArrays(int256[],int256[])": "infinite",
				"remanToInt(string)": "infinite",
				"reverseString(string)": "infinite"
			},
			"internal": {
				"_getRomanValue(bytes1)": "infinite"
			}
		},
		"methodIdentifiers": {
			"binarySearch(int256[],int256)": "f4353706",
			"intToRoman(uint256)": "0cbc513a",
			"mergeSortedArrays(int256[],int256[])": "7591f01f",
			"remanToInt(string)": "baa97199",
			"reverseString(string)": "5729c211"
		}
	},
	"abi": [
		{
			"inputs": [
				{
					"internalType": "int256[]",
					"name": "arr",
					"type": "int256[]"
				},
				{
					"internalType": "int256",
					"name": "target",
					"type": "int256"
				}
			],
			"name": "binarySearch",
			"outputs": [
				{
					"internalType": "int256",
					"name": "",
					"type": "int256"
				}
			],
			"stateMutability": "pure",
			"type": "function"
		},
		{
			"inputs": [
				{
					"internalType": "uint256",
					"name": "num",
					"type": "uint256"
				}
			],
			"name": "intToRoman",
			"outputs": [
				{
					"internalType": "string",
					"name": "",
					"type": "string"
				}
			],
			"stateMutability": "pure",
			"type": "function"
		},
		{
			"inputs": [
				{
					"internalType": "int256[]",
					"name": "arr1",
					"type": "int256[]"
				},
				{
					"internalType": "int256[]",
					"name": "arr2",
					"type": "int256[]"
				}
			],
			"name": "mergeSortedArrays",
			"outputs": [
				{
					"internalType": "int256[]",
					"name": "",
					"type": "int256[]"
				}
			],
			"stateMutability": "pure",
			"type": "function"
		},
		{
			"inputs": [
				{
					"internalType": "string",
					"name": "roman",
					"type": "string"
				}
			],
			"name": "remanToInt",
			"outputs": [
				{
					"internalType": "int256",
					"name": "",
					"type": "int256"
				}
			],
			"stateMutability": "pure",
			"type": "function"
		},
		{
			"inputs": [
				{
					"internalType": "string",
					"name": "_input",
					"type": "string"
				}
			],
			"name": "reverseString",
			"outputs": [
				{
					"internalType": "string",
					"name": "res",
					"type": "string"
				}
			],
			"stateMutability": "pure",
			"type": "function"
		}
	]
}